:020000040800F2
:10000000AC09002061170008CD170008CD170008C3
:10001000CD170008CD170008CD170008000000001C
:10002000000000000000000000000000CD170008E4
:10003000CD17000800000000CD170008CD170008FC
:10004000CD170008CD170008CD170008CD17000800
:10005000CD170008CD170008CD170008CD170008F0
:10006000CD170008CD170008CD170008CD170008E0
:10007000CD170008CD170008CD170008CD170008D0
:10008000CD170008CD170008CD170008CD170008C0
:100090005107000899090008CD170008CD1700087E
:1000A000CD170008CD170008CD170008CD170008A0
:1000B000CD170008CD170008CD170008CD17000890
:1000C000CD170008CD170008CD170008CD17000880
:1000D000CD170008CD170008CD170008CD17000870
:1000E000CD170008CD170008CD170008CD17000860
:1000F000CD170008CD170008CD170008CD17000850
:10010000CD170008CD170008CD170008CD1700083F
:10011000CD170008CD170008CD170008CD1700082F
:10012000CD170008CD170008CD170008CD1700081F
:10013000CD170008CD170008CD170008CD1700080F
:10014000CD170008CD170008CD170008CD170008FF
:10015000CD170008CD170008CD170008CD170008EF
:10016000CD170008CD170008CD170008CD170008DF
:10017000CD170008CD170008CD170008CD170008CF
:10018000CD170008CD17000880B584B000AF034636
:10019000FB714FF080033B73FB797B7307F10C021B
:1001A000FB79104619464FF000024FF0020300F0B1
:1001B000E7FD4FF00A0000F02BF907F11007BD46EC
:1001C00080BD00BF80B584B000AF0346FB714FF027
:1001D00082033B73FB797B7307F10C02FB791046BA
:1001E00019464FF000024FF0020300F0C9FD4FF036
:1001F0000A0000F00DF907F11007BD4680BD00BFF1
:1002000080B584B000AF02460B46FA71BB714FF067
:1002100022033B724FF060037B724FF06003BB72AE
:100220004FF00003FB72BB793B734FF000037B730D
:100230004FF00003BB734FF00003FB7307F108029C
:10024000FB79104619464FF000024FF0080300F00A
:1002500097FD4FF00A0000F0DBF807F11007BD46EC
:1002600080BD00BF80B584B000AF0346FB714FF086
:1002700022033B724FF040037B724FF06003BB726E
:100280004FF00003FB724FF00F033B734FF000037E
:100290007B734FF00003BB734FF00003FB7307F158
:1002A0000802FB79104619464FF000024FF0080390
:1002B00000F066FD4FF00A0000F0AAF84FF02203AC
:1002C0003B724FF040037B724FF06003BB724FF004
:1002D0000003FB724FF08F033B734FF000037B73FF
:1002E0004FF00003BB734FF00003FB7307F10802EC
:1002F000FB79104619464FF000024FF0080300F05A
:100300003FFD4FF00A0000F083F807F11007BD46EB
:1003100080BD00BF80B584B000AF0346FB714FF0D5
:1003200022033B724FF040037B724FF06003BB72BD
:100330004FF00003FB724FF006033B734FF00003D6
:100340007B734FF00003BB734FF00003FB7307F1A7
:100350000802FB79104619464FF000024FF00803DF
:1003600000F00EFD4FF00A0000F052F84FF02203AB
:100370003B724FF040037B724FF06003BB724FF053
:100380000003FB724FF00F033B734FF000037B73CE
:100390004FF00003BB734FF00003FB7307F108023B
:1003A000FB79104619464FF000024FF0080300F0A9
:1003B000E7FC4FF00A0000F02BF84FF022033B72ED
:1003C0004FF040037B724FF06003BB724FF00003AD
:1003D000FB724FF00F033B734FF001037B734FF041
:1003E0000003BB734FF00003FB7307F10802FB79B6
:1003F000104619464FF000024FF0080300F0C0FC11
:100400004FF00A0000F004F807F11007BD4680BD68
:1004100080B485B000AF0346FB71FB7940F6F20271
:1004200002FB03F3FB6003E0FB6803F1FF33FB60B7
:10043000FB680A2BF8D807F11407BD4680BC70474B
:1004400080B485B000AF0346FB80FB884FEA4303CE
:10045000FB6003E0FB6803F1FF33FB60FB68002BEC
:10046000F8D107F11407BD4680BC704780B584B051
:1004700000AF78600B467B804FF022033B724FF059
:1004800030037B724FF02003BB724FF00003FB720E
:100490007B88DBB23B73B7F9023003F47F434FEA4A
:1004A0002323DBB27B737B68DBB207F108021046C3
:1004B00019464FF000024FF0060300F061FC4FF0C8
:1004C0003200FFF7BDFF07F11007BD4680BD00BF3A
:1004D00080B584B000AF78604FF040033B724FF0BE
:1004E00064037B724FF06003BB724FF00003FB723A
:1004F0004FF000033B734FF000037B734FF000039A
:10050000BB734FF00003FB737B68DBB207F108029B
:10051000104619464FF000024FF0040300F030FC83
:1005200007F11007BD4680BD80B584B000AF78608C
:100530004FF040033B724FF027037B724FF02003D4
:10054000BB724FF00003FB724FF000033B734FF0A0
:1005500000037B734FF00003BB734FF00003FB738A
:100560007B68DBB207F10802104619464FF0000223
:100570004FF0040300F004FC07F11007BD4680BDF6
:1005800080B584B000AF4FF020004FF0010101F0C2
:10059000C9F907F10403FB60FB684FF080021A60A1
:1005A000FB684FF001021A71FB684FF00102DA712B
:1005B000FB684FF000029A71FB684FF002025A711B
:1005C0004FF4A050C4F20200F96801F0FFF9FB6893
:1005D0004FF480721A60FB684FF001021A71FB68D9
:1005E0004FF00102DA71FB684FF000029A71FB686C
:1005F0004FF002025A714FF4A050C4F20200F968A1
:1006000001F0E4F9FB684FF400721A60FB684FF0E8
:1006100001021A71FB684FF00102DA71FB684FF0BA
:1006200000029A71FB684FF002025A714FF4A05019
:10063000C4F20200F96801F0C9F9FB684FF040020A
:100640001A60FB684FF001021A71FB684FF001025B
:10065000DA71FB684FF000029A71FB684FF00202FA
:100660005A714FF4A050C4F20200F96801F0AEF9DB
:1006700007F11007BD4680BD80B582B000AF0346CC
:10068000FB71FB79012B07D14FF4A050C4F202009B
:100690004FF4807101F05AFAFB79022B07D14FF425
:1006A000A050C4F202004FF0800101F04FFAFB7934
:1006B000002B07D14FF4A050C4F202004FF04001CC
:1006C00001F044FAFB79032B07D14FF4A050C4F298
:1006D00002004FF4007101F039FA07F10807BD4636
:1006E00080BD00BF80B582B000AF0346FB71FB79CF
:1006F000012B07D14FF4A050C4F202004FF48071D7
:1007000001F032FAFB79022B07D14FF4A050C4F26A
:1007100002004FF0800101F027FAFB79002B07D18E
:100720004FF4A050C4F202004FF0400101F01CFA57
:10073000FB79032B07D14FF4A050C4F202004FF411
:10074000007101F011FA07F10807BD4680BD00BF36
:1007500080B588B000AF07F10803FB6140F20003E9
:10076000C2F200031B68012B0BD14FF4C840C4F246
:1007700000004FF0000140F20402C2F2000200F05B
:100780002FFE4FF4C840C4F2000000F0FDFE034607
:10079000002B14BF00230123DAB240F20003C2F29F
:1007A00000031B68002B14BF00230123DBB213409E
:1007B000DBB2002B00F0EB804FF4C840C4F2000025
:1007C0004FF00301C1F2002100F010FF0346012B9E
:1007D00040F0DD804FF4C840C4F200004FF000014B
:1007E000FA6900F0FDFDFB699B7B4FEA0362FB6940
:1007F0005B7B4FEA03431A43FB691B7B4FEA0323EE
:100800001A43FB69DB7A13437B60FB699B7C4FEAED
:100810000362FB695B7C4FEA03431A43FB691B7C61
:100820004FEA03231A43FB69DB7B13433B60FB7EE8
:10083000002B54D14FF00100FFF754FF7B6842F6C4
:100840004302C0F2200293422CD042F64302C0F28F
:10085000200293420CDC42F24B72C0F2200293421F
:1008600027D042F26072C0F2200293422BD029E0DE
:1008700046F24342C0F2600293420CD046F260421C
:10088000C0F26002934220D042F66002C0F2200221
:1008900093421CD016E03A6840F2C403C2F200034F
:1008A000DA6415E03A6840F2C403C2F200031A6445
:1008B0000EE03B689AB240F2C403C2F20003A3F810
:1008C000582005E004E000BF02E000BF00E000BFE8
:1008D00040F28C13C2F200034FF001021A60FB7E5B
:1008E000012B54D14FF00200FFF7FCFE7B6842F66B
:1008F0004302C0F2200293422CD042F64302C0F2DF
:10090000200293420CDC42F24B72C0F2200293426E
:1009100027D042F26072C0F2200293422BD029E02D
:1009200046F24342C0F2600293420CD046F260426B
:10093000C0F26002934220D042F66002C0F2200270
:1009400093421CD016E03A6840F2C403C2F200039E
:100950001A6515E03A6840F2C403C2F200035A6413
:100960000EE03B689AB240F2C403C2F20003A3F85F
:100970005A2005E004E000BF02E000BF00E000BF35
:1009800040F28C13C2F200034FF001025A6007F1EB
:100990002007BD4680BD00BF80B588B000AF07F11D
:1009A0000803FB6140F20003C2F200031B68012B45
:1009B0000BD14FF4C840C4F200004FF0010140F2E7
:1009C0000402C2F2000200F00BFD4FF4C840C4F272
:1009D000000000F0D9FD0346002B14BF00230123C3
:1009E000DAB240F20003C2F200031B68002B14BF0E
:1009F00000230123DBB21340DBB2002B00F0938015
:100A00004FF4C840C4F200004FF00301C1F20041AE
:100A100000F0ECFD0346012B40F085804FF4C84008
:100A2000C4F200004FF00101FA6900F0D9FCFB6943
:100A30009B7B4FEA0362FB695B7B4FEA03431A43EC
:100A4000FB691B7B4FEA03231A43FB69DB7A1343E1
:100A50007B60FB699B7C4FEA0362FB695B7C4FEA2E
:100A600003431A43FB691B7C4FEA03231A43FB69C8
:100A7000DB7B13433B60FB7E002B54D14FF0030024
:100A8000FFF730FE7B6842F64302C0F22002934239
:100A90002CD042F64302C0F2200293420CDC42F218
:100AA0004B72C0F22002934227D042F26072C0F231
:100AB000200293422BD029E046F24342C0F260026A
:100AC00093420CD046F26042C0F26002934220D0C2
:100AD00042F66002C0F2200293421CD016E03A684F
:100AE00040F2C403C2F200035A6515E03A6840F2CE
:100AF000C403C2F200039A640EE03B689AB240F26B
:100B0000C403C2F20003A3F85C2005E004E000BFC8
:100B100002E000BF00E000BF40F28C13C2F200030D
:100B20004FF001029A6007F12007BD4680BD00BF6B
:100B300080B598B000AF07F11803BB6507F1040357
:100B40007B654FF00003FB650AE007F12002FB6DB7
:100B5000D3184FF00002DA70FB6D03F10103FB655F
:100B6000FB6D072BF1DD4FF002004FF0010100F0AB
:100B7000D9FE4FF000704FF0010100F0FDFE4FF480
:100B80008060C4F202004FF008014FF0090200F04B
:100B9000FDFF4FF48060C4F202004FF009014FF0F6
:100BA000090200F0F3FF07F14C03184600F0B0FF14
:100BB0004FF0020387F850304FF48073FB6407F165
:100BC0004C034FF48060C4F20200194600F0FEFEB0
:100BD0004FF0020387F850304FF40073FB6407F1C5
:100BE0004C034FF48060C4F20200194600F0EEFEA0
:100BF0004FF4C843C4F200034FF000025A614FF0B3
:100C0000140387F848304FF0010387F84B304FF05A
:100C10000E0387F8493007F14803184601F018F928
:100C20004FF0150387F848304FF0010387F84B3039
:100C30004FF00E0387F8493007F14803184601F0DA
:100C400007F94FF0020387F83F304FF0070387F8AA
:100C500040304FF0040387F841304FF00303BB8767
:100C60004FF4C843C4F200034FF000021A604FF083
:100C7000000387F83E3007F13C034FF4C840C4F24C
:100C80000000194600F0D8F84FF4C840C4F2000044
:100C90004FF07001C3F2F00100F024FD4FF00103AA
:100CA00087F839304FF00003BB864BF24003BB8519
:100CB0004BF22003FB854FF6FF733B864FF6FF7325
:100CC0007B864FF0000387F837304FF0000387F83A
:100CD00036304FF0000387F8383007F12C03184600
:100CE00000F088F94FF4C840C4F200004FF0000152
:100CF000BA6D00F075FB4FF0010387F839304FF003
:100D00000103BB864FF00003BB854BF28003FB85DC
:100D10004FF6FF733B864FF6FF737B864FF0000361
:100D200087F837304FF0020387F836304FF0000372
:100D300087F8383007F12C03184600F05BF94FF4C0
:100D4000C840C4F200004FF00101BA6D00F048FB4A
:100D50004FF4C840C4F200004FF002014FF001020E
:100D600000F026FC4FF4C840C4F200004FF0100120
:100D70004FF0010200F01CFC07F16007BD4680BD8A
:100D800080B58AB000AF7860F970BA707B7007F1F7
:100D900008033B62FB78022B07D0042B09D0012B00
:100DA0000BD140F20163BB6008E040F20263BB601C
:100DB00004E040F20463BB6000E000BF4FF00003BA
:100DC0003B744FF000037B620CE07B6A7A68D318B7
:100DD0001A7807F110017B6ACB18DA707B6A03F18D
:100DE00001037B627B6A072BEFDDBB78012B0ED101
:100DF0004FF002037B7407F108034FF4C840C4F2BC
:100E00000000194600F0FEF90346FB770FE04FF0B3
:100E100000037B747B78BB7407F108034FF4C84070
:100E2000C4F20000194600F0EDF90346FB7707F124
:100E30002807BD4680BD00BF80B485B000AF786094
:100E400039604FF00003FB734FF00003BB607B6819
:100E50001B6823F002027B681A607B681B6843F002
:100E600001027B681A6003E0BB6803F10103BB6009
:100E70007B685B6803F00103002B04D1BA684FF66E
:100E8000FF739A42F0D17B685B6803F00103002B8B
:100E900003D14FF00003FB73A5E03B689B79012B66
:100EA00006D17B681B6843F080027B681A6005E00E
:100EB0007B681B6823F080027B681A603B68DB79E3
:100EC000012B06D17B681B6843F040027B681A60E7
:100ED00005E07B681B6823F040027B681A603B6872
:100EE0001B7A012B06D17B681B6843F020027B68CC
:100EF0001A6005E07B681B6823F020027B681A609B
:100F00003B685B7A012B06D17B681B6843F01002BB
:100F10007B681A6005E07B681B6823F010027B6821
:100F20001A603B689B7A012B06D17B681B6843F0F3
:100F300008027B681A6005E07B681B6823F00802E2
:100F40007B681A603B68DB7A012B06D17B681B68E3
:100F500043F004027B681A6005E07B681B6823F09D
:100F600004027B681A603B689B784FEA83723B6897
:100F7000DB784FEA03631A433B681B794FEA03436C
:100F80001A433B685B794FEA03531A433B681B885B
:100F900003F1FF331A437B68DA617B681B6823F037
:100FA00001027B681A604FF00003BB6003E0BB687E
:100FB00003F10103BB607B685B6803F00103002B56
:100FC00004D0BA684FF6FF739A42F0D17B685B6831
:100FD00003F00103002B03D04FF00003FB7302E08A
:100FE0004FF00103FB73FB7B184607F11407BD4666
:100FF00080BC704780B485B000AF78604FF00003CC
:10100000FB607B689B7A4FF0010202FA03F3FB60FE
:101010004FF4C843C4F200034FF4C842C4F20002C4
:10102000D2F8002242F00102C3F800224FF4C84374
:10103000C4F200034FF4C842C4F20002D2F81C12FA
:10104000FA686FEA02020A40C3F81C227B681B7B25
:10105000002B33D14FF4C843C4F200034FF4C8420D
:10106000C4F20002D2F80C12FA686FEA02020A40D7
:10107000C3F80C224FF4C843C4F200037A68927A92
:101080007968C9884FEA014079684988014302F1CB
:10109000480243F832104FF4C842C4F200027B68A1
:1010A0009B7A796889884FEA014079680988014309
:1010B00003F148034FEAC303D31859607B681B7BD5
:1010C000012B31D14FF4C843C4F200034FF4C8429E
:1010D000C4F20002D2F80C12FA680A43C3F80C22D8
:1010E0004FF4C843C4F200037A68927A7968098899
:1010F0004FEA014079684988014302F1480243F808
:1011000032104FF4C842C4F200027B689B7A7968BF
:1011100089884FEA01407968C988014303F148038F
:101120004FEAC303D31859607B68DB7A002B10D1D8
:101130004FF4C843C4F200034FF4C842C4F20002A3
:10114000D2F80412FA686FEA02020A40C3F80422D5
:101150000DE04FF4C843C4F200034FF4C842C4F298
:101160000002D2F80412FA680A43C3F804227B682A
:101170001B89002B0FD14FF4C843C4F200034FF476
:10118000C842C4F20002D2F81412FA686FEA0202EE
:101190000A40C3F814227B681B89012B0DD14FF440
:1011A000C843C4F200034FF4C842C4F20002D2F8AC
:1011B0001412FA680A43C3F814227B685B7B012B84
:1011C0000DD14FF4C843C4F200034FF4C842C4F237
:1011D0000002D2F81C12FA680A43C3F81C224FF42A
:1011E000C843C4F200034FF4C842C4F20002D2F86C
:1011F000002222F00102C3F8002207F11407BD46C5
:1012000080BC704780B485B000AF786039604FF023
:101210000003FB737B689B6803F08063002B03D0A3
:101220004FF00003FB7316E07B689B6803F00063DC
:10123000002B03D04FF00103FB730CE07B689B682D
:1012400003F08053002B03D04FF00203FB7302E046
:101250004FF00403FB73FB7B042B00F0BA80FB7B95
:10126000FA7B796802F118024FEA02128A181268B2
:1012700002F00102796803F118034FEA0313CB1857
:101280001A603B681B7A002B18D1FB7BFA7B7968CC
:1012900002F118024FEA02128A1811683A681268BD
:1012A0004FEA42503A68527A02430A43796803F19E
:1012B00018034FEA0313CB181A601AE0FB7BFA7B82
:1012C000796802F118024FEA02128A1811683A6826
:1012D00052684FEAC2003A68127A10433A68527A6A
:1012E00002430A43796803F118034FEA0313CB184A
:1012F0001A603B689B7A03F00F03DAB23B689A727C
:10130000FB7BFA7B796802F118024FEA02128A1815
:10131000526822F00F02796803F118034FEA0313B1
:10132000CB185A60FB7BFA7B796802F118024FEA0E
:1013300002128A1851683A68927A0A43796803F16E
:1013400018034FEA0313CB185A60FB7B3A68927B71
:101350004FEA02613A68527B4FEA024211433A680F
:10136000127B4FEA022211433A68D27A0A43796823
:101370004FEA0313CB1803F5C4731A60FB7B3A687A
:10138000927C4FEA02613A68527C4FEA0242114372
:101390003A68127C4FEA022211433A68D27B0A4330
:1013A00079684FEA0313CB1803F5C4735A60FB7BCB
:1013B000FA7B796802F118024FEA02128A18126861
:1013C00042F00102796803F118034FEA0313CB18C6
:1013D0001A60FB7B184607F11407BD4680BC7047B6
:1013E00080B485B000AFF8600B467A60FB72FB7A80
:1013F000FA6803F11B034FEA0313D3181B68DBB22F
:1014000003F00403DAB27B681A727B681B7A002B44
:101410000CD1FB7AFA6803F11B034FEA0313D318CC
:101420001B684FEA53527B681A600BE0FB7AFA683C
:1014300003F11B034FEA0313D3181B684FEAD302CF
:101440007B685A60FB7AFA6803F11B034FEA0313C7
:10145000D3181B68DBB203F00203DAB27B685A725E
:10146000FB7AFA6803F11B034FEA0313D3185B6896
:10147000DBB203F00F03DAB27B689A72FB7AFA6888
:1014800003F11B034FEA0313D3185B684FEA1323DE
:10149000DAB27B68DA74FB7AFA684FEA0313D3187E
:1014A00003F5DC731B68DAB27B68DA72FB7AFA68E0
:1014B0004FEA0313D31803F5DC731B684FEA1323B9
:1014C000DAB27B681A73FB7AFA684FEA0313D3180F
:1014D00003F5DC731B684FEA1343DAB27B685A7377
:1014E000FB7AFA684FEA0313D31803F5DC731B6821
:1014F0004FEA1363DAB27B689A73FB7AFA684FEAB1
:101500000313D31803F5DC735B68DAB27B68DA7314
:10151000FB7AFA684FEA0313D31803F5DC735B68B0
:101520004FEA1323DAB27B681A74FB7AFA684FEA3F
:101530000313D31803F5DC735B684FEA1343DAB285
:101540007B685A74FB7AFA684FEA0313D31803F5E1
:10155000DC735B684FEA1363DAB27B689A74FB7AD8
:10156000002B06D1FB68DB6843F02002FB68DA60E1
:1015700005E0FB681B6943F02002FB681A6107F174
:101580001407BD4680BC704780B485B000AF78605A
:101590004FF00003FB737B689B69DBB203F07003C1
:1015A000FB73FB7B184607F11407BD4680BC7047F0
:1015B00080B485B000AFF860B9601346FB71FB7969
:1015C000002B06D0FB685A69BB681A43FB685A6156
:1015D00007E0FB685A69BB686FEA03031A40FB68BF
:1015E0005A6107F11407BD4680BC704780B485B0CE
:1015F00000AF786039604FF00003FB733B6803F481
:101600007003002B11D07B689A693B68134023F06C
:101610007F4323F47003002B03D04FF00103FB73CF
:1016200059E04FF00003FB7355E03B6803F0807313
:10163000002B11D07B685A683B68134023F07F432E
:1016400023F47003002B03D04FF00103FB7342E03F
:101650004FF00003FB733EE03B6803F00063002B98
:1016600011D07B689A683B68134023F07F4323F4D2
:101670007003002B03D04FF00103FB732BE04FF0FE
:101680000003FB7327E03B6803F00073002B11D0CD
:101690007B68DA683B68134023F07F4323F47003D0
:1016A000002B03D04FF00103FB7314E04FF0000355
:1016B000FB7310E07B681A693B68134023F07F439B
:1016C00023F47003002B03D04FF00103FB7302E0FF
:1016D0004FF00003FB73FB7B184607F11407BD4670
:1016E00080BC704780B485B000AF786039604FF03F
:1016F0000003FB603A684FF07003C3F2F0039A42B4
:1017000004D17B684FF000029A6123E03B6823F02C
:101710007F4323F47003FB603B6803F00073002BEE
:1017200003D07B68FA68DA6014E03B6803F08063FA
:10173000002B03D07B68FA681A610BE03B6803F06A
:101740000063002B03D07B68FA689A6002E07B6834
:10175000FA685A6007F11407BD4680BC704700BFA5
:1017600080B582B000AF41F63473C0F600037B60F1
:1017700040F20003C2F200033B600BE07B681A6892
:101780003B681A603B6803F104033B607B6803F12C
:1017900004037B603A6840F20403C2F200039A42F9
:1017A000ECD3084808494FF000028842B8BF40F81F
:1017B000042BFFF6FAAF00F00DF807F10807BD465D
:1017C00080BD000004000020B001002080B400AF04
:1017D000FEE700BF80B500AF00F02CFAFEF7D0FEA8
:1017E0004FF00100FEF748FFFFF7A2F94FF00100AC
:1017F000FEF738FD4FF00200FEF734FD4FF0040015
:10180000FEF730FD4FF00100FEF784FD4FF00200BF
:10181000FEF780FD4FF00400FEF77CFD4FF0010065
:10182000FEF720FD4FF00200FEF71CFD4FF0040014
:10183000FEF718FD4FF00100FEF7C4FC4FF0020068
:10184000FEF7C0FC4FF00400FEF7BCFC4FF00100B7
:10185000FEF79AFC4FF00200FEF796FC4FF00400F2
:10186000FEF792FC4FF001004FF0FD01FEF7C8FCBF
:101870004FF002004FF0FD01FEF7C2FC4FF00400F4
:101880004FF0FD01FEF7BCFC40F20003C2F2000382
:101890004FF000021A604FF00000FEF723FF49F2FC
:1018A0008060C0F2980000F027F84FF00400FEF7C7
:1018B0003BFE4FF47A7000F01FF84FF00100FEF786
:1018C00007FE4FF47A7000F017F84FF00200FEF7B1
:1018D0002BFE4FF001004FF06401FEF7C7FD4FF003
:1018E00002004FF06401FEF7C1FD4FF004004FF01D
:1018F0006401FEF7BBFDC7E780B483B000AF78603A
:1019000000BF7B68002B0CBF00220122D2B203F182
:10191000FF337B60002AF4D107F10C07BD4680BC81
:10192000704700BF80B483B000AF78600B46FB7097
:10193000FB78002B0CD04FF46053C4F202034FF439
:101940006052C4F20202116B7A680A431A630DE016
:101950004FF46053C4F202034FF46052C4F2020227
:10196000116B7A686FEA02020A401A6307F10C07EA
:10197000BD4680BC704700BF80B483B000AF7860C4
:101980000B46FB70FB78002B0CD04FF46053C4F275
:1019900002034FF46052C4F20202116C7A680A43E7
:1019A0001A640DE04FF46053C4F202034FF4605226
:1019B000C4F20202116C7A686FEA02020A401A64E9
:1019C00007F10C07BD4680BC704700BF80B487B0EC
:1019D00000AF786039604FF000037B614FF0000387
:1019E0003B614FF00003FB604FF000037B6186E03A
:1019F0007B694FF0010202FA03F33B613B681A680E
:101A00003B691340FB60FA683B699A4273D17B687B
:101A10001A687B694FEA43034FF0030101FA03F3AD
:101A20006FEA03031A407B681A607B681A683B6898
:101A30001B7919467B694FEA430301FA03F31A4302
:101A40007B681A603B681B79012B03D03B681B79CC
:101A5000022B34D17B689A687B694FEA43034FF0CD
:101A6000030101FA03F36FEA03031A407B689A60EB
:101A70007B689A683B685B7919467B694FEA430348
:101A800001FA03F31A437B689A607B685A687B69A2
:101A90009BB24FF0010101FA03F36FEA03031A400E
:101AA0007B685A607B685A683B689B7919467B69FA
:101AB0009BB201FA03F39BB21A437B685A607B68BE
:101AC000DA687B699BB24FEA43034FF0030101FAE6
:101AD00003F36FEA03031A407B68DA607B68DA6815
:101AE0003B68DB7919467B694FEA430301FA03F34C
:101AF0001A437B68DA607B6903F101037B617B69D0
:101B00000F2B7FF675AF07F11C07BD4680BC7047F1
:101B100080B483B000AF78607B684FF6FF721A60C4
:101B20007B684FF000021A717B684FF000025A7117
:101B30007B684FF000029A717B684FF00002DA7107
:101B400007F10C07BD4680BC704700BF80B483B06E
:101B500000AF78600B467B807B687A885A8307F1F8
:101B60000C07BD4680BC704780B483B000AF78607E
:101B70000B467B807B685A697B885A407B685A6138
:101B800007F10C07BD4680BC704700BF80B485B02C
:101B900000AF786013460A467A807B704FF00003EE
:101BA000FB604FF00003BB607A787B8803F007038B
:101BB0004FEA830302FA03F3FB607B884FEAD30307
:101BC0009BB21A467B884FEAD3039BB219467B68C7
:101BD00001F1080153F821107B8803F007034FEA55
:101BE00083034FF00F0000FA03F36FEA0303194079
:101BF0007B6802F1080243F822107B884FEAD30386
:101C00009BB21A467B6802F1080253F82220FB6857
:101C10001343BB607B884FEAD3039BB21A467B68B1
:101C200002F10802B96843F8221007F11407BD4613
:101C300080BC704780B500AF4FF46053C4F202031C
:101C40004FF46052C4F20202126842F001021A60BC
:101C50004FF46053C4F202034FF000029A604FF455
:101C60006053C4F202034FF46052C4F202021268DD
:101C700022F0847222F480321A604FF46053C4F26E
:101C8000020343F21002C2F200425A604FF4605362
:101C9000C4F202034FF46052C4F20202126822F44A
:101CA00080221A604FF46053C4F202034FF0000226
:101CB000DA6000F009F84FF46D43CEF200034FF004
:101CC00000629A6080BD00BF80B483B000AF4FF067
:101CD00000037B604FF000033B604FF46053C4F29D
:101CE00002034FF46052C4F20202126842F48032DE
:101CF0001A604FF46053C4F202031B6803F400330C
:101D00003B607B6803F101037B603B68002B03D1E0
:101D10007B68B3F5A06FECD14FF46053C4F20203BB
:101D20001B6803F40033002B03D04FF001033B602A
:101D300002E04FF000033B603B68012B40F08280E3
:101D40004FF46053C4F202034FF46052C4F2020233
:101D5000126C42F080521A644FF4E043C4F2000364
:101D60004FF4E042C4F20002126842F480421A606A
:101D70004FF46053C4F202034FF46052C4F2020203
:101D800092689A604FF46053C4F202034FF46052B9
:101D9000C4F20202926842F400429A604FF4605327
:101DA000C4F202034FF46052C4F20202926842F499
:101DB000A0529A604FF46053C4F2020345F21942F4
:101DC000C0F240725A604FF46053C4F202034FF401
:101DD0006052C4F20202126842F080721A6000BFC0
:101DE0004FF46053C4F202031B6803F00073002B2E
:101DF000F6D04FF47053C4F2020340F205621A6049
:101E00004FF46053C4F202034FF46052C4F2020272
:101E1000926822F003029A604FF46053C4F2020306
:101E20004FF46052C4F20202926842F002029A60D9
:101E300000BF4FF46053C4F202039B6803F00C032D
:101E4000082BF6D107F10C07BD4680BC704700BFD8
:101E500080B485B000AF78604FF00003FB734FF0A3
:101E60000003BB734FF00F037B737B68DB78002BA1
:101E700045D04FF46D43CEF20003DB686FEA0303F5
:101E800003F4E0634FEA1323FB73FB7BC3F104030A
:101E9000BB737A7BFB7B42FA03F37B737B685B78D3
:101EA0001A46BB7B02FA03F3FB737B689A787B7B51
:101EB0001340DAB2FB7B1343FB73FB7B4FEA031344
:101EC000FB734FF46143CEF200037A6812789B18DB
:101ED000FA7B83F800234FF46143CEF200037A6863
:101EE00012784FEA5212D2B27968097801F01F01D4
:101EF0004FF0010000FA01F143F8221014E04FF412
:101F00006143CEF200037A6812784FEA5212D2B2DD
:101F10007968097801F01F014FF0010000FA01F122
:101F200002F1200243F8221007F11407BD4680BCDD
:041F3000704700BF37
:041F340001000000A8
:0400000508000000EF
:00000001FF
