:020000040800F2
:10000000B40B002061060008CD060008CD060008EC
:10001000CD060008CD060008CD060008000000004F
:10002000000000000000000000000000CD060008F5
:10003000CD06000800000000CD060008CD0600082F
:10004000CD060008CD060008CD060008CD06000844
:10005000CD060008CD060008CD060008CD06000834
:10006000CD060008CD060008CD060008CD06000824
:10007000390D0008CD060008D90C0008CD0600088F
:10008000CD060008CD060008CD060008CD06000804
:10009000CD060008CD060008CD060008CD060008F4
:1000A000CD060008CD060008CD060008CD060008E4
:1000B000CD060008CD060008CD060008CD060008D4
:1000C000CD060008CD060008CD060008CD060008C4
:1000D000CD060008CD060008CD060008ED04000896
:1000E000CD060008CD060008CD060008CD060008A4
:1000F000CD060008CD060008CD060008CD06000894
:10010000CD060008CD060008CD060008CD06000883
:10011000CD060008CD060008CD060008CD06000873
:10012000CD060008CD060008CD060008CD06000863
:10013000CD060008CD060008CD060008CD06000853
:10014000CD060008CD060008CD060008CD06000843
:10015000CD060008CD060008CD060008CD06000833
:10016000CD060008CD060008CD060008CD06000823
:10017000CD060008CD060008CD060008CD06000813
:10018000CD060008CD06000880B58AB000AF7860C3
:1001900039604FF000037B624FF000033B624FF089
:1001A0000003FB614FF00003BB617B681B8A9BB2BD
:1001B0007B627B6A23F440537B623B68DB887A6A0C
:1001C00013437B627B6A9AB27B681A827B689B8945
:1001D0009BB27B627B6A23F4B05323F00C037B62F7
:1001E0003B689A883B681B8913439AB23B685B89DA
:1001F00013439BB27A6A13437B627B6A9AB27B6831
:100200009A817B689B8A9BB27B627B6A23F44073F2
:100210007B623B689B897A6A13437B627B6A9AB2F2
:100220007B689A8207F10803184601F045F87A685E
:100230004FF48053C4F201039A4206D07A684FF417
:10024000A053C4F201039A4202D17B693B6201E0F0
:100250003B693B627B689B899BB29BB21BB2002BC4
:100260000FDA3A6A13464FEA83039B184FEA830278
:100270009A183B681B684FEA4303B2FBF3F3FB6138
:100280000EE03A6A13464FEA83039B184FEA830253
:100290009A183B681B684FEA8303B2FBF3F3FB61D8
:1002A000FA6948F21F53C5F2EB13A3FB02134FEA9E
:1002B00053134FEA03137B627B6A4FEA13134FF029
:1002C000640202FB03F3FA69D31ABB617B689B8962
:1002D0009BB29BB21BB2002B12DABB694FEAC3037D
:1002E00003F1320248F21F53C5F2EB13A3FB0213D2
:1002F0004FEA531303F007037A6A13437B6211E05A
:10030000BB694FEA031303F1320248F21F53C5F2EF
:10031000EB13A3FB02134FEA531303F00F037A6AA4
:1003200013437B627B6A9AB27B681A8107F12807C4
:10033000BD4680BD80B483B000AF78600B46FB70D3
:10034000FB78002B08D07B689B899BB243F4005359
:100350009AB27B689A8107E07B689B899BB223F401
:1003600000539AB27B689A8107F10C07BD4680BCA6
:10037000704700BF80B483B000AF78607B689B8813
:100380009BB24FEAC3534FEAD3539BB2184607F1CF
:100390000C07BD4680BC704780B483B000AF786066
:1003A00013460A467A807B707B78002B08D07B68E6
:1003B0009B8A9AB27B8813439AB27B689A820AE03E
:1003C0007B689B8A9AB27B886FEA03039BB21340D7
:1003D0009AB27B689A8207F10C07BD4680BC7047D1
:1003E00080B487B000AF786013460A467A807B708D
:1003F0004FF000033B614FF00003FB604FF0000340
:10040000BB604FF000037B617B687B617B88DBB264
:100410004FEA5313DBB23B617B8803F01F03FB60A1
:10042000FB684FF0010202FA03F3BB603B69012B4A
:1004300004D17B6903F10C037B610BE03B69022B68
:1004400004D17B6903F110037B6103E07B6903F155
:1004500014037B617B78002B06D07B697A69116875
:10046000BA680A431A6007E07B697A691168BA685A
:100470006FEA02020A401A6007F11C07BD4680BC01
:10048000704700BF80B483B000AF78600B467B80BC
:100490007B886FEA03039AB27B681A8007F10C0726
:1004A000BD4680BC704700BF80B485B000AF7860A7
:1004B0000B467B804FF00003FB814FF00003BB81B4
:1004C0007B884FEA1323FB81FB894FF0010202FA7C
:1004D00003F3BB81BB896FEA03039AB27B681A807E
:1004E00007F11407BD4680BC704700BF90B583B0CC
:1004F00000AF40F21403C2F200031C684FF49040B6
:10050000C4F20000FFF736FF0346DAB240F21803E8
:10051000C2F200031A5540F21803C2F200031B781E
:10052000FF2B40F08F8040F21403C2F200031B68DF
:1005300003F1010240F21403C2F200031A6040F218
:100540001803C2F200035B78022B7BD140F2140344
:10055000C2F200031B68782B74D14FF49040C4F2B0
:10056000000040F225514FF00002FFF739FF46F23C
:100570002800C4F202004FF0780101F07DFA46F243
:100580002800C4F202004FF0010101F059FA00BF47
:1005900046F22800C4F2020001F07CFA0346012B67
:1005A000F6D14FF49040C4F200004FF040014FF0FC
:1005B0000102FFF7F1FE40F21803C2F20003DB78FC
:1005C0004FEA03239AB240F21803C2F200031B79E8
:1005D00013439BB2FB80FB8803F1050240F2180332
:1005E000C2F200039B5C4FEA03239AB2FB8803F13B
:1005F000060140F21803C2F200035B5C13439BB296
:10060000BB80FB8803F103039BB21448194600F03A
:1006100017FB0346BA889A420BD140F21803C2F284
:1006200000039B78902B0CD04FF0020000F07CFD73
:1006300008E040F21403C2F200034FF000021A6017
:1006400000E000BF4FF49040C4F200004FF02001E2
:10065000FFF718FF07F10C07BD4690BD1A000020F8
:1006600080B582B000AF41F6E443C0F600037B6082
:1006700040F20003C2F200033B600BE07B681A68A3
:100680003B681A603B6803F104033B607B6803F13D
:1006900004037B603A6840F21403C2F200039A42FA
:1006A000ECD3084808494FF000028842B8BF40F830
:1006B000042BFFF6FAAF00F00DF807F10807BD466E
:1006C00080BD000014000020B403002080B400AFFF
:1006D000FEE700BF80B582B000AF01F04BF800F03C
:1006E000A7FC4FF0010000F055FD00F0D5FD0346DA
:1006F000FB71FB79082B03D14FF0000000F014FDD3
:100700004FF28000C0F2FA2000F0B0FD00F008F8CF
:1007100000F06EFA4FF0030000F006FDFEE700BFA8
:1007200080B586B000AF4FF008004FF0010100F037
:10073000A9FE4FF480204FF0010100F0CDFE4FF4F0
:1007400000104FF0010100F09DFE4FF44060C4F234
:1007500002004FF008014FF0070200F0B7FF4FF41E
:100760004060C4F202004FF009014FF0070200F0B0
:10077000ADFF4FF002033B714FF002037B714FF06E
:100780000003FB714FF480733B603B464FF44060C5
:10079000C4F20200194600F0C9FE4FF400733B603A
:1007A0003B464FF44060C4F20200194600F0BEFE22
:1007B0004FF4E123BB604FF00003BB814FF0000317
:1007C000FB814FF000033B824FF00003BB824FF0F0
:1007D0000C037B8207F108034FF49040C4F2000041
:1007E0001946FFF7D1FC40F27833C2F200034FF014
:1007F0000002DA6240F27833C2F200034FF00002E6
:100800001A6340F27833C2F200034FF000025A63D9
:1008100040F27833C2F200034FF000021A6240F255
:100820007833C2F200034FF480629A6140F2783369
:10083000C2F2000344F60402C4F200025A6040F21D
:100840007833C2F200034FF000029A6340F278332B
:10085000C2F200034FF00002DA6140F27833C2F2D4
:1008600000034FF000025A6140F27833C2F20003F5
:100870004FF400329A6240F27833C2F200034FF034
:1008800000025A6240F27833C2F200034FF00B02CA
:100890001A6140F27833C2F200034FF000621A602E
:1008A00040F27833C2F200034FF04002DA6040F2C7
:1008B0005022C2F2000240F27833C2F200039A6082
:1008C00046F25800C4F2020040F27831C2F2000150
:1008D00001F05EF840F27833C2F200034FF4807208
:1008E0005A6240F27833C2F200034FF001021A61FB
:1008F00040F27833C2F200034FF000621A6040F217
:100900007833C2F200034FF00002DA6040F2802236
:10091000C2F2000240F27833C2F200039A6046F25B
:100920002800C4F2020040F27831C2F2000101F066
:100930002FF840F27433C2F200034FF027021A700E
:1009400040F27433C2F200034FF00102DA7040F259
:100950007433C2F200034FF00D025A7040F274304B
:10096000C2F2000001F04CF94FF49040C4F20000D4
:1009700040F22661FFF798FD4FF49040C4F200006A
:1009800040F22551FFF790FD4FF49040C4F2000073
:100990004FF00101FFF7CEFC4FF49040C4F200008D
:1009A00040F225514FF00002FFF71AFD40F2743378
:1009B000C2F200034FF00C021A7040F27433C2F21C
:1009C00000034FF00102DA7040F27433C2F2000308
:1009D0004FF000025A7040F27433C2F200034FF03D
:1009E00000029A7040F27430C2F2000001F008F97F
:1009F00046F22800C4F202004FF40841C1F200019F
:100A000001F0CEF846F22800C4F202004FF01001C7
:100A10004FF0010201F08AF840F27433C2F2000391
:100A20004FF00E021A7040F27433C2F200034FF01E
:100A30000102DA7040F27433C2F200034FF0000298
:100A40005A7040F27433C2F200034FF000029A7001
:100A500040F27430C2F2000001F0D2F846F25800C1
:100A6000C4F202004FF40041C1F6000101F098F811
:100A700046F25800C4F202004FF010014FF001029C
:100A800001F054F807F11807BD4680BD80B584B069
:100A900000AF03463960FB8040F20003C2F200035E
:100AA0001A783B681A703B6803F101033B6040F21F
:100AB0000103C2F200031A783B681A703B6803F125
:100AC00001033B603B6803F101033B60FB884FEA95
:100AD00013239BB2DAB23B681A703B6803F101033F
:100AE0003B60FB88DAB23B681A703B6803F1FF3366
:100AF0003B603B6803F1FF333B60FB8803F103037A
:100B00009BB23868194600F09BF80346FB81FB88CE
:100B100003F103033A68D3183B60FB894FEA1323C0
:100B20009BB2DAB23B681A703B6803F101033B6089
:100B3000FB89DAB23B681A703B6803F101033B6042
:100B40003B684FF003021A7046F22800C4F202001C
:100B50004FF0010100F090FF46F22800C4F20200BD
:100B60004FF0010100F06CFF00BF46F22800C4F214
:100B7000020000F08FFF0346012BF6D14FF49040A6
:100B8000C4F200004FF040014FF00102FFF704FCF7
:100B9000FB8803F108039BB246F25800C4F202003E
:100BA000194600F069FF46F25800C4F202004FF007
:100BB000010100F045FF03E04FF0000000F020FBD2
:100BC00046F25800C4F2020000F064FF0346012B15
:100BD000F2D14FF49040C4F200004FF080014FF08A
:100BE0000102FFF7D9FB07F11007BD4680BD00BF2A
:100BF00080B500AF40F25023C2F200034FF0530221
:100C00009A7040F25023C2F200034FF000025A7172
:100C100040F25023C2F200034FF001029A7140F2F9
:100C20005023C2F200034FF00102DA714FF00300CB
:100C300040F25021C2F20001FFF728FF80BD00BF43
:100C400080B487B000AF78600B467B8048F20843E1
:100C50003B824FF00003FB824FF00003FB734FF029
:100C600000037B754FF000037B824FF000037B8213
:100C700026E07B8A7A68D3181B781A46FB8A534091
:100C8000FB824FF000037B7513E0FB8ADBB203F0BD
:100C90000103FB73FB8A4FEA5303FB82FB7B002BB0
:100CA00003D0FA8A3B8A5340FB827B7D03F1010328
:100CB0007B757B7D072BE8D97B8A03F101037B825F
:100CC0007A8A7B889A42D4D3FB8A184607F11C079C
:100CD000BD4680BC704700BF80B500AF4FF001003B
:100CE00000F022FA4FF49040C4F200004FF080016F
:100CF0004FF00002FFF750FB46F25800C4F202002A
:100D00004FF0000100F09CFE03E04FF0000000F007
:100D100077FA46F25800C4F2020000F0BBFE034628
:100D2000002BF2D146F25800C4F202004FF0C0513D
:100D300000F0CCFE80BD00BF80B58EB000AF40F2A9
:100D4000FC23C2F200037B63AD4B3B63AD4BFB6204
:100D5000AD4BBB62AD4B7B62AD4B3B62AD4BFB61C0
:100D6000AD4BBB61AD4B7B61AD4B3B61AD4BFB60B4
:100D7000AD4BBB60AD4B7B6046F22800C4F2020075
:100D80004FF0000100F05CFE00BF46F22800C4F204
:100D9000020000F07FFE0346002BF6D140F2F8235C
:100DA000C2F200031B68032B00F2118101A252F86A
:100DB00023F000BFC50D0008170E0008AF0E000895
:100DC000F30E000840F28023C2F200031B78FF2BD1
:100DD00006D140F2F823C2F200034FF001021A607C
:100DE00046F22800C4F202004FF0010100F044FE78
:100DF00046F22800C4F202004FF0010100F020FE8C
:100E000000BF46F22800C4F2020000F043FE034691
:100E1000012BF6D1DBE040F28023C2F200031B7805
:100E2000022B21D140F2F823C2F200034FF002025C
:100E30001A6046F22800C4F202004FF03A0100F0B6
:100E40001BFE46F22800C4F202004FF0010100F040
:100E5000F7FD00BF46F22800C4F2020000F01AFEBF
:100E60000346012BF6D121E040F2F823C2F2000341
:100E70004FF000021A6046F22800C4F202004FF060
:100E8000010100F0F9FD46F22800C4F202004FF023
:100E9000010100F0D5FD00BF46F22800C4F20200B7
:100EA00000F0F8FD0346012BF6D190E08FE046F20A
:100EB0002800C4F202004FF03C0100F0DDFD46F2D4
:100EC0002800C4F202004FF0010100F0B9FD00BF9C
:100ED00046F22800C4F2020000F0DCFD0346012BBC
:100EE000F6D140F2F823C2F200034FF003021A6079
:100EF0006DE040F28023C2F200031B78FF2B29D162
:100F000040F28023C2F200035B78022B22D146F22A
:100F10002800C4F202004FF03C0100F0ADFD46F2A3
:100F20002800C4F202004FF0010100F089FD00BF6B
:100F300046F22800C4F2020000F0ACFD0346012B8B
:100F4000F6D14FF0000000F025F94FF0010000F05D
:100F5000EBF83BE04FF0010000F01CF940F2F82301
:100F6000C2F200034FF000021A6046F22800C4F2F9
:100F700002004FF0010100F07FFD46F22800C4F2AC
:100F800002004FF0010100F05BFD00BF46F22800B7
:100F9000C4F2020000F07EFD0346012BF6D140F2C0
:100FA0004823C2F200031B6803F1010240F2482308
:100FB000C2F200031A6040F24823C2F200031B6829
:100FC000012B03D94FF0020000F0AEF800BF46F24B
:100FD0002800C4F202004FF40061C1F2000100F0E9
:100FE00075FD4FF49040C4F200004FF040014FF007
:100FF0000102FFF7D1F907F13807BD4680BD00BFF8
:101000000003002004030020080300200C0300203C
:101010001003002014030020180300201C030020EC
:1010200020030020680300206C03002070030020D0
:1010300080B584B000AF4FF020004FF0010100F008
:1010400021FA07F10403FB60FB684FF080021A608D
:10105000FB684FF001021A71FB684FF00102DA7170
:10106000FB684FF000029A71FB684FF002025A7160
:101070004FF4A050C4F20200F96800F057FAFB6880
:101080004FF480721A60FB684FF001021A71FB681E
:101090004FF00102DA71FB684FF000029A71FB68B1
:1010A0004FF002025A714FF4A050C4F20200F968E6
:1010B00000F03CFAFB684FF400721A60FB684FF0D6
:1010C00001021A71FB684FF00102DA71FB684FF000
:1010D00000029A71FB684FF002025A714FF4A0505F
:1010E000C4F20200F96800F021FAFB684FF04002F8
:1010F0001A60FB684FF001021A71FB684FF00102A1
:10110000DA71FB684FF000029A71FB684FF002023F
:101110005A714FF4A050C4F20200F96800F006FAC8
:1011200007F11007BD4680BD80B582B000AF034611
:10113000FB71FB79012B07D14FF4A050C4F20200E0
:101140004FF4807100F094FAFB79022B07D14FF431
:10115000A050C4F202004FF0800100F089FAFB7940
:10116000002B07D14FF4A050C4F202004FF0400111
:1011700000F07EFAFB79032B07D14FF4A050C4F2A4
:1011800002004FF4007100F073FA07F10807BD4642
:1011900080BD00BF80B582B000AF0346FB71FB7914
:1011A000012B07D14FF4A050C4F202004FF480711C
:1011B00000F06CFAFB79022B07D14FF4A050C4F277
:1011C00002004FF0800100F061FAFB79002B07D19B
:1011D0004FF4A050C4F202004FF0400100F056FA64
:1011E000FB79032B07D14FF4A050C4F202004FF457
:1011F000007100F04BFA07F10807BD4680BD00BF43
:1012000080B582B000AF0346FB71FB79012B07D19B
:101210004FF4A050C4F202004FF4807100F044FA81
:10122000FB79022B07D14FF4A050C4F202004FF01B
:10123000800100F039FAFB79002B07D14FF4A05060
:10124000C4F202004FF0400100F02EFAFB79032BAC
:1012500007D14FF4A050C4F202004FF4007100F027
:1012600023FA07F10807BD4680BD00BF80B483B0F4
:1012700000AF786000BF7B68002B0CBF002201220A
:10128000D2B203F1FF337B60002AF4D107F10C07DF
:10129000BD4680BC704700BF80B400AF4FF46053C0
:1012A000C4F202039B68DBB203F00C03DBB2184606
:1012B000BD4680BC704700BF80B489B000AF786085
:1012C0004FF00003BB614FF000037B614FF0000360
:1012D000FB614FF002033B614FF00003FB604FF0F6
:1012E0000203BB604FF46053C4F202039B6803F037
:1012F0000C03BB61BB69042B0AD0082B0FD0002B59
:1013000060D17A684FF41053C0F2F403136060E0C8
:101310007A6847F64003C0F27D13136059E04FF43A
:101320006053C4F202035B6803F480034FEA9353F3
:10133000FB604FF46053C4F202035B6803F03F03A9
:10134000BB60FB68002B14D047F64003C0F27D134E
:10135000BA68B3FBF2F24FF46053C4F20203596867
:1013600047F6C0730B404FEA931303FB02F3FB6194
:1013700013E04FF41053C0F2F403BA68B3FBF2F277
:101380004FF46053C4F20203596847F6C0730B4030
:101390004FEA931303FB02F3FB614FF46053C4F273
:1013A00002035B6803F440334FEA134303F1010384
:1013B0004FEA43033B61FA693B69B2FBF3F27B6896
:1013C0001A6006E07A684FF41053C0F2F403136019
:1013D00000BF4FF46053C4F202039B6803F0F003B4
:1013E000BB61BB694FEA1313BB6140F20403C2F255
:1013F0000003BA699B181B78DBB27B617B681A68B3
:101400007B6922FA03F27B685A604FF46053C4F29E
:1014100002039B6803F4E053BB61BB694FEA93236B
:10142000BB6140F20403C2F20003BA699B181B7847
:10143000DBB27B617B685A687B6922FA03F27B68C6
:101440009A604FF46053C4F202039B6803F4604354
:10145000BB61BB694FEA5333BB6140F20403C2F284
:101460000003BA699B181B78DBB27B617B685A6802
:101470007B6922FA03F27B68DA6007F12407BD4634
:1014800080BC704780B483B000AF78600B46FB70BF
:10149000FB78002B0CD04FF46053C4F202034FF4DE
:1014A0006052C4F20202116B7A680A431A630DE0BB
:1014B0004FF46053C4F202034FF46052C4F20202CC
:1014C000116B7A686FEA02020A401A6307F10C078F
:1014D000BD4680BC704700BF80B483B000AF786069
:1014E0000B46FB70FB78002B0CD04FF46053C4F21A
:1014F00002034FF46052C4F20202116C7A680A438C
:101500001A640DE04FF46053C4F202034FF46052CA
:10151000C4F20202116C7A686FEA02020A401A648D
:1015200007F10C07BD4680BC704700BF80B487B090
:1015300000AF786039604FF000037B614FF000032B
:101540003B614FF00003FB604FF000037B6186E0DE
:101550007B694FF0010202FA03F33B613B681A68B2
:101560003B691340FB60FA683B699A4273D17B6820
:101570001A687B694FEA43034FF0030101FA03F352
:101580006FEA03031A407B681A607B681A683B683D
:101590001B7919467B694FEA430301FA03F31A43A7
:1015A0007B681A603B681B79012B03D03B681B7971
:1015B000022B34D17B689A687B694FEA43034FF072
:1015C000030101FA03F36FEA03031A407B689A6090
:1015D0007B689A683B685B7919467B694FEA4303ED
:1015E00001FA03F31A437B689A607B685A687B6947
:1015F0009BB24FF0010101FA03F36FEA03031A40B3
:101600007B685A607B685A683B689B7919467B699E
:101610009BB201FA03F39BB21A437B685A607B6862
:10162000DA687B699BB24FEA43034FF0030101FA8A
:1016300003F36FEA03031A407B68DA607B68DA68B9
:101640003B68DB7919467B694FEA430301FA03F3F0
:101650001A437B68DA607B6903F101037B617B6974
:101660000F2B7FF675AF07F11C07BD4680BC704796
:1016700080B483B000AF78600B467B807B687A884B
:101680001A8307F10C07BD4680BC704780B483B055
:1016900000AF78600B467B807B687A885A8307F1BD
:1016A0000C07BD4680BC704780B483B000AF786043
:1016B0000B467B807B685A697B885A407B685A61FD
:1016C00007F10C07BD4680BC704700BF80B485B0F1
:1016D00000AF786013460A467A807B704FF00003B3
:1016E000FB604FF00003BB607A787B8803F0070350
:1016F0004FEA830302FA03F3FB607B884FEAD303CC
:101700009BB21A467B884FEAD3039BB219467B688B
:1017100001F1080153F821107B8803F007034FEA19
:1017200083034FF00F0000FA03F36FEA030319403D
:101730007B6802F1080243F822107B884FEAD3034A
:101740009BB21A467B6802F1080253F82220FB681C
:101750001343BB607B884FEAD3039BB21A467B6876
:1017600002F10802B96843F8221007F11407BD46D8
:1017700080BC704780B500AF4FF46053C4F20203E1
:101780004FF46052C4F20202126842F001021A6081
:101790004FF46053C4F202034FF000029A604FF41A
:1017A0006053C4F202034FF46052C4F202021268A2
:1017B00022F0847222F480321A604FF46053C4F233
:1017C000020343F21002C2F200425A604FF4605327
:1017D000C4F202034FF46052C4F20202126822F40F
:1017E00080221A604FF46053C4F202034FF00002EB
:1017F000DA6000F009F84FF46D43CEF200034FF0C9
:1018000000629A6080BD00BF80B483B000AF4FF02B
:1018100000037B604FF000033B604FF46053C4F261
:1018200002034FF46052C4F20202126842F48032A2
:101830001A604FF46053C4F202031B6803F40033D0
:101840003B607B6803F101037B603B68002B03D1A5
:101850007B68B3F5A06FECD14FF46053C4F2020380
:101860001B6803F40033002B03D04FF001033B60EF
:1018700002E04FF000033B603B68012B40F08280A8
:101880004FF46053C4F202034FF46052C4F20202F8
:10189000126C42F080521A644FF4E043C4F2000329
:1018A0004FF4E042C4F20002126842F480421A602F
:1018B0004FF46053C4F202034FF46052C4F20202C8
:1018C00092689A604FF46053C4F202034FF460527E
:1018D000C4F20202926842F400429A604FF46053EC
:1018E000C4F202034FF46052C4F20202926842F45E
:1018F000A0529A604FF46053C4F2020345F21942B9
:10190000C0F240725A604FF46053C4F202034FF4C5
:101910006052C4F20202126842F080721A6000BF84
:101920004FF46053C4F202031B6803F00073002BF2
:10193000F6D04FF47053C4F2020340F205621A600D
:101940004FF46053C4F202034FF46052C4F2020237
:10195000926822F003029A604FF46053C4F20203CB
:101960004FF46052C4F20202926842F002029A609E
:1019700000BF4FF46053C4F202039B6803F00C03F2
:10198000082BF6D107F10C07BD4680BC704700BF9D
:1019900080B485B000AF786039604FF00003FB6021
:1019A0007B681B68FB60FA6848F23F03CFF21C03B8
:1019B0001340FB603B681A683B68DB681A433B686E
:1019C0005B691A433B689B691A433B68DB691A43AE
:1019D0003B681B6A1A433B685B6A1A433B689B6A15
:1019E0001A433B685B6B1A433B689B6B1343FA6873
:1019F0001343FB607B68FA681A607B685B69FB6075
:101A0000FB6823F00703FB603B68DA6A3B681B6BEB
:101A10001343FA681343FB607B68FA685A613B68BA
:101A20001A697B685A603B685A687B689A603B68B1
:101A30009A687B68DA6007F11407BD4680BC70477E
:101A400080B483B000AF78600B46FB70FB78002B4E
:101A500006D07B681B6843F001027B681A6005E0D2
:101A60007B681B6823F001027B681A6007F10C0792
:101A7000BD4680BC704700BF80B483B000AF7860C3
:101A80000B467B807A887B685A6007F10C07BD465D
:101A900080BC704780B485B000AF78604FF0000321
:101AA000FB737B681B6803F00103002B03D04FF02E
:101AB0000103FB7302E04FF00003FB73FB7B18464E
:101AC00007F11407BD4680BC704700BF80B485B0E5
:101AD00000AF786039607A6846F20F43C4F20203BF
:101AE0009A4205D84FF4C043C4F20203FB6004E0FD
:101AF0004FF4C843C4F20203FB603B6803F0005399
:101B0000002B07D03B6823F0F02323F08213FA6800
:101B1000D36006E03B6823F0F02323F08213FA68D9
:101B2000936007F11407BD4680BC704780B485B050
:101B300000AFF860B9601346FB71BB6803F0800327
:101B4000002B0FD0FB79002B06D0FB685B6943F0BC
:101B50008002FB685A6105E0FB685B6923F0800244
:101B6000FB685A61BB68802B15D0FB79002B08D02D
:101B7000FB681A68BB6803F01E031A43FB681A600F
:101B800009E0FB681A68BB6803F01E036FEA0303F1
:101B90001A40FB681A6007F11407BD4680BC704705
:101BA00080B485B000AF786039607A6846F20F4340
:101BB000C4F202039A4205D84FF4C043C4F20203B0
:101BC000FB6004E04FF4C843C4F20203FB603B68CF
:101BD00003F00053002B07D03B6823F0F02323F0E1
:101BE0008213FA68D36006E03B6823F0F02323F009
:101BF0008213FA68936007F11407BD4680BC7047F2
:101C000080B485B000AF78604FF00003FB734FF0F5
:101C10000003BB734FF00F037B737B68DB78002BF3
:101C200045D04FF46D43CEF20003DB686FEA030347
:101C300003F4E0634FEA1323FB73FB7BC3F104035C
:101C4000BB737A7BFB7B42FA03F37B737B685B7825
:101C50001A46BB7B02FA03F3FB737B689A787B7BA3
:101C60001340DAB2FB7B1343FB73FB7B4FEA031396
:101C7000FB734FF46143CEF200037A6812789B182D
:101C8000FA7B83F800234FF46143CEF200037A68B5
:101C900012784FEA5212D2B27968097801F01F0126
:101CA0004FF0010000FA01F143F8221014E04FF464
:101CB0006143CEF200037A6812784FEA5212D2B230
:101CC0007968097801F01F014FF0010000FA01F175
:101CD00002F1200243F8221007F11407BD4680BC30
:041CE000704700BF8A
:101CE400FF020000000000000102030401020304DB
:041CF40006070809CE
:0400000508000000EF
:00000001FF
