:020000040800F2
:1000000044090020010400086D0400086D04000884
:100010006D0400086D0400086D0400080000000075
:100020000000000000000000000000006D04000857
:100030006D040008000000006D0400086D04000855
:100040006D0400086D0400086D0400086D040008CC
:100050006D0400086D0400086D0400086D040008BC
:100060006D0400086D0400086D0400086D040008AC
:10007000B50A00086D0400085D0A00086D04000858
:100080006D0400086D0400086D0400086D0400088C
:100090006D0400086D0400086D0400086D0400087C
:1000A0006D0400086D0400086D0400086D0400086C
:1000B0006D0400086D0400086D0400086D0400085C
:1000C0006D0400086D0400086D0400086D0400084C
:1000D0006D0400086D0400086D0400086D0400083C
:1000E0006D0400086D0400086D0400086D0400082C
:1000F0006D0400086D0400086D0400086D0400081C
:100100006D0400086D0400086D0400086D0400080B
:100110006D0400086D0400086D0400086D040008FB
:100120006D0400086D0400086D0400086D040008EB
:100130006D0400086D0400086D0400086D040008DB
:100140006D0400086D0400086D0400086D040008CB
:100150006D0400086D0400086D0400086D040008BB
:100160006D0400086D0400086D0400086D040008AB
:100170006D0400086D0400086D0400086D0400089B
:100180006D0400086D04000880B58AB000AF786087
:1001900039604FF000037B624FF000033B624FF089
:1001A0000003FB614FF00003BB617B681B8A9BB2BD
:1001B0007B627B6A23F440537B623B68DB887A6A0C
:1001C00013437B627B6A9AB27B681A827B689B8945
:1001D0009BB27B627B6A23F4B05323F00C037B62F7
:1001E0003B689A883B681B8913439AB23B685B89DA
:1001F00013439BB27A6A13437B627B6A9AB27B6831
:100200009A817B689B8A9BB27B627B6A23F44073F2
:100210007B623B689B897A6A13437B627B6A9AB2F2
:100220007B689A8207F10803184601F03BF87A6868
:100230004FF48053C4F201039A4206D07A684FF417
:10024000A053C4F201039A4202D17B693B6201E0F0
:100250003B693B627B689B899BB29BB21BB2002BC4
:100260000FDA3A6A13464FEA83039B184FEA830278
:100270009A183B681B684FEA4303B2FBF3F3FB6138
:100280000EE03A6A13464FEA83039B184FEA830253
:100290009A183B681B684FEA8303B2FBF3F3FB61D8
:1002A000FA6948F21F53C5F2EB13A3FB02134FEA9E
:1002B00053134FEA03137B627B6A4FEA13134FF029
:1002C000640202FB03F3FA69D31ABB617B689B8962
:1002D0009BB29BB21BB2002B12DABB694FEAC3037D
:1002E00003F1320248F21F53C5F2EB13A3FB0213D2
:1002F0004FEA531303F007037A6A13437B6211E05A
:10030000BB694FEA031303F1320248F21F53C5F2EF
:10031000EB13A3FB02134FEA531303F00F037A6AA4
:1003200013437B627B6A9AB27B681A8107F12807C4
:10033000BD4680BD80B483B000AF78600B46FB70D3
:10034000FB78002B08D07B689B899BB243F4005359
:100350009AB27B689A8107E07B689B899BB223F401
:1003600000539AB27B689A8107F10C07BD4680BCA6
:10037000704700BF80B483B000AF786013460A4670
:100380007A807B707B78002B08D07B689B8A9AB23E
:100390007B8813439AB27B689A820AE07B689B8AC7
:1003A0009AB27B886FEA03039BB213409AB27B68D0
:1003B0009A8207F10C07BD4680BC704780B485B0B7
:1003C00000AF78600B467B804FF00003FB814FF05D
:1003D0000003BB817B884FEA1323FB81FB894FF02D
:1003E000010202FA03F3BB81BB896FEA03039AB2ED
:1003F0007B681A8007F11407BD4680BC704700BFB8
:1004000080B582B000AF42F21823C0F600037B60D3
:1004100040F20003C2F200033B600BE07B681A6805
:100420003B681A603B6803F104033B607B6803F19F
:1004300004037B603A6840F21403C2F200039A425C
:10044000ECD3084808494FF000028842B8BF40F892
:10045000042BFFF6FAAF00F00DF807F10807BD46D0
:1004600080BD0000140000204801002080B400AFCF
:10047000FEE700BF80B582B000AF01F05FF900F089
:1004800003FE4FF0010000F0B1FE00F0FBFE03465A
:10049000FB71FB79082B03D14FF0000000F070FED8
:1004A0004FF28000C0F2FA2000F0D6FE00F008F80B
:1004B00000F060FA4FF0030000F062FEFEE700BFBC
:1004C00080B586B000AF4FF008004FF0010100F09A
:1004D000CFFF4FF480204FF0010100F0F3FF4FF405
:1004E00000104FF0010100F0C3FF4FF44060C4F270
:1004F00002004FF008014FF0070201F0CBF84FF473
:100500004060C4F202004FF009014FF0070201F011
:10051000C1F84FF002033B714FF002037B714FF0C3
:100520000003FB714FF480733B603B464FF4406027
:10053000C4F20200194600F0EFFF4FF400733B6075
:100540003B464FF44060C4F20200194600F0E4FF5D
:100550004FF4E123BB604FF00003BB814FF0000379
:10056000FB814FF000033B824FF00003BB824FF052
:100570000C037B8207F108034FF49040C4F20000A3
:100580001946FFF701FE40F20C13C2F200034FF0D0
:100590000002DA6240F20C13C2F200034FF00002D4
:1005A0001A6340F20C13C2F200034FF000025A63C8
:1005B00040F20C13C2F200034FF000021A6240F244
:1005C0000C13C2F200034FF480629A6140F20C13E4
:1005D000C2F2000344F60402C4F200025A6040F280
:1005E0000C13C2F200034FF000029A6340F20C13A6
:1005F000C2F200034FF00002DA6140F20C13C2F2C3
:1006000000034FF000025A6140F20C13C2F20003E3
:100610004FF400329A6240F20C13C2F200034FF022
:1006200000025A6240F20C13C2F200034FF00B02B8
:100630001A6140F20C13C2F200034FF000621A601C
:1006400040F20C13C2F200034FF04002DA6040F2B5
:100650001C02C2F2000240F20C13C2F200039A60C4
:1006600046F25800C4F2020040F20C11C2F200013E
:1006700001F072F940F20C13C2F200034FF48072E1
:100680005A6240F20C13C2F200034FF001021A61E9
:1006900040F20C13C2F200034FF000621A6040F205
:1006A0000C13C2F200034FF00002DA6040F24C0279
:1006B000C2F2000240F20C13C2F200039A6046F24A
:1006C0002800C4F2020040F20C11C2F2000101F055
:1006D00043F940F20813C2F200034FF027021A70E8
:1006E00040F20813C2F200034FF00102DA7040F248
:1006F0000813C2F200034FF00D025A7040F20810C6
:10070000C2F2000001F060FA4FF49040C4F2000021
:1007100040F22661FFF752FE4FF49040C4F2000011
:1007200040F22551FFF74AFE4FF49040C4F200001A
:100730004FF00101FFF7FEFD40F20813C2F2000383
:100740004FF00C021A7040F20813C2F200034FF08F
:100750000102DA7040F20813C2F200034FF0000207
:100760005A7040F20813C2F200034FF000029A7070
:1007700040F20810C2F2000001F026FA46F228000A
:10078000C4F202004FF40841C1F2000101F0ECF99B
:1007900046F22800C4F202004FF010014FF00102AF
:1007A00001F0A8F940F20813C2F200034FF00E0264
:1007B0001A7040F20813C2F200034FF00102DA701F
:1007C00040F20813C2F200034FF000025A7040F2E8
:1007D0000813C2F200034FF000029A7040F20810B2
:1007E000C2F2000001F0F0F946F25800C4F2020033
:1007F0004FF40041C1F6000101F0B6F946F258008D
:10080000C4F202004FF010014FF0010201F072F942
:1008100007F11807BD4680BD80B584B000AF034620
:100820003960FB8040F20003C2F200031A783B6893
:100830001A703B6803F101033B6040F20103C2F20E
:1008400000031A783B681A703B6803F101033B60B0
:100850003B6803F101033B60FB884FEA13239BB223
:10086000DAB23B681A703B6803F101033B60FB8816
:10087000DAB23B681A703B6803F1FF333B603B68B8
:1008800003F1FF333B60FB8803F103039BB238683D
:10089000194600F097F80346FB81FB8803F1030338
:1008A0003A68D3183B60FB894FEA13239BB2DAB254
:1008B0003B681A703B6803F101033B60FB89DAB2C5
:1008C0003B681A703B6803F101033B603B684FF0E3
:1008D00003021A7046F22800C4F202004FF0010130
:1008E00001F0AEF846F22800C4F202004FF0010118
:1008F00001F08AF800BF46F22800C4F2020001F0BD
:10090000ADF80346012BF6D14FF49040C4F200003D
:100910004FF040014FF00102FFF72CFDFB8803F17F
:1009200008039BB246F25800C4F20200194601F0D7
:1009300087F846F25800C4F202004FF0010101F0BE
:1009400063F800BF46F25800C4F2020001F086F8D6
:100950000346012BF6D14FF49040C4F200004FF053
:1009600080014FF00102FFF705FD07F11007BD46BA
:1009700080BD00BF80B500AF40F21C03C2F200038F
:100980004FF053029A7040F21C03C2F200034FF082
:1009900000025A7140F21C03C2F200034FF0010240
:1009A0009A7140F21C03C2F200034FF00102DA71A7
:1009B0004FF0030040F21C01C2F20001FFF72CFFD0
:1009C00080BD00BF80B487B000AF78600B467B80ED
:1009D00048F208433B824FF00003FB824FF00003D4
:1009E000FB734FF000037B754FF000037B824FF0E9
:1009F00000037B8226E07B8A7A68D3181B781A462C
:100A0000FB8A5340FB824FF000037B7513E0FB8AA7
:100A1000DBB203F00103FB73FB8A4FEA5303FB8253
:100A2000FB7B002B03D0FA8A3B8A5340FB827B7D01
:100A300003F101037B757B7D072BE8D97B8A03F1EA
:100A400001037B827A8A7B889A42D4D3FB8A184638
:100A500007F11C07BD4680BC704700BF80B500AFE2
:100A60004FF0010000F08CFB4FF49040C4F2000006
:100A70004FF080014FF00002FFF77CFC46F2580077
:100A8000C4F202004FF0000100F0BEFF00BF46F2CA
:100A90005800C4F2020000F0E1FF0346002BF6D13B
:100AA00046F25800C4F202004FF0C05100F0F2FFCD
:100AB00080BD00BF80B582B000AF46F22800C4F20E
:100AC00002004FF0000100F09FFF00BF46F2280037
:100AD000C4F2020000F0C2FF0346002BF6D140F240
:100AE0008803C2F200031B68032B00F2AF8001A24F
:100AF00052F823F0050B0008330B0008810B0008A7
:100B0000AD0B000840F24C03C2F200031B78FF2B30
:100B100006D140F28803C2F200034FF001021A60CE
:100B200046F22800C4F202004FF0010100F088FFF5
:100B30008CE040F24C03C2F200031B78022B0FD171
:100B400040F28803C2F200034FF002021A6046F23C
:100B50002800C4F202004FF03A0100F071FF75E086
:100B600040F28803C2F200034FF000021A6046F21E
:100B70002800C4F202004FF0010100F061FF65E0BF
:100B80004FF002037B60786800F08AF846F2280094
:100B9000C4F202004FF03C0100F052FF40F2880323
:100BA000C2F200034FF003021A604FE04FF000035F
:100BB0007B6040F24C03C2F200031B78FF2B1AD17A
:100BC00040F24C03C2F200035B78022B13D1786829
:100BD00000F066F846F22800C4F202004FF03C0133
:100BE00000F02EFF4FF0000000F000FB4FF001007E
:100BF00000F0C6FA29E04FF0010000F0F7FA40F2E9
:100C00008803C2F200034FF000021A6046F2280087
:100C1000C4F202004FF0010100F012FF40F2140391
:100C2000C2F200031B6803F1010240F21403C2F296
:100C300000031A6040F21403C2F200031B68012B88
:100C400003D94FF0020000F09BFA00BF46F22800E3
:100C5000C4F202004FF0010100F0D6FE00BF46F2E0
:100C60002800C4F2020000F0F9FE0346012BF6D181
:100C700046F22800C4F202004FF40061C1F2000104
:100C800000F008FF4FF49040C4F200004FF0400124
:100C90004FF00102FFF76EFB07F10807BD4680BD6C
:100CA000B0B592B000AF786040F28C03C2F200039E
:100CB0003B64364BFB63364BBB63364B7B63364B37
:100CC0003B63364BFB62364BBB62364B7B62364B2B
:100CD0003B62364BFB61364BBB61364B7B61364B1F
:100CE0003B617B68C3F1030240F24C03C2F2000394
:100CF0009B5C4FEA03239AB27B68C3F1040140F284
:100D00004C03C2F200035B5C13439BB2FB81FB8983
:100D100003F105027B68D21A40F24C03C2F20003D1
:100D20009B5C4FEA03239AB2FB8903F106017B68BF
:100D3000C91A40F24C03C2F200035B5C13439BB23E
:100D4000BB817B68C3F1020240F24C03C2F2000394
:100D5000D218FB8903F103039BB210461946FFF733
:100D600031FE0346BA899A4240F083817B68C3F121
:100D7000020240F24C03C2F200039B5C902B40F055
:100D800077814FF004037B64ECE000BF900000200B
:100D900094000020980000209C000020A00000206B
:100DA000A4000020A8000020AC000020B00000201B
:100DB000F8000020FC000020000100207B687A6C15
:100DC000D31A03F1040240F24C03C2F200039A5C0E
:100DD0003B6C1A703B6C03F101033B647B687A6CDB
:100DE000D31A03F1080240F24C03C2F200039A5CEA
:100DF000FB6B1A70FB6B03F10103FB637B687A6C7E
:100E0000D31A03F10C0240F24C03C2F200039A5CC5
:100E1000BB6B1A70BB6B03F10103BB637B687A6C1D
:100E2000D31A03F1100240F24C03C2F200039A5CA1
:100E30007B6B1A707B6B03F101037B637B687A6CBD
:100E4000D31A03F1140240F24C03C2F200039A5C7D
:100E50007B6A1A707B6A03F101037B627B687A6CA0
:100E6000D31A03F1180240F24C03C2F200039A5C59
:100E70003B6A1A703B6A03F101033B627B687A6C40
:100E8000D31A03F11C0240F24C03C2F200039A5C35
:100E9000FB691A70FB6903F10103FB617B687A6CE3
:100EA000D31A03F1200240F24C03C2F200039A5C11
:100EB0003B6B1A703B6B03F101033B637B687A6CFD
:100EC000D31A03F1240240F24C03C2F200039A5CED
:100ED000FB6A1A70FB6A03F10103FB627B687A6CA0
:100EE000D31A03F1280240F24C03C2F200039A5CC9
:100EF000BB6A1A70BB6A03F10103BB627B687A6C40
:100F0000D31A03F12C0240F24C03C2F200039A5CA4
:100F1000BB691A70BB6903F10103BB617B687A6C22
:100F2000D31A03F1300240F24C03C2F200039A5C80
:100F30007B691A707B6903F101037B617B687A6CC2
:100F4000D31A03F1340240F24C03C2F200039A5C5C
:100F50003B691A703B6903F101033B617B6C03F150
:100F6000FF337B647B6C002B7FF428AF40F28C0353
:100F7000C2F20003DB6983F0004240F28C03C2F24C
:100F80000003DA6140F28C03C2F200031B6983F0B4
:100F9000004240F28C03C2F200031A6140F28C035B
:100FA000C2F200035B6A83F0004240F28C03C2F29B
:100FB00000035A6240F28C03C2F200039B6983F083
:100FC000004240F28C03C2F200039A6140F28C03AB
:100FD000C2F20003DB69184600F0CCFF02460B4664
:100FE0004FF001010C461046194625A3D3E9002312
:100FF00001F074F80346002B02D14FF000031C46A9
:10100000E5B240F28C03C2F20003DB694FF001024B
:10101000144618464FF0000101F0F4F80346002B87
:1010200002D14FF000031C46E3B22B40DBB2002B91
:1010300004D04FF0020000F0A3F81AE040F28C0355
:10104000C2F20003DB69184600F094FF02460B462B
:10105000104619460AA3D3E9002301F05DF80346C0
:10106000002B04D04FF0020000F0C0F801E000E0D7
:1010700000BF07F14807BD46B0BD00BFAFF3008019
:101080009A9999999999C93F80B584B000AF4FF06A
:1010900020004FF0010100F0EBF907F10403FB60C1
:1010A000FB684FF080021A60FB684FF001021A7172
:1010B000FB684FF00102DA71FB684FF000029A7191
:1010C000FB684FF002025A714FF4A050C4F20200C4
:1010D000F96800F021FAFB684FF480721A60FB682F
:1010E0004FF001021A71FB684FF00102DA71FB68E0
:1010F0004FF000029A71FB684FF002025A714FF4F0
:10110000A050C4F20200F96800F006FAFB684FF440
:1011100000721A60FB684FF001021A71FB684FF011
:101120000102DA71FB684FF000029A71FB684FF020
:1011300002025A714FF4A050C4F20200F96800F0A4
:10114000EBF9FB684FF040021A60FB684FF00102B8
:101150001A71FB684FF00102DA71FB684FF0000270
:101160009A71FB684FF002025A714FF4A050C4F21A
:101170000200F96800F0D0F907F11007BD4680BD04
:1011800080B582B000AF0346FB71FB79012B07D11C
:101190004FF4A050C4F202004FF4807100F05EFAE8
:1011A000FB79022B07D14FF4A050C4F202004FF09C
:1011B000800100F053FAFB79002B07D14FF4A050C7
:1011C000C4F202004FF0400100F048FAFB79032B13
:1011D00007D14FF4A050C4F202004FF4007100F0A8
:1011E0003DFA07F10807BD4680BD00BF80B582B05B
:1011F00000AF0346FB71FB79012B07D14FF4A050E0
:10120000C4F202004FF4807100F036FAFB79022B31
:1012100007D14FF4A050C4F202004FF0800100F05B
:101220002BFAFB79002B07D14FF4A050C4F2020037
:101230004FF0400100F020FAFB79032B07D14FF467
:10124000A050C4F202004FF4007100F015FA07F14B
:101250000807BD4680BD00BF80B483B000AF786092
:1012600000BF7B68002B0CBF00220122D2B203F129
:10127000FF337B60002AF4D107F10C07BD4680BC28
:10128000704700BF80B400AF4FF46053C4F2020354
:101290009B68DBB203F00C03DBB21846BD4680BC92
:1012A000704700BF80B489B000AF78604FF0000392
:1012B000BB614FF000037B614FF00003FB614FF017
:1012C00002033B614FF00003FB604FF00203BB6081
:1012D0004FF46053C4F202039B6803F00C03BB613C
:1012E000BB69042B0AD0082B0FD0002B60D17A6881
:1012F0004FF41053C0F2F403136060E07A6847F6CD
:101300004003C0F27D13136059E04FF46053C4F200
:1013100002035B6803F480034FEA9353FB604FF4CE
:101320006053C4F202035B6803F03F03BB60FB68D9
:10133000002B14D047F64003C0F27D13BA68B3FB0C
:10134000F2F24FF46053C4F20203596847F6C073D7
:101350000B404FEA931303FB02F3FB6113E04FF4DE
:101360001053C0F2F403BA68B3FBF2F24FF46053C7
:10137000C4F20203596847F6C0730B404FEA931357
:1013800003FB02F3FB614FF46053C4F202035B689A
:1013900003F440334FEA134303F101034FEA4303DD
:1013A0003B61FA693B69B2FBF3F27B681A6006E0C5
:1013B0007A684FF41053C0F2F403136000BF4FF487
:1013C0006053C4F202039B6803F0F003BB61BB6986
:1013D0004FEA1313BB6140F20403C2F20003BA697F
:1013E0009B181B78DBB27B617B681A687B6922FAE9
:1013F00003F27B685A604FF46053C4F202039B68A7
:1014000003F4E053BB61BB694FEA9323BB6140F235
:101410000403C2F20003BA699B181B78DBB27B613C
:101420007B685A687B6922FA03F27B689A604FF402
:101430006053C4F202039B6803F46043BB61BB6961
:101440004FEA5333BB6140F20403C2F20003BA69AE
:101450009B181B78DBB27B617B685A687B6922FA38
:1014600003F27B68DA6007F12407BD4680BC704751
:1014700080B483B000AF78600B46FB70FB78002B24
:101480000CD04FF46053C4F202034FF46052C4F224
:101490000202116B7A680A431A630DE04FF460533D
:1014A000C4F202034FF46052C4F20202116B7A6874
:1014B0006FEA02020A401A6307F10C07BD4680BCBE
:1014C000704700BF80B483B000AF78600B46FB70FC
:1014D000FB78002B0CD04FF46053C4F202034FF49E
:1014E0006052C4F20202116C7A680A431A640DE079
:1014F0004FF46053C4F202034FF46052C4F202028C
:10150000116C7A686FEA02020A401A6407F10C074C
:10151000BD4680BC704700BF80B487B000AF786024
:1015200039604FF000037B614FF000033B614FF0E7
:101530000003FB604FF000037B6186E07B694FF0A6
:10154000010202FA03F33B613B681A683B691340EE
:10155000FB60FA683B699A4273D17B681A687B69C1
:101560004FEA43034FF0030101FA03F36FEA030369
:101570001A407B681A607B681A683B681B791946B9
:101580007B694FEA430301FA03F31A437B681A604D
:101590003B681B79012B03D03B681B79022B34D1AC
:1015A0007B689A687B694FEA43034FF0030101FAB5
:1015B00003F36FEA03031A407B689A607B689A68BA
:1015C0003B685B7919467B694FEA430301FA03F3F1
:1015D0001A437B689A607B685A687B699BB24FF0BC
:1015E000010101FA03F36FEA03031A407B685A60B2
:1015F0007B685A683B689B7919467B699BB201FA04
:1016000003F39BB21A437B685A607B68DA687B6994
:101610009BB24FEA43034FF0030101FA03F36FEA71
:1016200003031A407B68DA607B68DA683B68DB7921
:1016300019467B694FEA430301FA03F31A437B68B7
:10164000DA607B6903F101037B617B690F2B7FF615
:1016500075AF07F11C07BD4680BC704780B483B0EE
:1016600000AF78600B467B807B687A881A8307F12D
:101670000C07BD4680BC704780B483B000AF786073
:101680000B467B807B687A885A8307F10C07BD463E
:1016900080BC704780B485B000AF786013460A46BE
:1016A0007A807B704FF00003FB604FF00003BB605B
:1016B0007A787B8803F007034FEA830302FA03F387
:1016C000FB607B884FEAD3039BB21A467B884FEAC4
:1016D000D3039BB219467B6801F1080153F821102E
:1016E0007B8803F007034FEA83034FF00F0000FAF3
:1016F00003F36FEA030319407B6802F1080243F821
:1017000022107B884FEAD3039BB21A467B6802F112
:10171000080253F82220FB681343BB607B884FEA22
:10172000D3039BB21A467B6802F10802B96843F8FA
:10173000221007F11407BD4680BC704780B500AF8A
:101740004FF46053C4F202034FF46052C4F2020239
:10175000126842F001021A604FF46053C4F20203AF
:101760004FF000029A604FF46053C4F202034FF44A
:101770006052C4F20202126822F0847222F48032B3
:101780001A604FF46053C4F2020343F21002C2F233
:1017900000425A604FF46053C4F202034FF46052A7
:1017A000C4F20202126822F480221A604FF46053DD
:1017B000C4F202034FF00002DA6000F009F84FF4BF
:1017C0006D43CEF200034FF000629A6080BD00BF0F
:1017D00080B483B000AF4FF000037B604FF0000394
:1017E0003B604FF46053C4F202034FF46052C4F202
:1017F0000202126842F480321A604FF46053C4F25D
:1018000002031B6803F400333B607B6803F10103B0
:101810007B603B68002B03D17B68B3F5A06FECD1F4
:101820004FF46053C4F202031B6803F40033002B2F
:1018300003D04FF001033B6002E04FF000033B6038
:101840003B68012B40F082804FF46053C4F20203E6
:101850004FF46052C4F20202126C42F080521A64D9
:101860004FF4E043C4F200034FF4E042C4F200023C
:10187000126842F480421A604FF46053C4F20203CB
:101880004FF46052C4F2020292689A604FF46053BF
:10189000C4F202034FF46052C4F20202926842F4AE
:1018A00000429A604FF46053C4F202034FF4605256
:1018B000C4F20202926842F4A0529A604FF460535C
:1018C000C4F2020345F21942C0F240725A604FF46A
:1018D0006053C4F202034FF46052C4F20202126871
:1018E00042F080721A6000BF4FF46053C4F20203EA
:1018F0001B6803F00073002BF6D04FF47053C4F252
:10190000020340F205621A604FF46053C4F202030E
:101910004FF46052C4F20202926822F003029A600D
:101920004FF46053C4F202034FF46052C4F2020257
:10193000926842F002029A6000BF4FF46053C4F212
:1019400002039B6803F00C03082BF6D107F10C0788
:10195000BD4680BC704700BF80B485B000AF7860E2
:1019600039604FF00003FB607B681B68FB60FA681E
:1019700048F23F03CFF21C031340FB603B681A6838
:101980003B68DB681A433B685B691A433B689B69A9
:101990001A433B68DB691A433B681B6A1A433B687E
:1019A0005B6A1A433B689B6A1A433B685B6B1A434A
:1019B0003B689B6B1343FA681343FB607B68FA68D0
:1019C0001A607B685B69FB60FB6823F00703FB60C0
:1019D0003B68DA6A3B681B6B1343FA681343FB608E
:1019E0007B68FA685A613B681A697B685A603B6891
:1019F0005A687B689A603B689A687B68DA6007F18E
:101A00001407BD4680BC704780B483B000AF7860D7
:101A10000B46FB70FB78002B06D07B681B6843F0FD
:101A200001027B681A6005E07B681B6823F00102F5
:101A30007B681A6007F10C07BD4680BC704700BF89
:101A400080B483B000AF78600B467B807A887B6877
:101A50005A6007F10C07BD4680BC704780B485B062
:101A600000AF78604FF00003FB737B681B6803F0E6
:101A70000103002B03D04FF00103FB7302E04FF092
:101A80000003FB73FB7B184607F11407BD4680BCBF
:101A9000704700BF80B485B000AF786039607A6865
:101AA00046F20F43C4F202039A4205D84FF4C043F2
:101AB000C4F20203FB6004E04FF4C843C4F2020323
:101AC000FB603B6803F00053002B07D03B6823F01A
:101AD000F02323F08213FA68D36006E03B6823F01A
:101AE000F02323F08213FA68936007F11407BD46D0
:101AF00080BC704780B485B000AFF860B960134611
:101B0000FB71BB6803F08003002B0FD0FB79002B27
:101B100006D0FB685B6943F08002FB685A6105E010
:101B2000FB685B6923F08002FB685A61BB68802B0D
:101B300015D0FB79002B08D0FB681A68BB6803F04E
:101B40001E031A43FB681A6009E0FB681A68BB6849
:101B500003F01E036FEA03031A40FB681A6007F1E3
:101B60001407BD4680BC704780B485B000AF786074
:101B700039607A6846F20F43C4F202039A4205D8EC
:101B80004FF4C043C4F20203FB6004E04FF4C843C7
:101B9000C4F20203FB603B6803F00053002B07D044
:101BA0003B6823F0F02323F08213FA68D36006E049
:101BB0003B6823F0F02323F08213FA68936007F167
:101BC0001407BD4680BC704780B485B000AF786014
:101BD0004FF00003FB734FF00003BB734FF00F0394
:101BE0007B737B68DB78002B45D04FF46D43CEF2DE
:101BF0000003DB686FEA030303F4E0634FEA132397
:101C0000FB73FB7BC3F10403BB737A7BFB7B42FA60
:101C100003F37B737B685B781A46BB7B02FA03F3A2
:101C2000FB737B689A787B7B1340DAB2FB7B1343B0
:101C3000FB73FB7B4FEA0313FB734FF46143CEF25C
:101C400000037A6812789B18FA7B83F800234FF41C
:101C50006143CEF200037A6812784FEA5212D2B290
:101C60007968097801F01F014FF0010000FA01F1D5
:101C700043F8221014E04FF46143CEF200037A6877
:101C800012784FEA5212D2B27968097801F01F0136
:101C90004FF0010000FA01F102F1200243F8221096
:101CA00007F11407BD4680BC704700BF81F00041BA
:101CB00002E000BF83F0004330B54FEA41044FEA31
:101CC000430594EA050F08BF90EA020F1FBF54EACC
:101CD000000C55EA020C7FEA645C7FEA655C00F068
:101CE000E2804FEA5454D4EB5555B8BF6D420CDD39
:101CF0002C4480EA020281EA030382EA000083EABC
:101D0000010180EA020281EA0303362D88BF30BD5B
:101D100011F0004F4FEA01314FF4801C4CEA1131B1
:101D200002D0404261EB410113F0004F4FEA033310
:101D30004CEA133302D0524263EB430394EA050F9B
:101D400000F0A780A4F10104D5F1200E0DDB02FA0A
:101D50000EFC22FA05F2801841F1000103FA0EF29E
:101D6000801843FA05F359410EE0A5F120050EF164
:101D7000200E012A03FA0EFC28BF4CF0020C43FA95
:101D800005F3C01851EBE37101F0004507D54FF0A2
:101D9000000EDCF1000C7EEB00006EEB0101B1F5F2
:101DA000801F1BD3B1F5001F0CD349085FEA300038
:101DB0004FEA3C0C04F101044FEA445212F5800F43
:101DC00080F09A80BCF1004F08BF5FEA500C50F1E0
:101DD000000041EB045141EA050130BD5FEA4C0CC3
:101DE000404141EB010111F4801FA4F10104E9D14C
:101DF00091F0000F04BF01460020B1FA81F308BF43
:101E00002033A3F10B03B3F120020CDA0C3208DD0E
:101E100002F1140CC2F10C0201FA0CF021FA02F1E9
:101E20000CE002F11402D8BFC2F1200C01FA02F159
:101E300020FA0CFCDCBF41EA0C019040E41AA2BF7E
:101E400001EB0451294330BD6FEA04041F3C1CDA46
:101E50000C340EDC04F11404C4F1200220FA04F066
:101E600001FA02F340EA030021FA04F345EA030110
:101E700030BDC4F10C04C4F1200220FA02F001FAD2
:101E800004F340EA0300294630BD21FA04F0294654
:101E900030BD94F0000F83F4801306BF81F48011ED
:101EA0000134013D4EE77FEA645C18BF7FEA655C60
:101EB00029D094EA050F08BF90EA020F05D054EA32
:101EC000000C04BF1946104630BD91EA030F1EBF37
:101ED0000021002030BD5FEA545C05D1400049413B
:101EE00028BF41F0004130BD14F580043CBF01F52E
:101EF000801130BD01F0004545F0FE4141F4700114
:101F00004FF0000030BD7FEA645C1ABF19461046EE
:101F10007FEA655C1CBF0B46024650EA013406BFEF
:101F200052EA033591EA030F41F4002130BD00BFAE
:101F300090F0000F04BF0021704730B54FF480646B
:101F400004F132044FF000054FF0000150E700BFEC
:101F500090F0000F04BF0021704730B54FF480644B
:101F600004F1320410F0004548BF40424FF0000138
:101F70003EE700BF42004FEAE2014FEA31014FEA7B
:101F800002701FBF12F07F4393F07F4F81F06051CA
:101F9000704792F0000F14BF93F07F4F704730B539
:101FA0004FF4607401F0004521F0004120E700BFCC
:101FB00050EA010208BF704730B54FF000050AE053
:101FC00050EA010208BF704730B511F0004502D554
:101FD000404261EB41014FF4806404F132045FEA56
:101FE000915C3FF4DCAE4FF003025FEADC0C18BFFB
:101FF00003325FEADC0C18BF033202EBDC02C2F1F1
:10200000200300FA03FC20FA02F001FA03FE40EA82
:102010000E0021FA02F11444C1E600BF4FF0FF3C6C
:1020200006E000BF4FF0010C02E000BF4FF0010CD2
:102030004DF804CD4FEA410C7FEA6C5C4FEA430C4B
:1020400018BF7FEA6C5C1BD001B050EA410C0CBF9A
:1020500052EA430C91EA030F02BF90EA020F0020FC
:10206000704710F1000F91EA030F58BF994208BF63
:1020700090422CBFD8176FEAE37040F00100704720
:102080004FEA410C7FEA6C5C02D150EA013C07D177
:102090004FEA430C7FEA6C5CD6D152EA033CD3D0C2
:1020A0005DF8040B704700BF8446104662468C46BC
:1020B0001946634600E000BF01B5FFF7B7FF0028EF
:1020C00048BF10F1000F01BD4DF808EDFFF7F4FF18
:1020D0000CBF012000205DF808FB00BF4DF808EDA3
:1020E000FFF7EAFF34BF012000205DF808FB00BFC6
:1020F0004DF808EDFFF7E0FF94BF012000205DF8E8
:1021000008FB00BF4DF808EDFFF7CEFF94BF01209C
:1021100000205DF808FB00BF4DF808EDFFF7C4FF95
:1021200034BF012000205DF808FB00BF4FF0FF3CEA
:1021300006E000BF4FF0010C02E000BF4FF0010CC1
:102140004DF804CD4FEA40024FEA41037FEA226C8A
:1021500018BF7FEA236C11D001B052EA530C18BFAC
:1021600090EA010F58BFB2EB030088BFC81738BF11
:102170006FEAE17018BF40F0010070477FEA226CFF
:1021800002D15FEA402C05D17FEA236CE4D15FEAFB
:10219000412CE1D05DF8040B704700BF844608462F
:1021A0006146FFE70FB5FFF7C9FF002848BF10F1F0
:1021B000000F0FBD4DF808EDFFF7F4FF0CBF012035
:1021C00000205DF808FB00BF4DF808EDFFF7EAFFBF
:1021D00034BF012000205DF808FB00BF4DF808ED7A
:1021E000FFF7E0FF94BF012000205DF808FB00BF6F
:1021F0004DF808EDFFF7D2FF94BF012000205DF8F5
:1022000008FB00BF4DF808EDFFF7C8FF34BF012001
:0822100000205DF808FB00BF8F
:10221800FF020000000000000102030401020304A1
:042228000607080994
:0400000508000000EF
:00000001FF
