:020000040800F2
:100000005C080020210400088D0400088D0400080D
:100010008D0400088D0400088D0400080000000015
:100020000000000000000000000000008D04000837
:100030008D040008000000008D0400088D040008F5
:100040008D0400088D0400088D0400088D0400084C
:100050008D0400088D0400088D0400088D0400083C
:100060008D0400088D0400088D0400088D0400082C
:100070008D0400088D0400088D0400088D0400081C
:100080008D0400088D0400088D0400088D0400080C
:100090008D0400088D0400088D0400088D040008FC
:1000A0008D0400088D0400088D0400088D040008EC
:1000B0008D0400088D0400088D0400088D040008DC
:1000C0008D0400088D0400088D0400088D040008CC
:1000D0008D0400088D0400088D0400088D040008BC
:1000E0008D0400088D0400088D0400088D040008AC
:1000F0008D0400088D0400088D0400088D0400089C
:100100008D0400088D0400088D0400088D0400088B
:100110008D0400088D0400088D0400088D0400087B
:100120008D0400088D0400088D0400088D0400086B
:100130008D0400088D0400088D0400088D0400085B
:100140008D0400088D0400088D0400088D0400084B
:100150008D0400088D0400088D0400088D0400083B
:100160008D0400088D0400088D0400088D0400082B
:100170008D0400088D0400088D0400088D0400081B
:100180008D0400088D04000880B58AB000AF786047
:1001900039604FF000037B624FF000033B624FF089
:1001A0000003FB614FF00003BB617B681B8A9BB2BD
:1001B0007B627B6A23F440537B623B68DB887A6A0C
:1001C00013437B627B6A9AB27B681A827B689B8945
:1001D0009BB27B627B6A23F4B05323F00C037B62F7
:1001E0003B689A883B681B8913439AB23B685B89DA
:1001F00013439BB27A6A13437B627B6A9AB27B6831
:100200009A817B689B8A9BB27B627B6A23F44073F2
:100210007B623B689B897A6A13437B627B6A9AB2F2
:100220007B689A8207F10803184600F083FB7A681E
:100230004FF48053C4F201039A4206D07A684FF417
:10024000A053C4F201039A4202D17B693B6201E0F0
:100250003B693B627B689B899BB29BB21BB2002BC4
:100260000FDA3A6A13464FEA83039B184FEA830278
:100270009A183B681B684FEA4303B2FBF3F3FB6138
:100280000EE03A6A13464FEA83039B184FEA830253
:100290009A183B681B684FEA8303B2FBF3F3FB61D8
:1002A000FA6948F21F53C5F2EB13A3FB02134FEA9E
:1002B00053134FEA03137B627B6A4FEA13134FF029
:1002C000640202FB03F3FA69D31ABB617B689B8962
:1002D0009BB29BB21BB2002B12DABB694FEAC3037D
:1002E00003F1320248F21F53C5F2EB13A3FB0213D2
:1002F0004FEA531303F007037A6A13437B6211E05A
:10030000BB694FEA031303F1320248F21F53C5F2EF
:10031000EB13A3FB02134FEA531303F00F037A6AA4
:1003200013437B627B6A9AB27B681A8107F12807C4
:10033000BD4680BD80B483B000AF78600B46FB70D3
:10034000FB78002B08D07B689B899BB243F4005359
:100350009AB27B689A8107E07B689B899BB223F401
:1003600000539AB27B689A8107F10C07BD4680BCA6
:10037000704700BF80B483B000AF786013460A4670
:100380007A807B707B78002B0BD07B689B8A9AB23B
:100390007B886FEA03039BB213409AB27B689A8210
:1003A00007E07B689B8A9AB27B8813439AB27B688A
:1003B0009A8207F10C07BD4680BC704780B485B0B7
:1003C00000AF78600B467B804FF00003FB737B68C7
:1003D0001B889AB27B8813409BB2002B03D04FF04E
:1003E0000103FB7302E04FF00003FB73FB7B184635
:1003F00007F11407BD4680BC704700BF80B483B0CE
:1004000000AF78600B467B807B886FEA03039AB26B
:100410007B681A8007F10C07BD4680BC704700BF9F
:1004200080B582B000AF41F23C23C0F600037B6090
:1004300040F20003C2F200033B600BE07B681A68E5
:100440003B681A603B6803F104033B607B6803F17F
:1004500004037B603A6840F26003C2F200039A42F0
:10046000ECD3084808494FF000028842B8BF40F872
:10047000042BFFF6FAAF00F00DF807F10807BD46B0
:1004800080BD0000600000206000002080B400AF4C
:10049000FEE700BF80B582B000AF00F0A9FC00F01D
:1004A0001BF94FF0010000F0C9F900F033FA0346E0
:1004B000FB7100F059F84FF49040C4F200004FF087
:1004C0004001FFF79BFF4FF49040C4F200004FF053
:1004D0004001FFF773FF0346002B03D14FF00200EA
:1004E00000F076F946F25800C4F202004FF0010124
:1004F00000F02AFE03E04FF0000000F0D5F946F2CC
:100500005800C4F2020000F03BFE0346012BF2D17A
:100510004FF49040C4F200004FF080014FF0010210
:10052000FFF728FF00BF4FF49040C4F200004FF0E7
:100530004001FFF743FF0346002BF4D003E04FF0E8
:10054000030000F0B1F946F25800C4F202004FF087
:10055000C05100F031FE0346002BF0D04FF00200F6
:1005600000F06CF9FAE700BF80B596B000AF4FF02D
:1005700008004FF0010100F0C3FA4FF480204FF063
:10058000010100F0E7FA4FF400104FF0010100F014
:10059000B7FA4FF44060C4F202004FF008014FF088
:1005A000070200F0D1FB4FF44060C4F202004FF0AC
:1005B00009014FF0070200F0C7FB4FF0020387F874
:1005C00054304FF0000387F857304FF0020387F89C
:1005D00055304FF480733B6507F150034FF4406092
:1005E000C4F20200194600F0DFFA4FF400733B65D5
:1005F00007F150034FF44060C4F20200194600F0C6
:10060000D3FA4FF4E1333B644FF00003A7F84430D2
:100610004FF00C03A7F84A304FF00003A7F846301C
:100620004FF00003A7F848304FF00003A7F84C3014
:1006300007F140034FF49040C4F200001946FFF761
:10064000A3FD07F10403184600F038FD4FF00063E6
:100650007B6044F60403C4F20003BB6040F2000375
:10066000C2F20003FB604FF040033B614FF05003C8
:100670007B614FF00003BB614FF48063FB614FF07F
:1006800000033B624FF000037B624FF00003BB624C
:100690004FF40033FB624FF000033B634FF0000365
:1006A000FB634FF00003BB634FF000037B6307F174
:1006B000040346F25800C4F20200194600F0A6FCFA
:1006C0004FF49040C4F200004FF00101FFF732FEFA
:1006D00007F15807BD4680BD80B584B000AF4FF02C
:1006E00020004FF0010100F00BFA07F10403FB605A
:1006F000FB684FF080021A60FB684FF001021A712C
:10070000FB684FF00102DA71FB684FF000029A714A
:10071000FB684FF002025A714FF4A050C4F202007D
:10072000F96800F041FAFB684FF480721A60FB68C8
:100730004FF001021A71FB684FF00102DA71FB6899
:100740004FF000029A71FB684FF002025A714FF4A9
:10075000A050C4F20200F96800F026FAFB684FF4DA
:1007600000721A60FB684FF001021A71FB684FF0CB
:100770000102DA71FB684FF000029A71FB684FF0DA
:1007800002025A714FF4A050C4F20200F96800F05E
:100790000BFAFB684FF040021A60FB684FF0010251
:1007A0001A71FB684FF00102DA71FB684FF000022A
:1007B0009A71FB684FF002025A714FF4A050C4F2D4
:1007C0000200F96800F0F0F907F11007BD4680BD9E
:1007D00080B582B000AF0346FB71FB79012B07D1D6
:1007E0004FF4A050C4F202004FF4807100F07EFA82
:1007F000FB79022B07D14FF4A050C4F202004FF056
:10080000800100F073FAFB79002B07D14FF4A05060
:10081000C4F202004FF0400100F068FAFB79032BAC
:1008200007D14FF4A050C4F202004FF4007100F061
:100830005DFA07F10807BD4680BD00BF80B582B0F4
:1008400000AF0346FB71FB79012B07D14FF4A05099
:10085000C4F202004FF4807100F056FAFB79022BCB
:1008600007D14FF4A050C4F202004FF0800100F015
:100870004BFAFB79002B07D14FF4A050C4F20200D1
:100880004FF0400100F040FAFB79032B07D14FF401
:10089000A050C4F202004FF4007100F035FA07F1E5
:1008A0000807BD4680BD00BF80B582B000AF0346DB
:1008B000FB71FB79012B07D14FF4A050C4F2020069
:1008C0004FF4807100F02EFAFB79022B07D14FF420
:1008D000A050C4F202004FF0800100F023FAFB792F
:1008E000002B07D14FF4A050C4F202004FF040019A
:1008F00000F018FAFB79032B07D14FF4A050C4F293
:1009000002004FF4007100F00DFA07F10807BD4630
:1009100080BD00BF80B400AF4FF46053C4F2020347
:100920009B68DBB203F00C03DBB21846BD4680BC0B
:10093000704700BF80B489B000AF78604FF000030B
:10094000BB614FF000037B614FF00003FB614FF090
:1009500002033B614FF00003FB604FF00203BB60FA
:100960004FF46053C4F202039B6803F00C03BB61B5
:10097000BB69042B0AD0082B0FD0002B60D17A68FA
:100980004FF41053C0F2F403136060E07A6847F646
:100990004003C0F27D13136059E04FF46053C4F27A
:1009A00002035B6803F480034FEA9353FB604FF448
:1009B0006053C4F202035B6803F03F03BB60FB6853
:1009C000002B14D047F64003C0F27D13BA68B3FB86
:1009D000F2F24FF46053C4F20203596847F6C07351
:1009E0000B404FEA931303FB02F3FB6113E04FF458
:1009F0001053C0F2F403BA68B3FBF2F24FF4605341
:100A0000C4F20203596847F6C0730B404FEA9313D0
:100A100003FB02F3FB614FF46053C4F202035B6813
:100A200003F440334FEA134303F101034FEA430356
:100A30003B61FA693B69B2FBF3F27B681A6006E03E
:100A40007A684FF41053C0F2F403136000BF4FF400
:100A50006053C4F202039B6803F0F003BB61BB69FF
:100A60004FEA1313BB6140F25003C2F20003BA69AC
:100A70009B181B78DBB27B617B681A687B6922FA62
:100A800003F27B685A604FF46053C4F202039B6820
:100A900003F4E053BB61BB694FEA9323BB6140F2AF
:100AA0005003C2F20003BA699B181B78DBB27B616A
:100AB0007B685A687B6922FA03F27B689A604FF47C
:100AC0006053C4F202039B6803F46043BB61BB69DB
:100AD0004FEA5333BB6140F25003C2F20003BA69DC
:100AE0009B181B78DBB27B617B685A687B6922FAB2
:100AF00003F27B68DA6007F12407BD4680BC7047CB
:100B000080B483B000AF78600B46FB70FB78002B9D
:100B10000CD04FF46053C4F202034FF46052C4F29D
:100B20000202116B7A680A431A630DE04FF46053B6
:100B3000C4F202034FF46052C4F20202116B7A68ED
:100B40006FEA02020A401A6307F10C07BD4680BC37
:100B5000704700BF80B483B000AF78600B46FB7075
:100B6000FB78002B0CD04FF46053C4F202034FF417
:100B70006052C4F20202116C7A680A431A640DE0F2
:100B80004FF46053C4F202034FF46052C4F2020205
:100B9000116C7A686FEA02020A401A6407F10C07C6
:100BA000BD4680BC704700BF80B487B000AF78609E
:100BB00039604FF000037B614FF000033B614FF061
:100BC0000003FB604FF000037B6186E07B694FF020
:100BD000010202FA03F33B613B681A683B69134068
:100BE000FB60FA683B699A4273D17B681A687B693B
:100BF0004FEA43034FF0030101FA03F36FEA0303E3
:100C00001A407B681A607B681A683B681B79194632
:100C10007B694FEA430301FA03F31A437B681A60C6
:100C20003B681B79012B03D03B681B79022B34D125
:100C30007B689A687B694FEA43034FF0030101FA2E
:100C400003F36FEA03031A407B689A607B689A6833
:100C50003B685B7919467B694FEA430301FA03F36A
:100C60001A437B689A607B685A687B699BB24FF035
:100C7000010101FA03F36FEA03031A407B685A602B
:100C80007B685A683B689B7919467B699BB201FA7D
:100C900003F39BB21A437B685A607B68DA687B690E
:100CA0009BB24FEA43034FF0030101FA03F36FEAEB
:100CB00003031A407B68DA607B68DA683B68DB799B
:100CC00019467B694FEA430301FA03F31A437B6831
:100CD000DA607B6903F101037B617B690F2B7FF68F
:100CE00075AF07F11C07BD4680BC704780B483B068
:100CF00000AF78600B467B807B687A881A8307F1A7
:100D00000C07BD4680BC704780B483B000AF7860EC
:100D10000B467B807B687A885A8307F10C07BD46B7
:100D200080BC704780B483B000AF78600B467B8096
:100D30007B685A697B885A407B685A6107F10C07C7
:100D4000BD4680BC704700BF80B485B000AF7860FE
:100D500013460A467A807B704FF00003FB604FF029
:100D60000003BB607A787B8803F007034FEA8303B4
:100D700002FA03F3FB607B884FEAD3039BB21A4667
:100D80007B884FEAD3039BB219467B6801F10801C7
:100D900053F821107B8803F007034FEA83034FF0D9
:100DA0000F0000FA03F36FEA030319407B6802F1B6
:100DB000080243F822107B884FEAD3039BB21A46FD
:100DC0007B6802F1080253F82220FB681343BB60E2
:100DD0007B884FEAD3039BB21A467B6802F1080274
:100DE000B96843F8221007F11407BD4680BC70476C
:100DF00080B500AF4FF46053C4F202034FF4605269
:100E0000C4F20202126842F001021A604FF4605309
:100E1000C4F202034FF000029A604FF46053C4F230
:100E200002034FF46052C4F20202126822F084728C
:100E300022F480321A604FF46053C4F2020343F28A
:100E40001002C2F200425A604FF46053C4F202032F
:100E50004FF46052C4F20202126822F480221A6037
:100E60004FF46053C4F202034FF00002DA6000F066
:100E700009F84FF46D43CEF200034FF000629A6020
:100E800080BD00BF80B483B000AF4FF000037B6033
:100E90004FF000033B604FF46053C4F202034FF481
:100EA0006052C4F20202126842F480321A604FF4B7
:100EB0006053C4F202031B6803F400333B607B6899
:100EC00003F101037B603B68002B03D17B68B3F522
:100ED000A06FECD14FF46053C4F202031B6803F41B
:100EE0000033002B03D04FF001033B6002E04FF0D2
:100EF00000033B603B68012B40F082804FF460535D
:100F0000C4F202034FF46052C4F20202126C42F0C7
:100F100080521A644FF4E043C4F200034FF4E042FD
:100F2000C4F20002126842F480421A604FF4605327
:100F3000C4F202034FF46052C4F2020292689A6053
:100F40004FF46053C4F202034FF46052C4F2020241
:100F5000926842F400429A604FF46053C4F2020374
:100F60004FF46052C4F20202926842F4A0529A60B6
:100F70004FF46053C4F2020345F21942C0F24072CA
:100F80005A604FF46053C4F202034FF46052C4F24B
:100F90000202126842F080721A6000BF4FF4605380
:100FA000C4F202031B6803F00073002BF6D04FF469
:100FB0007053C4F2020340F205621A604FF46053AA
:100FC000C4F202034FF46052C4F20202926822F0AB
:100FD00003029A604FF46053C4F202034FF460526C
:100FE000C4F20202926842F002029A6000BF4FF41B
:100FF0006053C4F202039B6803F00C03082BF6D184
:1010000007F10C07BD4680BC704700BF80B485B0B7
:1010100000AF786039604FF00003FB607B681B68AD
:10102000FB60FA6848F23F03CFF21C031340FB60F9
:101030003B681A683B68DB681A433B685B691A4384
:101040003B689B691A433B68DB691A433B681B6A30
:101050001A433B685B6A1A433B689B6A1A433B68C6
:101060005B6B1A433B689B6B1343FA681343FB604B
:101070007B68FA681A607B685B69FB60FB6823F039
:101080000703FB603B68DA6A3B681B6B1343FA6833
:101090001343FB607B68FA685A613B681A697B6896
:1010A0005A603B685A687B689A603B689A687B68BC
:1010B000DA6007F11407BD4680BC704780B483B086
:1010C00000AF78607B684FF000021A607B684FF0D9
:1010D00000025A607B684FF000029A607B684FF014
:1010E0000002DA607B684FF000021A617B684FF003
:1010F00000025A617B684FF000029A617B684FF0F2
:101100000002DA617B684FF000021A627B684FF0E0
:1011100000025A627B684FF000029A627B684FF0CF
:101120000002DA627B684FF000021A637B684FF0BE
:1011300000025A637B684FF000029A6307F10C07C4
:10114000BD4680BC704700BF80B483B000AF7860FC
:101150000B46FB70FB78002B06D07B681B6843F0C6
:1011600001027B681A6005E07B681B6823F00102BE
:101170007B681A6007F10C07BD4680BC704700BF52
:1011800080B485B000AF78604FF00003FB737B68DC
:101190001B6803F00103002B03D04FF00103FB7326
:1011A00002E04FF00003FB73FB7B184607F11407C6
:1011B000BD4680BC704700BF80B487B000AF786088
:1011C00039604FF00003FB754FF00003FB607A6855
:1011D00046F20F43C4F202039A4205D84FF4C043CB
:1011E000C4F202033B6104E04FF4C843C4F20203BB
:1011F0003B613B6803F00053002B03D03B695B6805
:10120000FB6002E03B691B68FB60FB6823F0F02396
:1012100023F08213FB60FA683B681340002B03D075
:101220004FF00103FB7502E04FF00003FB75FB7DFF
:0C123000184607F11C07BD4680BC704743
:10123C00555341525420444D41204578616D706C9A
:10124C00653A20436F6D6D756E69636174696F6E7D
:10125C00206265747765656E2074776F20555341F5
:10126C005254207573696E6720444D410000000094
:10127C000000000000000000000000000000000062
:10128C000000000001020304010203040607080920
:0400000508000000EF
:00000001FF
