:020000040800F2
:100000003C080020ED0500085906000859060008C4
:1000100059060008590600085906000800000000AB
:100020000000000000000000000000005906000869
:10003000590600080000000059060008590600088B
:100040005906000859060008590600085906000814
:100050005906000859060008590600085906000804
:1000600059060008590600085906000859060008F4
:1000700059060008590600085906000859060008E4
:1000800059060008590600085906000859060008D4
:1000900059060008590600085906000859060008C4
:1000A00059060008590600085906000859060008B4
:1000B00059060008590600085906000859060008A4
:1000C0005906000859060008590600085906000894
:1000D000590600085906000859060008450E000890
:1000E0005906000859060008590600085906000874
:1000F0005906000859060008590600085906000864
:100100005906000859060008590600085906000853
:100110005906000859060008590600085906000843
:100120005906000859060008590600085906000833
:100130005906000859060008590600085906000823
:100140005906000859060008590600085906000813
:100150005906000859060008590600085906000803
:1001600059060008590600085906000859060008F3
:1001700059060008590600085906000859060008E3
:10018000590600085906000880B582B000AF7860B3
:100190007A684FF48053C4F201039A420CD14FF0B5
:1001A00010004FF0010101F001F84FF010004FF086
:1001B000000100F0FBFF62E07A684FF48843C4F26C
:1001C00000039A420CD14FF400304FF0010100F0CF
:1001D000C3FF4FF400304FF0000100F0BDFF4EE0D0
:1001E0007A684FF49043C4F200039A420CD14FF462
:1001F00080204FF0010100F0AFFF4FF480204FF05E
:10020000000100F0A9FF3AE07A684FF49843C4F285
:1002100000039A420CD14FF400204FF0010100F08E
:100220009BFF4FF400204FF0000100F095FF26E007
:100230007A684FF4A043C4F200039A420CD14FF401
:1002400080104FF0010100F087FF4FF480104FF055
:10025000000100F081FF12E07A684FF4A053C4F26D
:1002600001039A420BD14FF020004FF0010100F042
:100270009DFF4FF020004FF0000100F097FF07F1C5
:100280000807BD4680BD00BF80B58AB000AF78606A
:1002900039604FF000037B624FF000033B624FF088
:1002A0000003FB614FF00003BB617B681B8A9BB2BC
:1002B0007B627B6A23F440537B623B68DB887A6A0B
:1002C00013437B627B6A9AB27B681A827B689B8944
:1002D0009BB27B627B6A23F4B05323F00C037B62F6
:1002E0003B689A883B681B8913439AB23B685B89D9
:1002F00013439BB27A6A13437B627B6A9AB27B6830
:100300009A817B689B8A9BB27B627B6A23F44073F1
:100310007B623B689B897A6A13437B627B6A9AB2F1
:100320007B689A8207F10803184600F0B1FD7A68ED
:100330004FF48053C4F201039A4206D07A684FF416
:10034000A053C4F201039A4202D17B693B6201E0EF
:100350003B693B627B689B899BB29BB21BB2002BC3
:100360000FDA3A6A13464FEA83039B184FEA830277
:100370009A183B681B684FEA4303B2FBF3F3FB6137
:100380000EE03A6A13464FEA83039B184FEA830252
:100390009A183B681B684FEA8303B2FBF3F3FB61D7
:1003A000FA6948F21F53C5F2EB13A3FB02134FEA9D
:1003B00053134FEA03137B627B6A4FEA13134FF028
:1003C000640202FB03F3FA69D31ABB617B689B8961
:1003D0009BB29BB21BB2002B12DABB694FEAC3037C
:1003E00003F1320248F21F53C5F2EB13A3FB0213D1
:1003F0004FEA531303F007037A6A13437B6211E059
:10040000BB694FEA031303F1320248F21F53C5F2EE
:10041000EB13A3FB02134FEA531303F00F037A6AA3
:1004200013437B627B6A9AB27B681A8107F12807C3
:10043000BD4680BD80B485B000AF786039604FF0B4
:100440000003FB607B681B8A9BB2FB60FB6823F4A4
:100450007063FB603B681A883B685B8813439AB201
:100460003B689B8813439AB23B68DB8813439BB27B
:10047000FA681343FB60FB689AB27B681A8207F143
:100480001407BD4680BC704780B483B000AF78606D
:100490007B684FF000021A807B684FF000025A80A0
:1004A0007B684FF000029A807B684FF00002DA8090
:1004B00007F10C07BD4680BC704700BF80B483B015
:1004C00000AF78600B46FB70FB78002B08D07B6890
:1004D0009B899BB243F400539AB27B689A8107E0F0
:1004E0007B689B899BB223F400539AB27B689A8104
:1004F00007F10C07BD4680BC704700BF80B483B0D5
:1005000000AF786013460A467A807B707B78002BB8
:100510000BD07B689B8A9AB27B886FEA03039BB2FD
:1005200013409AB27B689A8207E07B689B8A9AB2F2
:100530007B8813439AB27B689A8207F10C07BD4609
:1005400080BC704780B485B000AF78600B467B807C
:100550004FF00003FB737B681B889AB27B881340C3
:100560009BB2002B03D04FF00103FB7302E04FF06E
:100570000003FB73FB7B184607F11407BD4680BCE4
:10058000704700BF80B483B000AF78600B467B80BB
:100590007B886FEA03039AB27B681A8007F10C0725
:1005A000BD4680BC704700BF80B485B000AF7860A6
:1005B0000B467B804FF00003FB814FF00003BB81B3
:1005C0007B884FEA1323FB81FB894FF0010202FA7B
:1005D00003F3BB81BB896FEA03039AB27B681A807D
:1005E00007F11407BD4680BC704700BF80B582B0DC
:1005F00000AF41F66463C0F600037B6040F2000385
:10060000C2F200033B600BE07B681A683B681A602B
:100610003B6803F104033B607B6803F104037B60E8
:100620003A6840F21003C2F200039A42ECD3084841
:1006300008494FF000028842B8BF40F8042BFFF68B
:10064000FAAF00F00DF807F10807BD4680BD0000C5
:10065000100000204000002080B400AFFEE700BF83
:1006600080B582B000AF00F0C9FF00F0B7FA4FF0DC
:10067000010000F065FB00F0FBFB0346FB7100F09E
:100680001DF800F09FFA00E000BF44F24020C0F2E5
:100690000F0000F0C1FB4FF0020000F087FB46F2B4
:1006A0005800C4F2020001F0BBFA0346072BEBD856
:1006B0004FF0000000F07AFBE6E700BF80B598B08D
:1006C00000AF4FF008004FF0010100F0C7FC4FF4FD
:1006D00080204FF0010100F0EBFC4FF44060C4F2C9
:1006E000020000F08DFD4FF44060C4F202004FF0B4
:1006F00008014FF0070200F02DFF4FF44060C4F2F4
:1007000002004FF009014FF0070200F023FF07F14C
:100710005803184600F0D2FE4FF0020387F85C3011
:100720004FF48073BB654FF0000387F85F304FF0E4
:10073000020387F85D3007F158034FF44060C4F2BC
:100740000200194600F018FE4FF0020387F85C30F3
:100750004FF40073BB654FF0000387F85F3007F17B
:1007600058034FF44060C4F20200194600F004FE42
:100770004FF49040C4F20000FFF706FD4FF49043A1
:10078000C4F200034FF49042C4F20002928A92B283
:1007900042F0100292B29A8207F140031846FFF726
:1007A00073FE07F140034FF49040C4F20000194675
:1007B000FFF740FE4FF41653BB644FF00003A7F859
:1007C0004C304FF00C03A7F852304FF00003A7F85D
:1007D0004E304FF00003A7F850304FF00003A7F859
:1007E000543007F148034FF49040C4F2000019461A
:1007F000FFF74AFD4FF49043C4F200034FF49042D8
:10080000C4F20002928992B222F4F87292B29A81F2
:100810004FF49043C4F200034FF49042C4F200023C
:10082000128A92B222F0400292B21A824FF490439E
:10083000C4F200034FF49042C4F20002928A92B2D2
:1008400022F4806222F0010292B29A824FF40010E8
:100850004FF0010100F002FC46F25800C4F2020021
:1008600000F0DAFF07F10403184601F04FF94FF0EA
:1008700000637B6044F60403C4F20003BB6040F2F3
:100880001003C2F20003FB604FF040033B614FF0E6
:1008900008037B614FF00003BB614FF48063FB6191
:1008A0004FF000033B624FF000037B624FF0000308
:1008B000BB624FF44033FB624FF004033B634FF0E5
:1008C0000003FB634FF08073BB634FF001037B6356
:1008D00007F1040346F25800C4F20200194601F081
:1008E000BDF846F25800C4F202004FF0000101F0DA
:1008F0006FF946F25800C4F202004FF0080101F00F
:1009000081F94FF49040C4F200004FF040014FF0E5
:100910000002FFF7F3FD4FF027033B704FF0010398
:10092000FB704FF00F037B703B46184601F028FA2E
:100930004FF49040C4F2000040F22661FFF734FE0D
:100940004FF49040C4F200004FF00101FFF7B6FDF4
:1009500007F16007BD4680BD90B585B000AF034686
:100960003960FB804FF00003FB603B684FF00102F1
:100970001A703B6803F101033B603B684FF00202D1
:100980001A703B6803F101033B603B684FF00302C0
:100990001A703B6803F101033B603B684FF00402AF
:1009A0001A703B6803F101033B603B684FF005029E
:1009B0001A703B6803F101033B603B684FF006028D
:1009C0001A703B6803F101033B603B684FF007027C
:1009D0001A703B6803F101033B603B684FF008026B
:1009E0001A703B6803F101033B603B684FF009025A
:1009F0001A70FB8803F107039BB246F25800C4F259
:100A00000200194601F0FEF84FF49040C4F20000D5
:100A100040F22661FFF7C8FD46F25800C4F202001A
:100A20004FF0C05101F07CF94FF49040C4F2000047
:100A30004FF04001FFF786FD0346002B03D14FF036
:100A4000020000F047F946F25800C4F202004FF0ED
:100A5000010101F0A1F803E04FF0020000F0A6F957
:100A600046F25800C4F2020001F0E8F80346012BF8
:100A7000F2D146F25800C4F2020001F0FBF803463E
:100A8000102B03D14FF0010000F024F94FF49040F7
:100A9000C4F200004FF080014FF00102FFF72EFD7D
:100AA00046F25800C4F202004FF0905101F0F6F8FF
:100AB0000346012B14BF00230123DCB246F2580089
:100AC000C4F202004FF0885101F0E8F80346012B10
:100AD00014BF00230123DBB22343DBB21C4646F2E2
:100AE0005800C4F202004FF0825101F0D7F80346DB
:100AF000012B14BF00230123DBB22343002B03D0BF
:100B00004FF0030000F0E6F800BF4FF49040C4F24D
:100B100000004FF04001FFF715FD0346002BF4D015
:100B200043E046F25800C4F202004FF0905101F049
:100B3000B5F80346012B14BF00230123DCB246F2B3
:100B40005800C4F202004FF0885101F0A7F80346A4
:100B5000012B14BF00230123DBB22343DBB21C466D
:100B600046F25800C4F202004FF0825101F096F8AC
:100B70000346012B14BF00230123DBB22343002BC8
:100B800003D04FF0030000F0A5F846F25803C4F27A
:100B900002035B68FB604FF0030000F007F944F2CA
:100BA0004020C0F20F0000F037F946F25800C4F2BE
:100BB000020001F035F80346082BB2D007F1140704
:100BC000BD4690BD80B500AF4FF0010040F210016E
:100BD000C2F20001FFF7C0FE80BD00BF80B584B047
:100BE00000AF4FF020004FF0010100F037FA07F19D
:100BF0000403FB60FB684FF080021A60FB684FF053
:100C000001021A71FB684FF00102DA71FB684FF0C4
:100C100000029A71FB684FF002025A714FF4A05023
:100C2000C4F20200F96800F0A7FBFB684FF4807281
:100C30001A60FB684FF001021A71FB684FF0010265
:100C4000DA71FB684FF000029A71FB684FF0020204
:100C50005A714FF4A050C4F20200F96800F08CFB06
:100C6000FB684FF400721A60FB684FF001021A71C2
:100C7000FB684FF00102DA71FB684FF000029A71D5
:100C8000FB684FF002025A714FF4A050C4F2020008
:100C9000F96800F071FBFB684FF040021A60FB68D6
:100CA0004FF001021A71FB684FF00102DA71FB6824
:100CB0004FF000029A71FB684FF002025A714FF434
:100CC000A050C4F20200F96800F056FB07F11007CB
:100CD000BD4680BD80B582B000AF0346FB71FB7995
:100CE000012B07D14FF4A050C4F202004FF48071E1
:100CF00000F002FCFB79022B07D14FF4A050C4F2A4
:100D000002004FF0800100F0F7FBFB79002B07D1C8
:100D10004FF4A050C4F202004FF0400100F0ECFB91
:100D2000FB79032B07D14FF4A050C4F202004FF41B
:100D3000007100F0E1FB07F10807BD4680BD00BF70
:100D400080B582B000AF0346FB71FB79012B07D160
:100D50004FF4A050C4F202004FF4807100F0DAFBAF
:100D6000FB79022B07D14FF4A050C4F202004FF0E0
:100D7000800100F0CFFBFB79002B07D14FF4A0508E
:100D8000C4F202004FF0400100F0C4FBFB79032BDA
:100D900007D14FF4A050C4F202004FF4007100F0EC
:100DA000B9FB07F10807BD4680BD00BF80B582B022
:100DB00000AF0346FB71FB79012B07D14FF4A05024
:100DC000C4F202004FF4807100F0B2FBFB79022BF9
:100DD00007D14FF4A050C4F202004FF0800100F0A0
:100DE000A7FBFB79002B07D14FF4A050C4F20200FF
:100DF0004FF0400100F09CFBFB79032B07D14FF42F
:100E0000A050C4F202004FF4007100F091FB07F112
:100E10000807BD4680BD00BF80B483B000AF7860D6
:100E200000BF7B68002B0CBF00220122D2B203F16D
:100E3000FF337B60002AF4D107F10C07BD4680BC6C
:100E4000704700BF80B500AF4FF49040C4F200007F
:100E50004FF04001FFF796FB44F24020C0F20F0034
:100E6000FFF7DAFF4FF00100FFF7A0FF80BD00BFE2
:100E700080B400AF4FF46053C4F202039B68DBB24E
:100E800003F00C03DBB21846BD4680BC704700BFC0
:100E900080B489B000AF78604FF00003BB614FF0C1
:100EA00000037B614FF00003FB614FF002033B61E5
:100EB0004FF00003FB604FF00203BB604FF4605340
:100EC000C4F202039B6803F00C03BB61BB69042BF3
:100ED0000AD0082B0FD0002B60D17A684FF4105342
:100EE000C0F2F403136060E07A6847F64003C0F292
:100EF0007D13136059E04FF46053C4F202035B6842
:100F000003F480034FEA9353FB604FF46053C4F241
:100F100002035B6803F03F03BB60FB68002B14D047
:100F200047F64003C0F27D13BA68B3FBF2F24FF408
:100F30006053C4F20203596847F6C0730B404FEA8E
:100F4000931303FB02F3FB6113E04FF41053C0F261
:100F5000F403BA68B3FBF2F24FF46053C4F2020335
:100F6000596847F6C0730B404FEA931303FB02F333
:100F7000FB614FF46053C4F202035B6803F4403337
:100F80004FEA134303F101034FEA43033B61FA695C
:100F90003B69B2FBF3F27B681A6006E07A684FF4B3
:100FA0001053C0F2F403136000BF4FF46053C4F257
:100FB00002039B6803F0F003BB61BB694FEA1313A4
:100FC000BB6140F20003C2F20003BA699B181B78B0
:100FD000DBB27B617B681A687B6922FA03F27B686B
:100FE0005A604FF46053C4F202039B6803F4E05369
:100FF000BB61BB694FEA9323BB6140F20003C2F2BD
:101000000003BA699B181B78DBB27B617B685A6866
:101010007B6922FA03F27B689A604FF46053C4F252
:1010200002039B6803F46043BB61BB694FEA53331F
:10103000BB6140F20003C2F20003BA699B181B783F
:10104000DBB27B617B685A687B6922FA03F27B68BA
:10105000DA6007F12407BD4680BC704780B483B0D6
:1010600000AF78600B46FB70FB78002B0CD04FF480
:101070006053C4F202034FF46052C4F20202116BD7
:101080007A680A431A630DE04FF46053C4F2020316
:101090004FF46052C4F20202116B7A686FEA0202E6
:1010A0000A401A6307F10C07BD4680BC704700BFB9
:1010B00080B483B000AF78600B46FB70FB78002BE8
:1010C0000CD04FF46053C4F202034FF46052C4F2E8
:1010D0000202116C7A680A431A640DE04FF46053FF
:1010E000C4F202034FF46052C4F20202116C7A6837
:1010F0006FEA02020A401A6407F10C07BD4680BC81
:10110000704700BF80B483B000AF78600B46FB70BF
:10111000FB78002B0CD04FF46053C4F202034FF461
:101120006052C4F2020211697A680A431A610DE042
:101130004FF46053C4F202034FF46052C4F202024F
:1011400011697A686FEA02020A401A6107F10C0716
:10115000BD4680BC704700BF80B483B000AF7860EC
:101160000B46FB70FB78002B0CD04FF46053C4F29D
:1011700002034FF46052C4F20202116A7A680A4311
:101180001A620DE04FF46053C4F202034FF4605250
:10119000C4F20202116A7A686FEA02020A401A6215
:1011A00007F10C07BD4680BC704700BF80B483B018
:1011B00000AF78600B46FB70FB78002B0CD04FF42F
:1011C0006053C4F202034FF46052C4F20202516A47
:1011D0007A680A435A620DE04FF46053C4F2020386
:1011E0004FF46052C4F20202516A7A686FEA020256
:1011F0000A405A6207F10C07BD4680BC704700BF29
:1012000080B582B000AF78607A684FF00003C4F216
:1012100002039A420CD14FF001004FF00101FFF799
:1012200071FF4FF001004FF00001FFF76BFF9EE0F0
:101230007A684FF48063C4F202039A420CD14FF0F3
:1012400002004FF00101FFF75DFF4FF002004FF089
:101250000001FFF757FF8AE07A684FF40063C4F299
:1012600002039A420CD14FF004004FF00101FFF746
:1012700049FF4FF004004FF00001FFF743FF76E015
:101280007A684FF44063C4F202039A420CD14FF0E3
:1012900008004FF00101FFF735FF4FF008004FF055
:1012A0000001FFF72FFF62E07A684FF48053C4F229
:1012B00002039A420CD14FF010004FF00101FFF7EA
:1012C00021FF4FF010004FF00001FFF71BFF4EE031
:1012D0007A684FF4A053C4F202039A420CD14FF043
:1012E00020004FF00101FFF70DFF4FF020004FF0FD
:1012F0000001FFF707FF3AE07A684FF4C053C4F2E9
:1013000002039A420CD14FF040004FF00101FFF769
:10131000F9FE4FF040004FF00001FFF7F3FE26E02A
:101320007A684FF4E053C4F202039A420CD14FF0B2
:1013300080004FF00101FFF7E5FE4FF080004FF015
:101340000001FFF7DFFE12E07A684FF40053C4F2A9
:1013500002039A420BD14FF480704FF00101FFF766
:10136000D1FE4FF480704FF00001FFF7CBFE07F184
:101370000807BD4680BD00BF80B487B000AF78606D
:1013800039604FF000037B614FF000033B614FF089
:101390000003FB604FF000037B6186E07B694FF048
:1013A000010202FA03F33B613B681A683B69134090
:1013B000FB60FA683B699A4273D17B681A687B6963
:1013C0004FEA43034FF0030101FA03F36FEA03030B
:1013D0001A407B681A607B681A683B681B7919465B
:1013E0007B694FEA430301FA03F31A437B681A60EF
:1013F0003B681B79012B03D03B681B79022B34D14E
:101400007B689A687B694FEA43034FF0030101FA56
:1014100003F36FEA03031A407B689A607B689A685B
:101420003B685B7919467B694FEA430301FA03F392
:101430001A437B689A607B685A687B699BB24FF05D
:10144000010101FA03F36FEA03031A407B685A6053
:101450007B685A683B689B7919467B699BB201FAA5
:1014600003F39BB21A437B685A607B68DA687B6936
:101470009BB24FEA43034FF0030101FA03F36FEA13
:1014800003031A407B68DA607B68DA683B68DB79C3
:1014900019467B694FEA430301FA03F31A437B6859
:1014A000DA607B6903F101037B617B690F2B7FF6B7
:1014B00075AF07F11C07BD4680BC704780B483B090
:1014C00000AF78607B684FF6FF721A607B684FF060
:1014D00000021A717B684FF000025A717B684FF06E
:1014E00000029A717B684FF00002DA7107F10C0775
:1014F000BD4680BC704700BF80B483B000AF786049
:101500000B467B807B687A881A8307F10C07BD46FF
:1015100080BC704780B483B000AF78600B467B809E
:101520007B687A885A8307F10C07BD4680BC7047F8
:1015300080B483B000AF78600B467B807B685A69CB
:101540007B885A407B685A6107F10C07BD4680BC16
:10155000704700BF80B485B000AF786013460A467C
:101560007A807B704FF00003FB604FF00003BB609C
:101570007A787B8803F007034FEA830302FA03F3C8
:10158000FB607B884FEAD3039BB21A467B884FEA05
:10159000D3039BB219467B6801F1080153F821106F
:1015A0007B8803F007034FEA83034FF00F0000FA34
:1015B00003F36FEA030319407B6802F1080243F862
:1015C00022107B884FEAD3039BB21A467B6802F154
:1015D000080253F82220FB681343BB607B884FEA64
:1015E000D3039BB21A467B6802F10802B96843F83C
:1015F000221007F11407BD4680BC704780B500AFCC
:101600004FF46053C4F202034FF46052C4F202027A
:10161000126842F001021A604FF46053C4F20203F0
:101620004FF000029A604FF46053C4F202034FF48B
:101630006052C4F20202126822F0847222F48032F4
:101640001A604FF46053C4F2020343F21002C2F274
:1016500000425A604FF46053C4F202034FF46052E8
:10166000C4F20202126822F480221A604FF460531E
:10167000C4F202034FF00002DA6000F009F84FF400
:101680006D43CEF200034FF000629A6080BD00BF50
:1016900080B483B000AF4FF000037B604FF00003D5
:1016A0003B604FF46053C4F202034FF46052C4F243
:1016B0000202126842F480321A604FF46053C4F29E
:1016C00002031B6803F400333B607B6803F10103F2
:1016D0007B603B68002B03D17B68B3F5A06FECD136
:1016E0004FF46053C4F202031B6803F40033002B71
:1016F00003D04FF001033B6002E04FF000033B607A
:101700003B68012B40F082804FF46053C4F2020327
:101710004FF46052C4F20202126C42F080521A641A
:101720004FF4E043C4F200034FF4E042C4F200027D
:10173000126842F480421A604FF46053C4F202030C
:101740004FF46052C4F2020292689A604FF4605300
:10175000C4F202034FF46052C4F20202926842F4EF
:1017600000429A604FF46053C4F202034FF4605297
:10177000C4F20202926842F4A0529A604FF460539D
:10178000C4F2020345F21942C0F240725A604FF4AB
:101790006053C4F202034FF46052C4F202021268B2
:1017A00042F080721A6000BF4FF46053C4F202032B
:1017B0001B6803F00073002BF6D04FF47053C4F293
:1017C000020340F205621A604FF46053C4F2020350
:1017D0004FF46052C4F20202926822F003029A604F
:1017E0004FF46053C4F202034FF46052C4F2020299
:1017F000926842F002029A6000BF4FF46053C4F254
:1018000002039B6803F00C03082BF6D107F10C07C9
:10181000BD4680BC704700BF80B483B000AF786025
:101820007B681B6823F001027B681A607B684FF0BD
:1018300000021A607B684FF000025A607B684FF02C
:1018400000029A607B684FF00002DA607B684FF01C
:1018500000021A617B684FF021025A617A6846F2F1
:101860001003C4F202039A4207D14FF4C043C4F2FA
:1018700002034FF03D029A60EBE07A6846F22803DB
:10188000C4F202039A4207D14FF4C043C4F20203E8
:101890004FF474629A60DCE07A6846F24003C4F266
:1018A00002039A4207D14FF4C043C4F202034FF43B
:1018B00074129A60CDE07A6846F25803C4F20203CB
:1018C0009A4207D14FF4C043C4F202034FF074624E
:1018D0009A60BEE07A6846F27003C4F202039A424C
:1018E00009D14FF4C043C4F202034FF03D02C2F2EB
:1018F0000002DA60ADE07A6846F28803C4F20203BF
:101900009A4209D14FF4C043C4F202034FF4746207
:10191000C2F20002DA609CE07A6846F2A003C4F2E8
:1019200002039A4209D14FF4C043C4F202034FF0BC
:101930000002C2F23D02DA608BE07A6846F2B80338
:10194000C4F202039A4207D14FF4C043C4F2020327
:101950004FF03D52DA607CE07A6846F21043C4F200
:1019600002039A4207D14FF4C843C4F202034FF076
:101970003D029A606DE07A6846F22843C4F20203A1
:101980009A4207D14FF4C843C4F202034FF4746281
:101990009A605EE07A6846F24043C4F202039A42DB
:1019A00007D14FF4C843C4F202034FF474129A6093
:1019B0004FE07A6846F25843C4F202039A4207D1D4
:1019C0004FF4C843C4F202034FF074629A6040E0DF
:1019D0007A6846F27043C4F202039A4209D14FF486
:1019E000C843C4F202034FF03D02C2F20002DA60C3
:1019F0002FE07A6846F28843C4F202039A4209D182
:101A00004FF4C843C4F202034FF47462C2F20002FE
:101A1000DA601EE07A6846F2A043C4F202039A42FA
:101A200009D14FF4C843C4F202034FF00002C2F2DE
:101A30003D02DA600DE07A6846F2B843C4F2020370
:101A40009A4206D14FF4C843C4F202034FF03D520C
:101A5000DA6007F10C07BD4680BC704780B485B0E2
:101A600000AF786039604FF00003FB607B681B6853
:101A7000FB60FA6848F23F03CFF21C031340FB609F
:101A80003B681A683B68DB681A433B685B691A432A
:101A90003B689B691A433B68DB691A433B681B6AD6
:101AA0001A433B685B6A1A433B689B6A1A433B686C
:101AB0005B6B1A433B689B6B1343FA681343FB60F1
:101AC0007B68FA681A607B685B69FB60FB6823F0DF
:101AD0000703FB603B68DA6A3B681B6B1343FA68D9
:101AE0001343FB607B68FA685A613B681A697B683C
:101AF0005A603B685A687B689A603B689A687B6862
:101B0000DA6007F11407BD4680BC704780B483B02B
:101B100000AF78607B684FF000021A607B684FF07E
:101B200000025A607B684FF000029A607B684FF0B9
:101B30000002DA607B684FF000021A617B684FF0A8
:101B400000025A617B684FF000029A617B684FF097
:101B50000002DA617B684FF000021A627B684FF086
:101B600000025A627B684FF000029A627B684FF075
:101B70000002DA627B684FF000021A637B684FF064
:101B800000025A637B684FF000029A6307F10C076A
:101B9000BD4680BC704700BF80B483B000AF7860A2
:101BA0000B46FB70FB78002B06D07B681B6843F06C
:101BB00001027B681A6005E07B681B6823F0010264
:101BC0007B681A6007F10C07BD4680BC704700BFF8
:101BD00080B483B000AF786039603B68002B06D0DA
:101BE0007B681B6843F020027B681A6005E07B6815
:101BF0001B6823F020027B681A6007F10C07BD46C2
:101C000080BC704780B483B000AF78600B467B80A7
:101C10007A887B685A6007F10C07BD4680BC704724
:101C200080B483B000AF78607B685B689BB2184675
:101C300007F10C07BD4680BC704700BF80B485B07B
:101C400000AF78604FF00003FB737B681B6803F004
:101C50000103002B03D04FF00103FB7302E04FF0B0
:101C60000003FB73FB7B184607F11407BD4680BCDD
:101C7000704700BF80B485B000AF78604FF00003BC
:101C8000FB607B685B6903F03803FB60FB68184608
:101C900007F11407BD4680BC704700BF80B487B011
:101CA00000AF786039604FF00003FB754FF0000320
:101CB000FB607A6846F20F43C4F202039A4205D8E9
:101CC0004FF4C043C4F202033B6104E04FF4C84345
:101CD000C4F202033B613B6803F00053002B03D0C6
:101CE0003B695B68FB6002E03B691B68FB60FB686B
:101CF00023F0F02323F08213FB60FA683B68134063
:101D0000002B03D04FF00103FB7502E04FF00003FE
:101D1000FB75FB7D184607F11C07BD4680BC70476C
:101D200080B485B000AF786039607A6846F20F43BE
:101D3000C4F202039A4205D84FF4C043C4F202032E
:101D4000FB6004E04FF4C843C4F20203FB603B684D
:101D500003F00053002B07D03B6823F0F02323F05F
:101D60008213FA68D36006E03B6823F0F02323F087
:101D70008213FA68936007F11407BD4680BC704770
:101D800080B485B000AF78604FF00003FB734FF074
:101D90000003BB734FF00F037B737B68DB78002B72
:101DA00045D04FF46D43CEF20003DB686FEA0303C6
:101DB00003F4E0634FEA1323FB73FB7BC3F10403DB
:101DC000BB737A7BFB7B42FA03F37B737B685B78A4
:101DD0001A46BB7B02FA03F3FB737B689A787B7B22
:101DE0001340DAB2FB7B1343FB73FB7B4FEA031315
:101DF000FB734FF46143CEF200037A6812789B18AC
:101E0000FA7B83F800234FF46143CEF200037A6833
:101E100012784FEA5212D2B27968097801F01F01A4
:101E20004FF0010000FA01F143F8221014E04FF4E2
:101E30006143CEF200037A6812784FEA5212D2B2AE
:101E40007968097801F01F014FF0010000FA01F1F3
:101E500002F1200243F8221007F11407BD4680BCAE
:041E6000704700BF08
:101E6400000000000102030401020304060708093C
:0400000508000000EF
:00000001FF
