:020000040800F2
:100000006C09002065040008D1040008D104000830
:10001000D1040008D1040008D10400080000000049
:10002000000000000000000000000000D1040008F3
:10003000D104000800000000D1040008D104000829
:10004000D1040008D1040008D1040008D10400083C
:10005000D1040008D1040008D1040008D10400082C
:10006000D1040008D1040008D1040008D10400081C
:10007000D1040008D1040008D1040008D10400080C
:10008000D1040008D1040008D1040008D1040008FC
:10009000D1040008D1040008D1040008D1040008EC
:1000A000D1040008D1040008D1040008D1040008DC
:1000B000D1040008D1040008D1040008D1040008CC
:1000C000D1040008D1040008D1040008D1040008BC
:1000D000D1040008D1040008D1040008D1040008AC
:1000E000D1040008D1040008D1040008D10400089C
:1000F000D1040008D1040008D1040008D10400088C
:10010000D1040008D1040008D1040008D10400087B
:10011000D1040008D1040008D1040008D10400086B
:10012000D1040008AD080008D1040008D10400087B
:10013000D1040008D1040008D1040008D10400084B
:10014000D1040008D1040008D1040008D10400083B
:10015000D1040008D1040008D1040008D10400082B
:10016000D1040008D1040008D1040008D10400081B
:10017000D1040008D1040008D1040008D10400080B
:10018000D1040008D104000880B58AB000AF7860BF
:1001900039604FF000037B624FF000033B624FF089
:1001A0000003FB614FF00003BB617B681B8A9BB2BD
:1001B0007B627B6A23F440537B623B68DB887A6A0C
:1001C00013437B627B6A9AB27B681A827B689B8945
:1001D0009BB27B627B6A23F4B05323F00C037B62F7
:1001E0003B689A883B681B8913439AB23B685B89DA
:1001F00013439BB27A6A13437B627B6A9AB27B6831
:100200009A817B689B8A9BB27B627B6A23F44073F2
:100210007B623B689B897A6A13437B627B6A9AB2F2
:100220007B689A8207F10803184600F089FF7A6814
:100230004FF48053C4F201039A4206D07A684FF417
:10024000A053C4F201039A4202D17B693B6201E0F0
:100250003B693B627B689B899BB29BB21BB2002BC4
:100260000FDA3A6A13464FEA83039B184FEA830278
:100270009A183B681B684FEA4303B2FBF3F3FB6138
:100280000EE03A6A13464FEA83039B184FEA830253
:100290009A183B681B684FEA8303B2FBF3F3FB61D8
:1002A000FA6948F21F53C5F2EB13A3FB02134FEA9E
:1002B00053134FEA03137B627B6A4FEA13134FF029
:1002C000640202FB03F3FA69D31ABB617B689B8962
:1002D0009BB29BB21BB2002B12DABB694FEAC3037D
:1002E00003F1320248F21F53C5F2EB13A3FB0213D2
:1002F0004FEA531303F007037A6A13437B6211E05A
:10030000BB694FEA031303F1320248F21F53C5F2EF
:10031000EB13A3FB02134FEA531303F00F037A6AA4
:1003200013437B627B6A9AB27B681A8107F12807C4
:10033000BD4680BD80B483B000AF78600B46FB70D3
:10034000FB78002B08D07B689B899BB243F4005359
:100350009AB27B689A8107E07B689B899BB223F401
:1003600000539AB27B689A8107F10C07BD4680BCA6
:10037000704700BF80B483B000AF786013460A4670
:100380007A807B707B78002B08D07B689B8A9AB23E
:100390007B8813439AB27B689A820AE07B689B8AC7
:1003A0009AB27B886FEA03039BB213409AB27B68D0
:1003B0009A8207F10C07BD4680BC704780B485B0B7
:1003C00000AF78600B467B804FF00003FB737B68C7
:1003D0001B889AB27B8813409BB2002B03D04FF04E
:1003E0000103FB7302E04FF00003FB73FB7B184635
:1003F00007F11407BD4680BC704700BF80B483B0CE
:1004000000AF78600B467B807B886FEA03039AB26B
:100410007B681A8007F10C07BD4680BC704700BF9F
:1004200080B485B000AF78600B467B804FF000034E
:10043000FB814FF00003BB817B884FEA1323FB81D4
:10044000FB894FF0010202FA03F3BB81BB896FEA1B
:1004500003039AB27B681A8007F11407BD4680BC7B
:10046000704700BF80B582B000AF41F64833C0F698
:1004700000037B6040F20003C2F200033B600BE02C
:100480007B681A683B681A603B6803F104033B60B1
:100490007B6803F104037B603A6840F22403C2F2F4
:1004A00000039A42ECD3084808494FF00002884202
:1004B000B8BF40F8042BFFF6FAAF00F00DF807F1D3
:1004C0000807BD4680BD0000240000206C0100200C
:1004D00080B400AFFEE700BF80B582B000AF40F24D
:1004E0006C03C2F200034FF000021A6001F074F8CE
:1004F00000F02EFD4FF0010000F0DCFD00F010FEDA
:100500000346FB71FB79082B03D14FF0000000F08C
:100510009BFD00F025F846F22840C4F202004FF09F
:10052000140101F0DBF946F22840C4F202004FF05A
:10053000010101F0B7F900BF46F22840C4F2020001
:1005400001F0DAF90346012BF6D14FF4A050C4F2C2
:1005500001004FF040014FF00102FFF70BFFFEE7F3
:1005600080B588B000AF4FF004004FF0010100F0FB
:10057000CDFE4FF040004FF0010100F0C7FE4FF0FC
:1005800020004FF0010100F0EBFE4FF480004FF02F
:10059000010100F0BBFE4FF40060C4F202004FF016
:1005A00006014FF0080200F0C3FF4FF4C050C4F240
:1005B00002004FF009014FF0080200F0B9FF4FF0C0
:1005C00002033B734FF002037B734FF00003FB7396
:1005D0004FF04003BB6007F108034FF40060C4F222
:1005E0000200194600F0E6FE4FF40073BB6007F10D
:1005F00008034FF4C050C4F20200194600F0DAFEBE
:100600004FF4E1233B614FF00003BB824FF0000346
:10061000FB824FF000033B834FF00003BB834FF09E
:100620000C037B8307F110034FF4A050C4F20100C8
:100630001946FFF7A9FD40F22C13C2F200034FF058
:100640000002DA6240F22C13C2F200034FF0000203
:100650001A6340F22C13C2F200034FF000025A63F7
:1006600040F22C13C2F200034FF000021A6240F273
:100670002C13C2F200034FF480629A6140F22C13F3
:10068000C2F200034FF480725A6240F22C13C2F29D
:10069000000341F20442C4F201025A6040F22C13FA
:1006A000C2F200034FF000029A6340F22C13C2F230
:1006B00000034FF00002DA6140F22C13C2F2000393
:1006C0004FF000025A6140F22C13C2F200034FF4C3
:1006D00000329A6240F22C13C2F200034FF00A0279
:1006E0001A6140F22C13C2F200034FF020621A602C
:1006F00040F22C13C2F200034FF04002DA6040F2E5
:100700000002C2F2000240F22C13C2F200039A600F
:1007100046F2A040C4F2020040F22C11C2F20001E5
:1007200001F068F840F22C13C2F200034FF01402FB
:100730001A6140F22C13C2F200034FF020621A60DB
:1007400040F22C13C2F200034FF00002DA6040F2D4
:100750002402C2F2000240F22C13C2F200039A609B
:1007600046F22840C4F2020040F22C11C2F200010D
:1007700001F040F84FF047033B714FF00103FB716C
:100780004FF00D037B7107F10403184601F06AF97D
:100790004FF4A050C4F2010040F22661FFF740FE82
:1007A0004FF4A050C4F2010040F22551FFF738FE8B
:1007B0004FF4A050C4F201004FF00101FFF7BAFD61
:1007C0004FF039033B714FF00103FB714FF0000311
:1007D0007B714FF00003BB7107F10403184601F071
:1007E00041F946F22840C4F202004FF40841C1F238
:1007F000000101F007F946F22840C4F202004FF070
:1008000010014FF0010201F0C3F807F12007BD46C7
:1008100080BD00BF80B487B000AF78600B467B809E
:1008200048F208433B824FF00003FB824FF0000385
:10083000FB734FF000037B754FF000037B824FF09A
:1008400000037B8226E07B8A7A68D3181B781A46DD
:10085000FB8A5340FB824FF000037B7513E0FB8A59
:10086000DBB203F00103FB73FB8A4FEA5303FB8205
:10087000FB7B002B03D0FA8A3B8A5340FB827B7DB3
:1008800003F101037B757B7D072BE8D97B8A03F19C
:1008900001037B827A8A7B889A42D4D3FB8A1846EA
:1008A00007F11C07BD4680BC704700BF90B58BB0F8
:1008B00000AF46F22840C4F202004FF40061C1F2DA
:1008C000000101F035F846F22840C4F202004FF072
:1008D000140101F003F8B44B3B62B44BFB61B44B21
:1008E000BB61B44B7B61B44B3B61B44BFB60B44B1D
:1008F000BB6040F26C03C2F200034FF000021A60CA
:100900004FF4A050C4F201004FF00801FFF756FD6C
:100910000346012B0CBF00230123DCB24FF4A0508F
:10092000C4F201004FF00401FFF748FD0346012B1C
:1009300014BF00230123DBB22343DBB21C464FF478
:10094000A050C4F201004FF00201FFF737FD03464B
:10095000012B14BF00230123DBB21C434FF4A05032
:10096000C4F201004FF00101FFF728FD0346012BFF
:1009700014BF00230123DBB22343002B00F0CE82FF
:1009800040F22403C2F200031B78482B40F0AB82F4
:1009900040F22403C2F200039B78FB7140F224036F
:1009A000C2F200035B7C4FEA03239AB240F22403B5
:1009B000C2F200039B7C13439BB2BB80FB799BB2CA
:1009C00003F102039BB27F481946FFF723FF03465A
:1009D000BA889A4240F09F8240F22403C2F2000398
:1009E0005A7840F26813C2F200031A7040F22403EE
:1009F000C2F200035B7803F00F030F2B00F28B822F
:100A000001A252F823F000BF490A0008170B0008A2
:100A10009F0B0008470C0008890C0008FF0C000819
:100A2000870D0008550E0008650E0008750E0008B9
:100A3000850E0008950E0008A50E0008B50E0008EA
:100A4000C50E0008D50E00084FF0000387F82730C8
:100A500032E097F8273003F1030240F22403C2F298
:100A600000039A5C3B6A1A703B6A03F101033B6224
:100A700097F8273003F1070240F22403C2F2000383
:100A80009A5CFB691A70FB6903F10103FB6197F83B
:100A9000273003F10B0240F22403C2F200039A5CF8
:100AA000BB691A70BB6903F10103BB6197F827307A
:100AB00003F1010387F8273097F82730032BC8D9B3
:100AC00040F21C13C2F200031B78002B1BD040F233
:100AD0007803C2F200034FF000021A6040F278037C
:100AE000C2F200034FF000025A6040F22413C2F237
:100AF00000034FF000021A6040F27003C2F20003DC
:100B00004FF000021A6040F21C13C2F200034FF0D3
:100B100000021A7002E24FF0000387F8273032E03B
:100B200097F8273003F1030240F22403C2F20003D6
:100B30009A5C7B691A707B6903F101037B6197F80A
:100B4000273003F1070240F22403C2F200039A5C4B
:100B50003B691A703B6903F101033B6197F8273049
:100B600003F10B0240F22403C2F200039A5CBB695A
:100B70001A70BB6903F10103BB6197F8273003F1D9
:100B8000010387F8273097F82730032BC8D940F2A4
:100B90001C13C2F200034FF001021A70BEE14FF0C5
:100BA000000387F8273042E054000020580000205E
:100BB0005C00002060000020640000204C00002049
:100BC000500000202500002097F8273003F1030291
:100BD00040F22403C2F200039A5CFB681A70FB68BF
:100BE00003F10103FB6097F8273003F1070240F29D
:100BF0002403C2F200039A5CBB681A70BB6803F15D
:100C00000103BB6097F8273003F10B0240F2240385
:100C1000C2F200039A5CBB691A70BB6903F101035D
:100C2000BB6197F8273003F1010387F8273097F865
:100C30002730032BC8D940F21C13C2F200034FF037
:100C400007021A706AE140F21C13C2F200034FF06F
:100C500003021A7040F20C03C2F200031B6803F196
:100C6000010240F20C03C2F200031A6040F20C03CE
:100C7000C2F200031B68B3F57A7F40F24E814FF059
:100C8000000000F017FA48E140F21C13C2F2000322
:100C90001B78042B2BD040F27803C2F200034FF0F4
:100CA00000021A6040F27803C2F200034FF0000223
:100CB0005A6040F2A003C2F200031A6E40F23803F9
:100CC000C2F200035A6240F2A003C2F200031A6E9D
:100CD00040F23803C2F200039A6040F2A003C2F26D
:100CE00000031A6E40F22013C2F200031A6040F2B1
:100CF0001C13C2F200034FF004021A700EE14FF011
:100D0000000387F8273032E097F8273003F1030219
:100D100040F22403C2F200039A5C7B691A707B697B
:100D200003F101037B6197F8273003F1070240F2DA
:100D30002403C2F200039A5C3B691A703B6903F119
:100D400001033B6197F8273003F10B0240F22403C3
:100D5000C2F200039A5CBB691A70BB6903F101031C
:100D6000BB6197F8273003F1010387F8273097F824
:100D70002730032BC8D940F21C13C2F200034FF0F6
:100D800005021A70CAE04FF0000387F8273032E0FE
:100D900097F8273003F1030240F22403C2F2000364
:100DA0009A5C3B6A1A703B6A03F101033B6297F855
:100DB000273003F1070240F22403C2F200039A5CD9
:100DC000FB691A70FB6903F10103FB6197F8273097
:100DD00003F10B0240F22403C2F200039A5CBB69E8
:100DE0001A70BB6903F10103BB6197F8273003F167
:100DF000010387F8273097F82730032BC8D940F232
:100E00001C13C2F200031B78062B1BD040F27803A0
:100E1000C2F200034FF000021A6040F27803C2F2FF
:100E200000034FF000025A6040F22413C2F20003A4
:100E30004FF000021A6040F27003C2F200034FF05C
:100E400000021A6040F21C13C2F200034FF00602C7
:100E50001A7063E040F21C13C2F200034FF0070265
:100E60001A705BE040F21C13C2F200034FF008025C
:100E70001A7053E040F21C13C2F200034FF0090253
:100E80001A704BE040F21C13C2F200034FF00A024A
:100E90001A7043E040F21C13C2F200034FF00B0241
:100EA0001A703BE040F21C13C2F200034FF00C0238
:100EB0001A7033E040F21C13C2F200034FF00D022F
:100EC0001A702BE040F21C13C2F200034FF00E0226
:100ED0001A7023E040F21C13C2F200034FF00F021D
:100EE0001A7000BF1AE040F21003C2F200031B6840
:100EF00003F1010240F21003C2F200031A6040F253
:100F00001003C2F200031B68642B07D94FF00200E4
:100F100000F09AF802E000BF00E000BF4FF4A050DC
:100F2000C4F201004FF02001FFF768FA4FF4A0501F
:100F3000C4F201004FF040014FF00102FFF71AFA2E
:100F40004FF0010000F080F807F12C07BD4690BD7E
:100F500080B584B000AF4FF020004FF0010100F0E9
:100F6000D5F907F10403FB60FB684FF080021A60BB
:100F7000FB684FF001021A71FB684FF00102DA7151
:100F8000FB684FF000029A71FB684FF002025A7141
:100F90004FF4A050C4F20200F96800F00BFAFB68AD
:100FA0004FF480721A60FB684FF001021A71FB68FF
:100FB0004FF00102DA71FB684FF000029A71FB6892
:100FC0004FF002025A714FF4A050C4F20200F968C7
:100FD00000F0F0F9FB684FF400721A60FB684FF004
:100FE00001021A71FB684FF00102DA71FB684FF0E1
:100FF00000029A71FB684FF002025A714FF4A05040
:10100000C4F20200F96800F0D5F9FB684FF0400225
:101010001A60FB684FF001021A71FB684FF0010281
:10102000DA71FB684FF000029A71FB684FF0020220
:101030005A714FF4A050C4F20200F96800F0BAF9F6
:1010400007F11007BD4680BD80B582B000AF0346F2
:10105000FB71FB79012B07D14FF4A050C4F20200C1
:101060004FF4807100F048FAFB79022B07D14FF45E
:10107000A050C4F202004FF0800100F03DFAFB796D
:10108000002B07D14FF4A050C4F202004FF04001F2
:1010900000F032FAFB79032B07D14FF4A050C4F2D1
:1010A00002004FF4007100F027FA07F10807BD466F
:1010B00080BD00BF80B582B000AF0346FB71FB79F5
:1010C000012B07D14FF4A050C4F202004FF48071FD
:1010D00000F020FAFB79022B07D14FF4A050C4F2A4
:1010E00002004FF0800100F015FAFB79002B07D1C8
:1010F0004FF4A050C4F202004FF0400100F00AFA91
:10110000FB79032B07D14FF4A050C4F202004FF437
:10111000007100F0FFF907F10807BD4680BD00BF70
:1011200080B400AF4FF46053C4F202039B68DBB29B
:1011300003F00C03DBB21846BD4680BC704700BF0D
:1011400080B489B000AF78604FF00003BB614FF00E
:1011500000037B614FF00003FB614FF002033B6132
:101160004FF00003FB604FF00203BB604FF460538D
:10117000C4F202039B6803F00C03BB61BB69042B40
:101180000AD0082B0FD0002B60D17A684FF410538F
:10119000C0F2F403136060E07A6847F64003C0F2DF
:1011A0007D13136059E04FF46053C4F202035B688F
:1011B00003F480034FEA9353FB604FF46053C4F28F
:1011C00002035B6803F03F03BB60FB68002B14D095
:1011D00047F64003C0F27D13BA68B3FBF2F24FF456
:1011E0006053C4F20203596847F6C0730B404FEADC
:1011F000931303FB02F3FB6113E04FF41053C0F2AF
:10120000F403BA68B3FBF2F24FF46053C4F2020382
:10121000596847F6C0730B404FEA931303FB02F380
:10122000FB614FF46053C4F202035B6803F4403384
:101230004FEA134303F101034FEA43033B61FA69A9
:101240003B69B2FBF3F27B681A6006E07A684FF400
:101250001053C0F2F403136000BF4FF46053C4F2A4
:1012600002039B6803F0F003BB61BB694FEA1313F1
:10127000BB6140F21403C2F20003BA699B181B78E9
:10128000DBB27B617B681A687B6922FA03F27B68B8
:101290005A604FF46053C4F202039B6803F4E053B6
:1012A000BB61BB694FEA9323BB6140F21403C2F2F6
:1012B0000003BA699B181B78DBB27B617B685A68B4
:1012C0007B6922FA03F27B689A604FF46053C4F2A0
:1012D00002039B6803F46043BB61BB694FEA53336D
:1012E000BB6140F21403C2F20003BA699B181B7879
:1012F000DBB27B617B685A687B6922FA03F27B6808
:10130000DA6007F12407BD4680BC704780B483B023
:1013100000AF78600B46FB70FB78002B0CD04FF4CD
:101320006053C4F202034FF46052C4F20202116B24
:101330007A680A431A630DE04FF46053C4F2020363
:101340004FF46052C4F20202116B7A686FEA020233
:101350000A401A6307F10C07BD4680BC704700BF06
:1013600080B483B000AF78600B46FB70FB78002B35
:101370000CD04FF46053C4F202034FF46052C4F235
:101380000202516C7A680A435A640DE04FF46053CC
:10139000C4F202034FF46052C4F20202516C7A6844
:1013A0006FEA02020A405A6407F10C07BD4680BC8E
:1013B000704700BF80B487B000AF786039604FF0ED
:1013C00000037B614FF000033B614FF00003FB60C3
:1013D0004FF000037B6186E07B694FF0010202FA67
:1013E00003F33B613B681A683B691340FB60FA6892
:1013F0003B699A4273D17B681A687B694FEA430361
:101400004FF0030101FA03F36FEA03031A407B680C
:101410001A607B681A683B681B7919467B694FEA3A
:10142000430301FA03F31A437B681A603B681B7994
:10143000012B03D03B681B79022B34D17B689A685F
:101440007B694FEA43034FF0030101FA03F36FEAAC
:1014500003031A407B689A607B689A683B685B79F3
:1014600019467B694FEA430301FA03F31A437B6889
:101470009A607B685A687B699BB24FF0010101FA60
:1014800003F36FEA03031A407B685A607B685A686B
:101490003B689B7919467B699BB201FA03F39BB2C7
:1014A0001A437B685A607B68DA687B699BB24FEAB3
:1014B00043034FF0030101FA03F36FEA03031A40F9
:1014C0007B68DA607B68DA683B68DB7919467B69A0
:1014D0004FEA430301FA03F31A437B68DA607B693E
:1014E00003F101037B617B690F2B7FF675AF07F179
:1014F0001C07BD4680BC704780B483B000AF7860E5
:101500000B467B807B687A881A8307F10C07BD46FF
:1015100080BC704780B483B000AF78600B467B809E
:101520007B687A885A8307F10C07BD4680BC7047F8
:1015300080B485B000AF786013460A467A807B702D
:101540004FF00003FB604FF00003BB607A787B88AC
:1015500003F007034FEA830302FA03F3FB607B887F
:101560004FEAD3039BB21A467B884FEAD3039BB260
:1015700019467B6801F1080153F821107B8803F0BC
:1015800007034FEA83034FF00F0000FA03F36FEAFB
:10159000030319407B6802F1080243F822107B889C
:1015A0004FEAD3039BB21A467B6802F1080253F854
:1015B0002220FB681343BB607B884FEAD3039BB2B6
:1015C0001A467B6802F10802B96843F8221007F155
:1015D0001407BD4680BC704780B500AF4FF4605320
:1015E000C4F202034FF46052C4F20202126842F0E5
:1015F00001021A604FF46053C4F202034FF000027C
:101600009A604FF46053C4F202034FF46052C4F284
:101610000202126822F0847222F480321A604FF4BF
:101620006053C4F2020343F21002C2F200425A6055
:101630004FF46053C4F202034FF46052C4F202024A
:10164000126822F480221A604FF46053C4F202033D
:101650004FF00002DA6000F009F84FF46D43CEF26B
:1016600000034FF000629A6080BD00BF80B483B079
:1016700000AF4FF000037B604FF000033B604FF47E
:101680006053C4F202034FF46052C4F202021268C3
:1016900042F480321A604FF46053C4F202031B68B4
:1016A00003F400333B607B6803F101037B603B681C
:1016B000002B03D17B68B3F5A06FECD14FF46053DE
:1016C000C4F202031B6803F40033002B03D04FF075
:1016D00001033B6002E04FF000033B603B68012BDD
:1016E00040F082804FF46053C4F202034FF4605222
:1016F000C4F20202126C42F080521A644FF4E043CA
:10170000C4F200034FF4E042C4F20002126842F453
:1017100080421A604FF46053C4F202034FF46052E7
:10172000C4F2020292689A604FF46053C4F202035A
:101730004FF46052C4F20202926842F400429A608E
:101740004FF46053C4F202034FF46052C4F2020239
:10175000926842F4A0529A604FF46053C4F20203BC
:1017600045F21942C0F240725A604FF46053C4F21D
:1017700002034FF46052C4F20202126842F0807217
:101780001A6000BF4FF46053C4F202031B6803F0F9
:101790000073002BF6D04FF47053C4F2020340F2F2
:1017A00005621A604FF46053C4F202034FF46052B2
:1017B000C4F20202926822F003029A604FF460536E
:1017C000C4F202034FF46052C4F20202926842F083
:1017D00002029A6000BF4FF46053C4F202039B6898
:1017E00003F00C03082BF6D107F10C07BD4680BCB3
:1017F000704700BF80B485B000AF786039604FF0AB
:101800000003FB607B681B68FB60FA6848F23F03DB
:10181000CFF21C031340FB603B681A683B68DB682F
:101820001A433B685B691A433B689B691A433B68F0
:10183000DB691A433B681B6A1A433B685B6A1A43BD
:101840003B689B6A1A433B685B6B1A433B689B6B24
:101850001343FA681343FB607B68FA681A607B687D
:101860005B69FB60FB6823F00703FB603B68DA6A97
:101870003B681B6B1343FA681343FB607B68FA6891
:101880005A613B681A697B685A603B685A687B6892
:101890009A603B689A687B68DA6007F11407BD4676
:1018A00080BC704780B483B000AF78600B46FB709B
:1018B000FB78002B06D07B681B6843F001027B6835
:1018C0001A6005E07B681B6823F001027B681A60E0
:1018D00007F10C07BD4680BC704700BF80B483B0E1
:1018E00000AF78600B467B807A887B685A6007F18E
:1018F0000C07BD4680BC704780B485B000AF7860EF
:101900004FF00003FB737B681B6803F00103002B9F
:1019100003D04FF00103FB7302E04FF00003FB73B1
:10192000FB7B184607F11407BD4680BC704700BF1B
:1019300080B485B000AF786039607A6846F20F43B2
:10194000C4F202039A4205D84FF4C043C4F2020322
:10195000FB6004E04FF4C843C4F20203FB603B6841
:1019600003F00053002B07D03B6823F0F02323F053
:101970008213FA68D36006E03B6823F0F02323F07B
:101980008213FA68936007F11407BD4680BC704764
:1019900080B485B000AFF860B9601346FB71BB68D6
:1019A00003F08003002B0FD0FB79002B06D0FB68DF
:1019B0005B6943F08002FB685A6105E0FB685B6984
:1019C00023F08002FB685A61BB68802B15D0FB793D
:1019D000002B08D0FB681A68BB6803F01E031A438B
:1019E000FB681A6009E0FB681A68BB6803F01E0315
:1019F0006FEA03031A40FB681A6007F11407BD463B
:101A000080BC704780B485B000AF786039607A6878
:101A100046F20F43C4F202039A4205D84FF4C04382
:101A2000C4F20203FB6004E04FF4C843C4F20203B3
:101A3000FB603B6803F00053002B07D03B6823F0AA
:101A4000F02323F08213FA68D36006E03B6823F0AA
:101A5000F02323F08213FA68936007F11407BD4660
:101A600080BC704780B485B000AF78604FF0000351
:101A7000FB734FF00003BB734FF00F037B737B6866
:101A8000DB78002B45D04FF46D43CEF20003DB68CA
:101A90006FEA030303F4E0634FEA1323FB73FB7B5A
:101AA000C3F10403BB737A7BFB7B42FA03F37B73C2
:101AB0007B685B781A46BB7B02FA03F3FB737B6897
:101AC0009A787B7B1340DAB2FB7B1343FB73FB7B7F
:101AD0004FEA0313FB734FF46143CEF200037A68BD
:101AE00012789B18FA7B83F800234FF46143CEF2FF
:101AF00000037A6812784FEA5212D2B279680978F4
:101B000001F01F014FF0010000FA01F143F822102B
:101B100014E04FF46143CEF200037A6812784FEA82
:101B20005212D2B27968097801F01F014FF001001A
:101B300000FA01F102F1200243F8221007F1140724
:081B4000BD4680BC704700BFE8
:101B4800555341525420444D4120000001000000EB
:101B58000100000000000000010203040102030468
:041B6800060708095B
:0400000508000000EF
:00000001FF
