:020000040800F2
:10000000B40B002001280008FD270008FD27000888
:10001000FD270008FD270008FD270008000000005C
:10002000000000000000000000000000FD270008A4
:10003000FD27000800000000FD270008FD2700083C
:10004000FD270008FD270008FD270008FD27000800
:10005000FD270008FD270008FD270008FD270008F0
:10006000FD270008FD270008FD270008FD270008E0
:10007000B5440008FD27000855400008FD2700088A
:10008000FD270008FD270008FD270008FD270008C0
:10009000311E00087D1F0008FD270008FD2700080D
:1000A000FD270008FD270008FD270008FD270008A0
:1000B000FD270008FD270008FD270008FD27000890
:1000C000FD270008FD270008FD270008FD27000880
:1000D000FD270008FD270008FD270008FD27000870
:1000E000FD270008FD270008FD270008FD27000860
:1000F000FD270008FD270008FD270008FD27000850
:10010000FD270008FD270008FD270008FD2700083F
:10011000FD270008FD270008FD270008FD2700082F
:10012000FD270008754D0008FD270008FD27000881
:10013000FD270008FD270008FD270008FD2700080F
:10014000FD270008FD270008FD270008FD270008FF
:10015000FD270008A1470008FD270008FD2700082B
:10016000FD270008FD270008FD270008FD270008DF
:10017000FD270008FD270008FD270008FD270008CF
:10018000FD270008FD2700082DE9F04FB64B2DEDA7
:10019000048B1878042899B000F0B482002840F04D
:1001A0000386DFF8C8B2DFF8C8A2DBF80C00DFF87E
:1001B000C48206F0E9FB0646DBF810000F4606F0A5
:1001C000E3FB0446DBF800000D4606F0DDFBCDE95D
:1001D0000601DBF8040006F0D7FBCDE90201DAF8EE
:1001E000080006F0D1FB82A3D3E9002306F020FC2F
:1001F000CDE90A01DAF8000006F0C6FBCDE90401FA
:10020000DAF8040006F0C0FBCDE90801D8F82800B0
:1002100006F0BAFBCDE90C01D8F82C0006F0B4FBCF
:10022000CDE91001D8F8300006F0AEFB72A3D3E997
:10023000002306F0FDFBCDE90E01D8F81C0006F006
:10024000A3FBCDE91201D8F8200006F09DFBCDE913
:100250001401D8F8600006F097FB69A3D3E90023E6
:1002600006F0E6FB68A3D3E9002382468B463046BE
:10027000394606F0DDFB66A3D3E9002380468946B4
:100280002046294606F0D4FB02460B464046494626
:1002900006F01CFA5AA3D3E9002380468946DDE91B
:1002A000060106F0C5FB02460B464046494606F0ED
:1002B0000BFA59A3D3E9002380468946DDE9020100
:1002C00006F0B6FB02460B464046494606F0FEF9EC
:1002D000DDE90A2306F0FAF949A3D3E900238046B1
:1002E0008946DDE9040106F0A3FB02460B464046C1
:1002F000494606F0EBF94AA3D3E900238046894634
:10030000DDE9080106F094FB02460B4640464946EB
:1003100006F0DCF944A3D3E9002380468946DDE9F1
:100320000C0106F085FB02460B464046494606F0A6
:10033000CBF93FA3D3E9002380468946DDE91001CC
:1003400006F076FB02460B464046494606F0BEF9EB
:10035000DDE90E2306F0BAF937A3D3E9002380467E
:100360008946DDE9120106F063FB02460B46404672
:10037000494606F0A9F932A3D3E90023804689460D
:10038000DDE9140106F054FB02460B46404649469F
:1003900006F09CF952465B4606F098F906F0E2FD3D
:1003A000394629A3D3E9002309EE100A304606F0A6
:1003B0003FFB27A3D3E9002306460F4620462946E4
:1003C00006F036FB24A3D3E90023CDE91601DDE9CD
:1003D000060106F02DFB22A3D3E90023CDE9060197
:1003E000DDE9020106F024FB46E000BFAFF3008028
:1003F000ACE28DCC237FD4BFEFFE78AF5A99D43FC7
:10040000ACE28DCC237FD43F3F355EBA490CE0BFD0
:100410009C2CCFD4513DF03CAD72B9FA0FCDE53CE8
:10042000AD72B9FA0FCDE5BC92CB7F48BFBD144089
:1004300037B04D808CD5173D3FC6DCB5846C384055
:100440001D9C9362B7DA363D3F355EBA490CD03F0A
:10045000E94317D4B7CCDB3FACE28DCC237FC43F5C
:100460001CEBE2361AC0D13FE80100201801002041
:10047000A40000206801002094A3D3E90023CDE963
:100480000201DDE9040106F0D3FA92A3D3E90023C7
:10049000CDE90401DDE90C0106F0CAFA8FA3D3E926
:1004A0000023CDE90C01DDE9100106F0C1FA8DA3AE
:1004B000D3E90023CDE91001DDE9120106F0B8FA15
:1004C0008AA3D3E9002380468946DDE9140106F0BA
:1004D000AFFADDE9162304460D463046394606F0EC
:1004E000F3F8DDE9062306F0F1F8DDE9022306F072
:1004F000EBF802460B46DDE90A0106F0E7F8DDE914
:10050000042306F0E3F87BA3D3E90023CDE912012D
:10051000DDE9080106F08CFA02460B46DDE912011E
:1005200006F0D4F8DDE90C2306F0D0F8DDE910235D
:1005300006F0CAF802460B46DDE90E0106F0C6F8E1
:1005400042464B4606F0C2F822462B4606F0BCF85F
:1005500002460B465046594606F0B8F806F002FD32
:10056000DDE91623394608EE900A304606F0AEF86B
:1005700002460B46DDE9060106F0A8F802460B46E6
:10058000DDE9020106F0A2F802460B46DDE90A01A8
:1005900006F09CF802460B46DDE9040106F096F8E9
:1005A00056A3D3E9002306460F46DDE9080106F00D
:1005B0003FFA02460B463046394606F087F80246B7
:1005C0000B46DDE90C0106F081F802460B46DDE939
:1005D000100106F07BF802460B46DDE90E0106F03D
:1005E00075F802460B464046494606F06FF802464B
:1005F0000B462046294606F069F802460B4650464F
:10060000594606F063F806F0ADFC08EE100AB1EEAC
:10061000000AB4EEC09AF1EE10FA3ADCF9EE000AE4
:10062000B4EEE09AF1EE10FA40F1E68640F22B15B6
:10063000CCF2EE55B1EE001AF4EEC18AF1EE10FAEA
:1006400032DCF9EE001AF4EEE18AF1EE10FA41F133
:100650004A8240F22B14CCF2EE54B1EE002AB4EEF2
:10066000C28AF1EE10FA2ADCF9EE002AB4EEE28A30
:10067000F1EE10FA41F1258240F22B10CCF2EE504F
:1006800011490D604C60886019B0BDEC048BBDE869
:10069000F08FB1EE001AF4EEC18A40F22B15F1EEA4
:1006A00010FAC4F2EE55CCDDB1EE002AB4EEC28AE7
:1006B00040F22B14F1EE10FAC4F2EE54D4DD40F205
:1006C0002B10C4F2EE50DBE74C010020ACE28DCCE5
:1006D000237FC4BF76E09C11A5BD044044FAEDEB36
:1006E000C0F91140780B24287E6C28404703780B12
:1006F000242835401CEBE2361AC0D13F1CEBE23611
:100700001AC0D1BFB04DB14CE86806F03DF9804643
:100710002869894606F038F9064628680F4606F02B
:1007200033F9824668688B4606F02EF9CDE906015A
:10073000A06A06F029F9CDE90201E06A06F024F981
:10074000CDE90401206B06F01FF97BA3D3E9002358
:1007500006F06EF9CDE90801E06906F015F9CDE97A
:100760000C01206A06F010F9CDE91001206E06F0A8
:100770000BF973A3D3E9002306F05AF9CDE90A0176
:100780009349886806F000F96FA3D3E9002306F0C7
:100790004FF96FA3D3E90023CDE90E014046494646
:1007A00006F046F96CA3D3E9002304460D46304613
:1007B000394606F03DF902460B462046294605F02B
:1007C00085FF67A3D3E9002304460D4650465946EA
:1007D00006F02EF902460B462046294605F074FF26
:1007E00061A3D3E9002304460D46DDE9060106F0C6
:1007F0001FF902460B462046294605F067FF5CA319
:10080000D3E9002304460D46DDE9020106F010F9A4
:1008100002460B462046294605F056FF56A3D3E96B
:10082000002304460D46DDE9040106F001F9024605
:100830000B462046294605F049FFDDE9082305F06F
:1008400045FF4FA3D3E9002304460D46DDE90C0123
:1008500006F0EEF802460B462046294605F034FF26
:1008600049A3D3E9002304460D46DDE9100106F053
:10087000DFF802460B462046294605F027FFDDE952
:100880000A2305F023FFDDE90E2305F01FFF06F024
:1008900069FB494684463EA3D3E900234046CDF890
:1008A00004C006F0C5F83CA3D3E90023CDE912014A
:1008B0003046394606F0BCF821A3D3E90023CDE940
:1008C00014015046594606F0B3F835A3D3E9002386
:1008D000CDE91601DDE9060106F0AAF832A3D3E955
:1008E0000023CDE90601DDE9020106F0A1F830A3FD
:1008F000D3E9002306460F46DDE9040106F098F827
:100900002DA3D3E9002304460D46DDE90C0106F0D2
:100910008FF82BA3D3E9002382468B46DDE9100133
:1009200006F086F8DDE9142380468946DDE91201E8
:1009300050E000BFAFF300803F575BB1BFECE13F39
:100940000E2DB29DEFA7E43F0E2DB29DEFA7E4BFA1
:1009500062A1D634EF38FBBF6ACFB225B944F43C6C
:100960000E2DB29DEFA7F43F1CE9E58503D2043DAF
:10097000333333333393284080A348D416FC133DDC
:10098000CEAACFD5567449404F293290BF48273D53
:1009900062A1D634EF38EB3F6B2BF697DD93F73F30
:1009A00017D9CEF753E3F13FA5BDC11726931840E1
:1009B00079E92631084C25406A4DF38E537439404D
:1009C000228E75711B0D4640180100206801002021
:1009D000A400002005F078FEDDE9162305F076FE80
:1009E000DDE9062305F070FE32463B4605F06EFE5B
:1009F00022462B4605F068FE02460B46DDE908015B
:100A000005F064FE52465B4605F060FE42464B46EA
:100A100005F05AFE02460B46DDE90A0105F056FED6
:100A200002460B46DDE90E0105F050FE06F09AFA8B
:100A3000DDE914230290DDE9120105F047FE0246CC
:100A40000B46DDE9160105F041FE02460B46DDE9E5
:100A5000060105F03BFE02460B463046394605F0DE
:100A600035FE02460B462046294605F02FFE02467B
:100A70000B46DDE9080105F029FE02460B4650460B
:100A8000594605F023FE02460B464046494605F00E
:100A90001DFE02460B46DDE90A0105F017FE02467F
:100AA0000B46DDE90E0105F011FE06F05BFADDF8FC
:100AB00004C00646604605F067FF40F24812C2F2E5
:100AC000000240F2882513680893B1A3D3E90023FC
:100AD00005F0AEFF074608980C4605F055FFAEA39B
:100AE000D3E9002305F0A4FFC2F200050246384610
:100AF0002F680B4621460A9705F0E8FD04460A9840
:100B00000D4605F041FFA6A3D3E9002305F090FFB1
:100B100040F2FC17C2F20007024620463C680B4632
:100B200029460E9405F0D2FD07460E980D4605F0B5
:100B30002BFF99A3D3E9002305F07AFF02460B4669
:100B40003846294605F0C2FD40F2F00EC2F2000E12
:100B50000446DEF800000F4605F016FF8CA3D3E92B
:100B6000002305F065FF02460B462046394605F096
:100B7000ADFD06F0F7F909EE100A029805F004FF42
:100B800040F25822C2F2000240F20017D2F800B040
:100B90007FA3D3E9002305F04BFF044658460D46DA
:100BA00005F0F2FE7CA3D3E9002305F041FFC2F279
:100BB000000702460B462046294605F087FDD7F878
:100BC00000A0044650460D4605F0DEFE74A3D3E9AE
:100BD000002305F02DFF40F25C2802460B4620461C
:100BE0002946C2F2000805F071FDD8F800900746CA
:100BF00048460C4605F0C8FE67A3D3E9002305F07C
:100C000017FF02460B463846214605F05FFD0746B2
:100C100040F2FC00C2F200000D46006805F0B4FE90
:100C20005BA3D3E9002305F003FF02460B463846D9
:100C3000294605F04BFD06F095F908EE900A30467E
:100C400040F2141605F0A0FEC2F2000650A3D3E94C
:100C5000002305F0EDFE3668044630460F4605F0E9
:100C600093FE4DA3D3E9002305F0E2FE40F23025C8
:100C700002460B4620463946C2F2000505F026FD25
:100C80002F68044638460D4605F07EFE40F2402CA3
:100C9000C2F2000C42A3D3E90023DCF8008005F087
:100CA000C7FE02460B462046294605F00FFD0446C6
:100CB00040460D4605F068FE37A3D3E9002305F052
:100CC000B7FE02460B462046294605F0FFFC0D46BE
:100CD00040F29421C2F200010446086805F054FE77
:100CE0002BA3D3E9002305F0A3FE02460B462046C2
:100CF000294605F0EBFC06F035F940F2F0020E9BB8
:100D0000C2F2000240F2FC14136008EE100AC2F2B4
:100D100000040A98089D206040F2882140F2FC02FD
:100D2000C2F20001C2F2000240F2481340F25C201D
:100D3000C2F20003C2F200000D6083ED009AC2F817
:100D4000009040F2001440F2942140F2402340F21F
:100D50003022C0F800A0C2F2000440F25825C2F2CE
:100D60000001C2F20003C2F2000240F21410C2F20B
:100D70000005C2F20000C4F800B0C5ED008AC1F859
:100D800000801F60166080ED008A40E4AFF30080B1
:100D900000FC21C6A3E7C33FC0C4E8FA2255CC3FFC
:100DA000827EEA7D7286CF3F012840F0E981B44C13
:100DB000DFF8D092E068DFF8D08205F0E5FD064666
:100DC00020690F4605F0E0FD0446D9F80C000D46F9
:100DD00005F0DAFD8246D9F810008B4605F0D4FD07
:100DE000CDE90801D9F8080005F0CEFD82A3D3E9CA
:100DF000002305F01DFECDE90A01D8F8280005F012
:100E0000C3FDCDE90201D8F82C0005F0BDFDCDE908
:100E10000401D8F8300005F0B7FD79A3D3E9002329
:100E200005F006FECDE90E01D8F81C0005F0ACFD7A
:100E3000CDE90C01D8F8200005F0A6FDCDE91001A0
:100E4000D8F8600005F0A0FD6FA3D3E9002305F0FA
:100E5000EFFD6FA3D3E90023CDE906013046394603
:100E600005F0E6FD6CA3D3E90023804689462046C1
:100E7000294605F0DDFD02460B464046494605F091
:100E800023FC67A3D3E90023804689465046594690
:100E900005F0CEFD02460B464046494605F016FCDD
:100EA0005DA3D3E9002380468946DDE9080105F00A
:100EB000BFFD02460B464046494605F007FCDDE90A
:100EC0000A2305F003FC58A3D3E900238046894692
:100ED000DDE9020105F0ACFD02460B4640464946FD
:100EE00005F0F2FB52A3D3E9002380468946DDE9F1
:100EF000040105F09DFD02460B464046494605F0BB
:100F0000E3FBDDE90E2305F0E1FB4BA3D3E900236E
:100F100080468946DDE90C0105F08AFD02460B4654
:100F20004046494605F0D0FB45A3D3E9002380465F
:100F30008946DDE9100105F07BFD02460B4640467F
:100F4000494605F0C1FBDDE9062305F0BFFB06F0CD
:100F500009F839463CA3D3E9002309EE100A3046CC
:100F600005F066FD3AA3D3E9002306460F46204666
:100F7000294605F05DFD38A3D3E90023CDE9120130
:100F80005046594605F054FD35A3D3E90023824667
:100F90008B46DDE9020105F04BFD33A3D3E90023C5
:100FA000CDE90201DDE9040105F042FD30A3D3E9FA
:100FB0000023CDE90401DDE90C0105F039FD2EA384
:100FC000D3E9002380468946DDE9100105F030FDB4
:100FD000DDE9122304460D463046394605F074FB20
:100FE00052465B4605F072FB19A3D3E90023CDE915
:100FF0000C01DDE9080149E021E527D53E1DDBBFF5
:10100000156F641EF983D93F21E527D53E1DDB3FCF
:1010100027A5A0DB4B1AD9BF18F7CBAB942BCA3C42
:1010200027A5A0DB4B1AD93FDA1B7C61321514408F
:101030003449D970DFA7FD3C5917B7D100CE3740EE
:10104000F26F85B163ED233DEDB60BCD751AC93F47
:10105000E8BCC62E51BDD53FEDB60BCD751AC9BF44
:10106000F7065F984C1504408195438B6C671140DF
:1010700020D26F5F07CE2740AD69DE718A9E344073
:1010800018010020A40000206801002005F0D0FC19
:1010900002460B46DDE90C0105F018FB02460B4643
:1010A000DDE90A0105F012FBDDE9022305F00EFB84
:1010B000DDE9042305F008FB02460B46DDE90E01DD
:1010C00005F004FB42464B4605F000FB22462B464A
:1010D00005F0FAFA02460B46DDE9060105F0F6FADC
:1010E00005F040FFDDE91223394608EE900A30464C
:1010F00005F0ECFA02460B465046594605F0E6FA72
:101100000FF25053D3E9002306460F46DDE90801EC
:1011100005F08EFC02460B463046394605F0D6FAFD
:1011200002460B46DDE90A0105F0D0FA02460B46FD
:10113000DDE9020105F0CAFA02460B46DDE90401C9
:1011400005F0C4FA02460B46DDE90E0105F0BEFAD1
:1011500002460B464046494605F0B8FA02460B46A1
:101160002046294605F0B2FA02460B46DDE90601A3
:1011700005F0ACFA05F0F6FE08EE100AFFF747BAE4
:10118000022840F04C81DFF864B5DFF86485DBF8B5
:10119000080005F0F9FB0FF2C443D3E9002305F082
:1011A00047FC0446DBF814000D4605F0EDFB06464F
:1011B000DBF818000F4605F0E7FBCDE90801D8F889
:1011C000280005F0E1FBCDE90E01D8F82C0005F070
:1011D000DBFBCDE90601D8F8300005F0D5FB0FF2B6
:1011E0008443D3E9002305F023FCCDE90A01D8F8B4
:1011F0001C0005F0C9FBCDE90201D8F8200005F07C
:10120000C3FBCDE90401D8F8600005F0BDFB0FF287
:101210005C43D3E9002305F00BFC0FF25043D3E904
:10122000002382468B463046394605F001FC0246D3
:101230000B462046294605F049FA0FF23843D3E918
:10124000002380468946DDE9080105F0F1FB0246EE
:101250000B464046494605F039FA0FF22043D3E9E0
:10126000002380468946DDE90E0105F0E1FB0246D8
:101270000B464046494605F027FA0FF20843D3E9EA
:10128000002380468946DDE9060105F0D1FB0246D0
:101290000B464046494605F019FADDE90A2305F0F8
:1012A00015FAFAA3D3E9002380468946DDE9020155
:1012B00005F0BEFB02460B464046494605F004FADF
:1012C000F4A3D3E9002380468946DDE9040105F053
:1012D000AFFB02460B464046494605F0F7F9524639
:1012E0005B4605F0F3F905F03DFEECA3D3E90023DE
:1012F000394609EE100A304605F09AFB02460B46C5
:101300002046294605F0E2F9E6A3D3E90023CDE91A
:101310000C01DDE90E0105F08BFBE4A3D3E900230A
:10132000CDE90E01DDE9060105F082FBE1A3D3E979
:10133000002380468946DDE9020105F079FBDFA341
:10134000D3E9002306460F46DDE9040105F070FBF2
:10135000DCA3D3E9002304460D46DDE9080105F0CE
:1013600067FB02460B46DDE90C0105F0AFF9DDE94C
:101370000E2305F0ABF942464B4605F0A5F90246AF
:101380000B46DDE90A0105F0A1F932463B4605F0BE
:101390009DF922462B4605F097F902460B4650462A
:1013A000594605F093F905F0DDFDC8A3D3E9002304
:1013B00008EE900ADDE9080105F03AFB02460B460B
:1013C000DDE90C0105F082F902460B46DDE90E016C
:1013D00005F07CF902460B464046494605F076F991
:1013E00002460B46DDE90A0105F070F902460B469C
:1013F00030463946FFF7F9B819EE100A05F0C4FA7D
:10140000B4A3D3E9002305F03DFCB4A3D3E9002342
:1014100005F00EFB05F0A6FD0546FFF70BB9072802
:1014200040F0A080DFF8C882D8F8280005F0ACFAB8
:101430000646D8F82C000F4605F0A6FA0446D8F860
:101440001C000D4605F0A0FACDE90801D8F82000EF
:1014500005F09AFAA3A3D3E90023CDE90A013046A7
:10146000394605F0E5FA87A3D3E900238246894689
:101470002046294605F0DCFA02460B46504649460E
:1014800005F024F981A3D3E9002383468846DDE9EA
:10149000080105F0CDFA02460B465846414605F0D4
:1014A00013F97CA3D3E9002382468946DDE90A01CA
:1014B00005F0BEFA02460B465046494605F006F9CD
:1014C00005F050FD394677A3D3E9002309EE100A51
:1014D000304605F0ADFA75A3D3E90023804689466E
:1014E0002046294605F0A4FA72A3D3E900238246D8
:1014F0008B46DDE9080105F09BFA70A3D3E90023D0
:1015000006460F46DDE90A0105F092FA5246044606
:101510000D465B464046494605F0D6F832463B4606
:1015200005F0D4F822462B4605F0CEF805F01AFD5A
:1015300052465B4608EE900A4946404605F0C6F81A
:1015400002460B463046394605F0C0F802460B46C7
:101550002046294605F0BAF805F004FD08EE100A09
:10156000FFF755B8052840F0C580DFF88481DFF823
:101570007C91374C98ED189AB0EE490A03F02AFF97
:10158000F0EE408AB0EE490A03F05EFFD9ED047A2E
:1015900099ED037A27EE808A08EE878A68EEA78A9B
:1015A00048EE408AE06889ED038AC9ED048A05F0B7
:1015B000EBF9064620690F4605F0E6F9044618EEF9
:1015C000100A0D4605F0E0F9824618EE900A8B46A7
:1015D00005F0DAF9CDE90801D9F8080005F0D4F9E9
:1015E00017A3D3E9002305F023FACDE90A01D8F8BF
:1015F000280005F0C9F9CDE90201D8F82C0005F062
:10160000C3F9CDE90401D8F8300005F0BDF90EA307
:10161000D3E9002305F00CFACDE90E01D8F81C003F
:1016200005F0B2F9CDE90C01D8F8200005F0ACF9CD
:10163000CDE9100119EE100A04E400BFAFF30080F9
:1016400021E527D53E1DDBBF156F641EF983D93F09
:1016500018010020E8BCC62E51BDD5BFACE28DCC30
:10166000237FD4BFEFFE78AF5A99D43FACE28DCC44
:10167000237FD43FAD72B9FA0FCDE5BC92CB7F4842
:10168000BFBD144037B04D808CD5173D3FC6DCB58B
:10169000846C38401D9C9362B7DA363DACE28DCC49
:1016A000237FC4BF76E09C11A5BD044044FAEDEB56
:1016B000C0F91140780B24287E6C28404703780B32
:1016C000242835401CEBE2361AC0D13F1CEBE23631
:1016D0001AC0D1BF9999999999698040000000007A
:1016E00080842E4192CB7F48BFBD14C0A40000204F
:1016F00068010020062840F00982DFF8D494DFF862
:10170000D4A4D9F80C00DFF8D08405F03DF90646E2
:10171000D9F810000F4605F037F90446D9F8000053
:101720000D4605F031F9CDE90601D9F8040005F0C0
:101730002BF9CDE90201DAF8080005F025F9F6A346
:10174000D3E9002305F074F9CDE90A01DAF80000C5
:1017500005F01AF9CDE90401DAF8040005F014F9EE
:10176000CDE90801D8F8280005F00EF9CDE90C0103
:10177000D8F82C0005F008F9CDE91001D8F83000B0
:1017800005F002F9E6A3D3E9002305F051F9CDE90C
:101790000E01D8F81C0005F0F7F8CDE91201D8F8D1
:1017A000200005F0F1F8CDE91401D8F8600005F04B
:1017B000EBF8DDA3D3E9002305F03AF9DCA3D3E984
:1017C000002382468B463046394605F031F9DAA3CC
:1017D000D3E90023804689462046294605F028F9AA
:1017E00002460B464046494604F070FFCEA3D3E9BB
:1017F000002380468946DDE9060105F019F9024615
:101800000B464046494604F05FFFCDA3D3E90023D1
:1018100080468946DDE9020105F00AF902460B46D9
:101820004046494604F052FFDDE90A2304F04EFF2A
:10183000BDA3D3E9002380468946DDE9040105F014
:10184000F7F802460B464046494604F03FFFBEA368
:10185000D3E9002380468946DDE9080105F0E8F870
:1018600002460B464046494604F030FFB8A3D3E990
:10187000002380468946DDE90C0105F0D9F80246CF
:101880000B464046494604F01FFFB3A3D3E90023AB
:1018900080468946DDE9100105F0CAF802460B468C
:1018A0004046494604F012FFDDE90E2304F00EFF26
:1018B000ABA3D3E9002380468946DDE9120105F098
:1018C000B7F802460B464046494604F0FDFEA6A383
:1018D000D3E9002380468946DDE9140105F0A8F824
:1018E00002460B464046494604F0F0FE52465B462F
:1018F00004F0ECFE05F036FB39469DA3D3E9002346
:1019000009EE100A304605F093F89BA3D3E90023B3
:1019100006460F462046294605F08AF898A3D3E9E3
:101920000023CDE91601DDE9060105F081F896A353
:10193000D3E9002304460D46DDE9020105F078F8FD
:1019400093A3D3E90023CDE90601DDE9040105F005
:101950006FF891A3D3E90023CDE90201DDE90C0181
:1019600005F066F88EA3D3E90023CDE90401DDE993
:10197000100105F05DF88CA3D3E90023CDE90C013B
:10198000DDE9120105F054F889A3D3E90023CDE97C
:101990001001DDE9140105F04BF8DDE9162380465E
:1019A00089463046394604F08FFE22462B4604F025
:1019B0008DFEDDE9062304F087FE02460B46DDE9D5
:1019C0000A0104F083FEDDE9022304F07FFE6EA32A
:1019D000D3E90023CDE91201DDE9080105F028F87B
:1019E00002460B46DDE9120104F070FEDDE9042336
:1019F00004F06CFEDDE90C2304F066FE02460B46A3
:101A0000DDE90E0104F062FEDDE9102304F05EFE64
:101A100042464B4604F058FE02460B465046594695
:101A200004F054FE05F09EFADDE9162308EE900A54
:101A30003946304604F04AFE02460B462046294607
:101A400004F044FE02460B46DDE9060104F03EFECA
:101A500002460B46DDE90A0104F038FE02460B4659
:101A6000DDE9020104F032FE53A3D3E9002304466A
:101A70000D46DDE9080104F0DBFF02460B46204677
:101A8000294604F023FE02460B46DDE9040104F07A
:101A90001DFE02460B46DDE90C0104F017FE02466E
:101AA0000B46DDE90E0104F011FE02460B46DDE9AE
:101AB000100104F00BFE02460B4640464946FEF775
:101AC0009ABD18EE100A04F05FFF3DA3D3E900238E
:101AD00005F0D8F83CA3D3E9002304F0A9FF05F0F2
:101AE00041FAFEF7CDBD18EE900A04F04DFF34A385
:101AF000D3E9002305F0C6F833A3D3E9002304F0AB
:101B000097FF05F02FFA0446FEF7A7BD04283EF420
:101B1000D1AFFEF77CBD00BF029A081B9E5ED7BF07
:101B20004221020EA14AD53F029A081B9E5ED73F72
:101B300049111956F146E2BF13E7FA1F7016DE3C51
:101B40002891668D69EACA3C2891668D69EACABC0B
:101B5000AB3E575BB13F1840DBF2D6191C32053D56
:101B60008048BF7D1D483C4005E2BAC67548273D08
:101B700049111956F146D23F105D50DF32A7DF3FC1
:101B80003C889D29745EC73FB0E600C11C3DD43F30
:101B90003C889D29745EC7BFAB3E575BB13F084090
:101BA0009487855AD3FC14404703780B24482C4073
:101BB00022FDF675E07C3840B0E600C11C3DD4BF84
:101BC00099999999996980400000000080842E417C
:101BD00018010020A400002068010020AFF300805D
:101BE00030B5044683B001A8214600220223802597
:101BF0008DF804508DF8054000F0FAFA4CF25030A0
:101C000001F0B6FD03B030BD30B5044683B001A885
:101C100021460022022382258DF804508DF80540CC
:101C200000F0E6FA4CF2503001F0A2FD03B030BDF6
:101C300070B582B00024034660258DF80410684614
:101C400019462246082322268DF800608DF801509F
:101C50008DF802508DF803408DF805408DF8064050
:101C60008DF8074000F0C4FA4CF2503001F080FDCE
:101C700002B070BD2DE9F041002482B04FF00F0E8C
:101C800001462246082360258046222740266846D2
:101C90008DF804E08DF802508DF800708DF8016029
:101CA0008DF803408DF805408DF806408DF807400B
:101CB00000F09EFA4CF2503001F05AFD68468DF863
:101CC00002504146224608238F258DF800708DF87A
:101CD00001608DF803408DF804508DF805408DF8B3
:101CE00006408DF8074000F083FA4CF2503001F0C6
:101CF0003FFD02B0BDE8F0812DE9F043002483B040
:101D00004FF0060E602580462227402601462246D7
:101D1000082368468DF804E08DF802508DF80070B5
:101D20008DF801608DF803408DF805408DF8064070
:101D30008DF8074000F05CFA4CF2503001F018FDCD
:101D40004FF00F0941462246082368468DF802509D
:101D50008DF800708DF801608DF803408DF80490C7
:101D60008DF805408DF806408DF8074000F040FAE8
:101D70004CF2503001F0FCFC68468DF802504146B0
:101D80002246082301258DF800708DF801608DF83A
:101D900003408DF804908DF805508DF806408DF8BD
:101DA000074000F025FA4CF2503001F0E1FC03B09E
:101DB000BDE8F083F0B583B022270C4600258DF8EE
:101DC00000703027C1B28DF801706846C4F3072651
:101DD0002A46062320278DF802708DF803508DF8CF
:101DE00004408DF8056000F003FA642001F0C0FCA7
:101DF00003B0F0BD30B583B0402500248DF800500D
:101E00002825C1B28DF801506846202522460423BA
:101E10008DF802508DF803408DF804408DF8054090
:101E20008DF806408DF8074000F0E2F903B030BDB0
:101E30002DE9F0414D4C2368012B88B078D04FF448
:101E4000C840C4F2000000F07FFC10B108B0BDE84B
:101E5000F08120680028F9D103214FF4C840C4F272
:101E60000000C1F2002100F07DFC01280446EDD104
:101E70004FF4C840C4F20000002103AA00F018FC8F
:101E80009DF819109DF81D209DF81A809DF81EC020
:101E90009DF817709DF81B609DF818509DF81C0068
:101EA0009DF81F300904120441EA086142EA0C62FD
:101EB0003943324341EA052142EA00200191029070
:101EC000CBB9019A42F64301C0F220018A423CD0CC
:101ED00046F24340C0F26000824232D042F24B717F
:101EE000C0F220018A4203D10298214AA2F8580088
:101EF000204801210160012BA8D1019B42F6430239
:101F0000C0F2200293422DD046F24341C0F260015C
:101F10008B4223D042F24B70C0F22000834203D1A7
:101F2000029A134BA3F85A201248012141608DE711
:101F30004FF4C840C4F2000000210F4A00F0B8FB83
:101F40007DE702990A48C164D2E7094B029A20460C
:101F50001A6401F0C1FB9DF81F30C9E702990448DB
:101F60000165E1E7029A024B5A64DDE700000020B8
:101F7000680100206C0200208C000020F0B5384C75
:101F80002168012989B05BD04FF4C840C4F2000039
:101F900000F0DAFB08B109B0F0BD2368002BFAD1DC
:101FA00003214FF4C840C1F20041C4F2000000F028
:101FB000D9FB01280146EED14FF4C840C4F200001D
:101FC00003AA00F075FB9DF819109DF81D209DF8DF
:101FD0001AC09DF81E709DF817609DF81B509DF863
:101FE00018409DF81C009DF81F300904120441EAB6
:101FF0000C6142EA076231432A4341EA042142EA82
:10200000002001910290002BC5D1019B42F64302B2
:10201000C0F2200293421FD046F24341C0F2600159
:102020008B4215D042F24B70C0F22000834203D1A4
:10203000029A0C4BA3F85C200B4801218160AAE7AF
:102040004FF4C840C4F20000084A00F031FB9BE79F
:10205000029904484165EFE7029A024B9A64EBE764
:1020600000000020680100206C0200208C0000208D
:102070002DE9F04391B00024022001218DF8334076
:102080000D948DF838408DF839408DF83A4000F0C5
:1020900059FF01214FF0007000F062FF4FF48060A3
:1020A00008210922C4F2020001F02CFC09214FF49E
:1020B00080600A46C4F2020001F024FC01A801F08D
:1020C00013FC4FF4806002274FF4807301A9C4F21F
:1020D00002004FF4C845C4F2000501938DF8087062
:1020E00001F05AFB4FF480604FF4007201A9C4F272
:1020F0000200012601924FF00E088DF8087001F0E1
:102100004BFB6C61142168468DF800108DF801803E
:102110008DF8036001F05AFD152368468DF80030F4
:102120008DF801808DF8036001F050FD0422072036
:1021300003218DF811208DF81000ADF80C108DF8EA
:102140000F7003A92C6028468DF80E4000F02CF982
:1021500070212846C3F2F00100F036FB4FF6FF78FD
:102160004BF2400306A84BF22002ADF81830ADF850
:102170001A208DF82560ADF82040ADF81C80ADF830
:102180001E808DF823408DF822408DF8244000F009
:102190008DF90AAA2846214600F08AFA06A84BF2D1
:1021A0008001ADF81A108DF82560ADF82060ADF80B
:1021B0001840ADF81C80ADF81E808DF823408DF8D6
:1021C00022708DF8244000F071F9284631460AAAA1
:1021D00000F06EFA28463946324600F0B9FA284631
:1021E00010213246A14600F0B3FA11B0BDE8F083E9
:1021F0002DE9F041022986B039D0042933D00129D4
:102200002DD0047890F8018090F802C090F803E097
:10221000077946798579C0798DF80B400024012A29
:102220008DF812008DF808408DF80C808DF80DC0E7
:102230008DF80EE08DF80F708DF810608DF811504C
:102240004FF4C84017D0C4F2000069468DF8094029
:102250008DF80A3000F0C4F906B0BDE8F08101F550
:10226000C0610091CDE740F204640094C9E740F2F8
:1022700002650095C5E702236946C4F200008DF8A7
:10228000093000F0ADF9E7E7028ACB8822F440522A
:102290001204F0B5120C04461A4348890F898E883F
:1022A0000D4689892282A38923F4B05222F00C03BF
:1022B0003E431A040643B3B2100C43EA0006A6815B
:1022C000A28A22F4407003041E0C0E4385B0A6823D
:1022D000684600F0DDFD4FF48051C4F201018C42EC
:1022E0002CD04FF4A052C4F20102944226D0A0890F
:1022F000029B06B2002E26DB2D6803EB830101EB67
:102300008102AB00B2FBF3F148F21F53A089C5F282
:10231000EB13A3FB0156720900B2642516010028D5
:1023200002FB151118DB0D013235A3FB0553C3F376
:102330004312324391B2218105B0F0BDA089039BC5
:1023400006B2002ED8DA286803EB830606EB860572
:102350004200B5FBF2F1D7E7C8003230A3FB00130F
:10236000C3F342123243E5E7838929B923F40051CC
:102370000A04130C8381704799B241F400528281A0
:10238000704700BF838A9BB21AB923EA0101818298
:102390007047194381827047090A012303FA01F249
:1023A000D1438BB203807047036823F0020270B4FC
:1023B0000260036843F0010202604368DB070DD44A
:1023C0004FF6FF7307E04268D20707D44268D2078E
:1023D00004D4033B02D04268D207F4D5426812F01D
:1023E000010361D08C790568CE790B7A012C0CBF82
:1023F00045F0800525F08005056002684D7A012EC4
:102400000CBF42F0400222F04002026004688A7A67
:10241000012B0CBF44F0200424F020040460066863
:10242000CC7A012D0CBF46F0100626F0100606608F
:102430000368012A0CBF43F0080323F0080303607C
:102440000568012C0CBF45F0040525F00405056066
:102450008A78CE780D794C790988930743EA066229
:1024600042EA0543013943EA045242EA0103C361E7
:10247000026822F0010101604368DB070DD54FF6C9
:10248000FF7307E04168CA0707D54268D10704D542
:10249000033B02D04268D107F4D4406800F0010148
:1024A00081F0010070BC70471846FBE7F0B44FF4B0
:1024B000C843C4F20003827AD3F8001241F0010449
:1024C000C3F800420124D3F81C1204FA02F4E243D8
:1024D0001140C3F81C12017BD1B9D3F80C62B0F8DB
:1024E00006C04788858801881640C3F80C62867A42
:1024F000483647EA0C4743F83670867A46F240631E
:10250000F600C4F20003F31841EA05415960017B6B
:10251000012945D0C37A002B38D14FF4C843C4F207
:102520000003D3F804121140C3F80412038903BB5B
:102530004FF4C843C4F20003D3F814120A40C3F89E
:102540001422407B012808D14FF4C843C4F2000391
:10255000D3F81C221443C3F81C424FF4C841C4F200
:102560000001D1F8000220F00103C1F80032F0BCF4
:102570007047012BE5D14FF4C841C4F20001D1F8F6
:10258000142244EA0203C1F81432DAE74FF4C843D4
:10259000C4F20003D3F804122143C3F80412C5E7C0
:1025A0004FF4C843C4F20003B0F800C0D3F80C6283
:1025B00047888588C1882643C3F80C62867A4836E6
:1025C00047EA0C4743F83670867A46F24063F600D5
:1025D000C4F20003F31841EA054159609AE700BFCD
:1025E000826852012DE9F001034605D4806800019C
:1025F00056D50124204601E00024204604F11805A8
:102600002A019E5806F001079F5091F80880B8F102
:10261000000F3CD04E689F5891F809C048EAC608A0
:1026200048EA070747EA0C069E508F7A2D015A198F
:1026300007F00F068E72576827F00F06566056682F
:102640008F7A3E4356604A7B91F80EC0CF7A0E7B5C
:10265000120442EA0C6203EB04143A4342EA0627EE
:10266000C4F888714A7C8F7CCE7B097C120442EAD4
:102670000762324342EA0121C4F88C115A5942F0F0
:102680000101595104F5C474BDE8F00170470E68AA
:1026900091F809C09F584CEA46563E439E50C4E705
:1026A0009A68D20002D502242046A7E70420EBE76F
:1026B00001F11B0330B41C01055905F00405EDB20E
:1026C00015720459002D36D1640D14601B01C41815
:1026D000C35803F002035372636803F00F0393724D
:1026E000646800EB0113240AD474D3F8B841D4729F
:1026F000D3F8B841240A1473D3F8B841240C5473A6
:10270000D3F8B841240E9473D3F8BC41D473D3F8F2
:10271000BC41240A1474D3F8BC4103F5DC73240CC7
:1027200054745B681B0E937441B1016941F020023F
:10273000026130BC7047E4085460C7E7C36843F0E7
:102740002001C160F5E700BF806900F070007047AC
:1027500043691AB923EA0101416170471943416194
:10276000704700BF11F4700F09D0836923F07F40D8
:1027700020F470020A420CBF002001207047CB01F8
:1027800009D5436823F07F4020F470020A420CBF51
:102790000020012070470A0109D5836823F07F409B
:1027A00020F470020A420CBF0020012070478B0108
:1027B0004CBFC368036923F07F4020F470020A42D3
:1027C0000CBF0020012070477023C3F2F003994230
:1027D0000ED021F07F4222F470038A0106D44A0110
:1027E00009D40A014CBF836043607047C3607047DF
:1027F0000021816170470361704700BFFEE700BFA1
:1028000019491A4B994270B41BD2DA1C0C1D151BC6
:10281000174825F00302161D05680423B3420D6016
:10282000C2F380020DD022B142680823B342226075
:1028300007D01A1D1D5884585D500833B3428C5080
:10284000F7D10C480C494FF000028842B8BF40F85D
:10285000042BFFF6FAAFDFF82400016841F47001A1
:10286000016070BC00F06CB8000000201400002073
:10287000D473000814000020B803002088ED00E0A5
:1028800008B501F057F800F0DDFE012000F04AFF26
:1028900000F0F6FA082800D008BD0020BDE8084086
:1028A00000F01ABF2DE9F04186B006AD10200121DD
:1028B000542700F055FB4FF4805625F80C7DC4F2E8
:1028C000000600244FF6FF7829463046ADF8144044
:1028D000ADF80E40CDF8108001F0B8F93046012176
:1028E00001F010FA2020012100F03AFB4FF4A05033
:1028F0002946C4F20000ADF81440ADF80E40CDF802
:102900001080ADF80C7001F0A1F91020012100F049
:1029100019FB06A901234FF48050032241F8143D0E
:10292000C4F202008DF808308DF809208DF80B40B4
:102930008DF80A4000F030FF06B0BDE8F08100BF1E
:102940002DE9F84FFFF79CFFFFF7ACFF4FF4A060B5
:1029500001F032F901F042FE01F0E2F9FFF788FBE5
:102960009E489F4E9F4CA049DFF86C93DFF86CB3F4
:10297000002202609D480023336002609C4E9D4807
:102980003360036023606360A360E3602361E361FD
:1029900023626362A362E3626361A3610B604B60C5
:1029A0008B60CB600B614B610B624B628B61CB61C7
:1029B000914C9249924E9348C9F83430C9F8383056
:1029C000C9F83C30C9F81030C9F81430C9F81830CB
:1029D000C9F8283023600B60336003608A4C8B4950
:1029E0008B4E8C4823600B60336003608A4C8B49AC
:1029F0008B4E8C482360C9F82C30C9F83030C9F8A8
:102A00001C30C9F82030C9F82430C9F86030C9F842
:102A10004020C9F84420C9F84820C9F84C20C9F81A
:102A20005020C9F85420A9F85820A9F85A20A9F82C
:102A30005C20C9F86430C9F86830C9F80030C9F8BA
:102A40000430C9F80830C9F80C30C9F86C30C9F83E
:102A50007030C9F87430744C0B6033600360734994
:102A6000734E744822600A6032600260724C73498F
:102A7000734E744822600A6032600260724C73497F
:102A8000734E744822600A6032600260724C73496F
:102A9000734E744822600A6032600260724C73495F
:102AA000734E744822600A6032600260724C73494F
:102AB000734E744822600A6033600360724C73493D
:102AC000734E744823600B6033600360724C73492B
:102AD000734E744823600B608BF80020724933609A
:102AE0000360724E72480A600125724932700570A7
:102AF000714C7248724E0A60226017460260326062
:102B0000704A714C1360714B25701F7040F2D407EE
:102B1000C2F200073D7001F08BFA2846FFF7AAF8D1
:102B20000220FFF7A7F80420FFF7A4F82846FFF7D4
:102B3000E3F80220FFF7E0F80420FFF7DDF828466D
:102B4000FFF798F80220FFF795F80420FFF792F8B6
:102B50002846FFF759F80220FFF756F80420FFF740
:102B600053F82846FFF73CF80220FFF739F8042015
:102B7000FFF736F82846FD21FFF75AF80220FD211D
:102B8000FFF756F80420FD21FFF752F846F22840DF
:102B9000C4F20200294600F0B1FF46F22840C4F218
:102BA0000200294600F0A0FF46F22840C4F20200CD
:102BB00000F0A6FF0128F7D10246454E454CDFF84C
:102BC0002081DFF820A14FF4A050C4F20100402181
:102BD0000025FFF7D7FB374625608CE00801002071
:102BE000D8000020A400002018010020640100206B
:102BF000F80100208C0200204801002088020020FB
:102C0000FC010020F00000205802002000010020FC
:102C10005C020020FC000020140100203002002093
:102C200040020020940200202C02002020020020FC
:102C30000C020020E0010020E4010020EC00002054
:102C400084020020F4000020040100205002002033
:102C500008020020F0010020E00000205C010020BC
:102C60006002002044020020E4000020F800002060
:102C700018020020E800002000020020900200203E
:102C80004C02002040010020F401002054020020EA
:102C9000640200201002002010010020EC0100203E
:102CA000040200200C010020DC000020240200208F
:102CB00025020020280200201C02002060010020C4
:102CC000440100206802002048020020E8010020A2
:102CD0006C02002000000020680100201402002087
:102CE000140000204C0100204FF4A050C4F200005A
:102CF000002101F007F84FF4A050C4F200000021B9
:102D000000F0FCFF4FF4A0500121C4F2000000F0DD
:102D1000F9FF316819B1786808B1BA68BAB9012009
:102D200000F000FD642000F023FD0120FFF762F8B1
:102D3000642000F01DFD0220FFF75CF8642000F025
:102D400017FD0420FFF756F8642000F011FDD8F8B5
:102D50000030012B0DD04FF4A050C4F2000000F061
:102D6000CFFF4500B5F57A7FBED9002000F0DAFC30
:102D7000BAE73568012DEED17C68012CEBD1B9683A
:102D80000129E8D100F018FC00F006F9FDF7FCF984
:102D9000D9F81C0003F0F8FD35A3D3E9002304465D
:102DA0000D4604F0D5F8002849D12046294632A323
:102DB000D3E9002304F0AEF8002840D140F26810B7
:102DC000C2F20000006A03F0DFFD29A3D3E900236B
:102DD00004460D4604F0BCF888BB2046294626A3CD
:102DE000D3E9002304F096F848BB8BF80000DAED35
:102DF000007ABDEEE70A012010EE103A19B2FEF794
:102E0000D9FFDAED010ABDEEE01A022011EE101A28
:102E100009B2FEF7CFFFDAED021ABDEEE12A042077
:102E200012EE104A21B2FEF7C5FFA02002F016F8FC
:102E30000020C8F8000030607060B0608BE79BF83D
:102E400000200F2A06D8551C40F21422C2F20002BC
:102E50001570CCE740F2D40140F21424C2F2000114
:102E6000C2F20004062300200B702070BFE700BFF1
:102E7000A08EC23B52C1E03FA08EC23B52C1E0BF18
:102E80004FF46053C4F20203986800F00C007047DE
:102E90004FF46053C4F2020310B49A6802F00C01BC
:102EA000042922D0082926D04FF41052C0F2F4028F
:102EB00002604FF46053C4F2020321499C68C4F3DA
:102EC00003140C5D22FA04F242609C68C4F382246D
:102ED0000C5D22FA04F484609B68C3F34233C95C3E
:102EE00022FA01F2C26010BC704747F64002C0F2FD
:102EF0007D120260DDE75C68596814F4800F5C683D
:102F000001F03F0214BF47F640034FF41053C4F3DF
:102F100088114FF4605414BFC0F27D13C0F2F40363
:102F2000C4F20204B3FBF2F303FB01F26168C1F3E4
:102F300001435C1C6100B2FBF1F20260B9E700BF23
:102F4000040000204FF46053C4F202031A6B19B955
:102F500022EA00001863704710431863704700BFEF
:102F60004FF46053C4F202031A6C19B922EA00004C
:102F70001864704710431864704700BF4FF46053E3
:102F8000C4F202035A6C19B922EA0000586470476F
:102F900010435864704700BF2DE9F0472DED0A8BB0
:102FA000C74FC84E386CDFF82483DFF82493DFF86E
:102FB00024A38CB003F0D6FC4FF4C0430022C4F22B
:102FC000980303F05FFE02460B4603F07FFBB4A3B9
:102FD000D3E9002303F02CFD03F0C4FF09EE900AAF
:102FE000786CC7ED0D9A03F0BDFC4FF4C04300228E
:102FF000C4F2980303F046FE02460B4603F066FB5C
:10300000A7A3D3E9002303F013FD03F0ABFF08EE01
:10301000900AB86CC7ED0E8A03F0A4FC4FF4C043CD
:103020000022C4F2980303F02DFE02460B4603F083
:103030004DFB9BA3D3E9002303F0FAFC03F092FFBE
:10304000D7ED07AAB0EE6A0A08EE100AF86302F09C
:10305000FBF910EE100AB0EE40CA03F095FC97EDB4
:1030600008AAB0EE4A0ACDE9020102F0EDF910EE2D
:10307000100AB0EE409A03F087FC78EE68BA044676
:103080001BEE900A0D4603F07FFCB0EE6A0ACDE914
:10309000040102F09FF910EE100AF0EE40CA03F0AE
:1030A00073FC79EEA87ACDE9060138EE270A38EEEE
:1030B00088BA10EE100A03F067FCB0EE4A0ACDE9B8
:1030C000080102F087F978A3D3E90023DDE90201C2
:1030D000B0EE40AA03F0ACFC22462B4603F0A8FC5D
:1030E000DDE9042303F0A4FC71A3D3E90023CDE9B7
:1030F0000001DDE9060103F09BFC02460B46204679
:10310000294603F095FCDDE9082303F091FC024613
:103110000B46DDE9000103F0D9FACDE900011AEE12
:10312000100A03F031FCF8EE000A49EEA08ACDE95E
:103130000A0138EE281AD7ED0AAA11EE100A03F098
:1031400023FC5BA3D3E9002303F072FC04461AEED0
:10315000900A0D4603F018FC00230022C3F6D87332
:1031600003F066FC02460B462046294603F0AEFA01
:1031700002460B46DDE90A0103F05AFC02460B4603
:10318000DDE9000103F0A2FA4BA3D3E9002303F029
:103190004FFC03F0E7FE08EE900A43A3D3E90023B7
:1031A000DDE90601C6ED038A03F042FC02460B4648
:1031B000DDE9040103F03CFC3DA3D3E90023044610
:1031C0000D46DDE9020103F033FC02460B46DDE962
:1031D000080103F02DFC02460B462046294603F069
:1031E00073FA0446F86A0D4603F0CEFB0023002272
:1031F000C3F6D87303F01CFC02460B462046294652
:1032000003F064FA00230022C3F6D87303F03AFDFA
:1032100003F0A8FE6CEE8ACA79EE091A08EE100ACD
:103220003CEEA12A306112EE100A03F0ADFB20A3A0
:10323000D3E9002303F0FCFB044619EE900A0D4687
:1032400003F0A2FB02460B462046294603F0F0FBA2
:10325000DFED1D2A2AEE22AA2CEE8B3A2CEE0ACAAA
:1032600004460BEE8C3A09EE4B3A0D4613EE100A6B
:1032700003F08AFB0EA3D3E9002303F0D9FB024637
:103280000B462046294603F021FAD7ED0C3A49EEC9
:103290006A3A044613EE900A1EE000BFAFF30080C6
:1032A0004AD8124DFB21094099999999E4CFC23F20
:1032B0005C8FC2F5E9B8B53F555555555555054094
:1032C0006801002018010020D7B3DD3F4C02002028
:1032D00040010020F40100200D4603F055FB0023BF
:1032E0000022C3F6D87303F0A3FB02460B46204628
:1032F000294603F0EBF9ACA3D3E9002303F098FBD4
:1033000003F030FE09EE100A306886ED059A03F0EE
:103310003BFB98ED004A78EE844AF6EE009A24EEE4
:10332000A95A044615EE100A0D4603F02DFB0023A2
:103330000022C4F2690303F0A5FC02460B462046B6
:10334000294603F0C3F903F00DFE3060706803F006
:103350001BFBD9ED005A38EE256A044666EE296A51
:103360000D4616EE900A03F00FFB00230022C4F274
:10337000690303F087FC02460B462046294603F00A
:10338000A5F903F0EFFD7060B06803F0FDFA9AED67
:10339000007A79EE077A044627EEA90A0D4610EE68
:1033A000100A03F0F1FA00230022C4F2690303F0CB
:1033B00069FC02460B462046294603F087F903F0D4
:1033C000D1FD754BB0601A68022AC8ED008A89EDFC
:1033D000008A8AED009A40F3C4807048DFF8D081FB
:1033E00090ED00AA97ED099AD8ED000A79EE4A9A75
:1033F00039EEE01AB5EEC01AF1EE10FA48BFB1EEA0
:10340000411A11EE100A03F0BFFA5FA3D3E90023BB
:1034100003F09EFD002800F0A080B5EEC09AF1EE0A
:1034200010FA5F4C40F3A580256805F1FF39C4F818
:10343000009019EE100A03F0A7FA01EE909AB8EE88
:10344000E12A044672EE022A0D4612EE900A03F0BB
:103450009BFA4FA3D3E9002303F0EAFA02460B4696
:103460002046294603F032F904461AEE100A0D46AA
:1034700003F08AFA02460B462046294603F024F957
:1034800003F070FDC8ED009A09EE100A3866B0EE40
:10349000490A01F0D9FFF0EE409AB0EE490A01F076
:1034A00099FF28EE003A68EE803A08EEA93A58EE05
:1034B000293AB4EE004A23EE049A63EE849ADFF8C8
:1034C000F480B069374F86ED089AC6ED099A03F08B
:1034D0005BFAD8ED004A39EE245AB6EE009A65EE52
:1034E000095A044615EE900A0D4603F04DFA0023E2
:1034F0000022C4F2690303F0C5FB02460B462046D6
:10350000294603F0E3F803F02DFDB061F06903F004
:103510003BFA97ED006A79EE866A044666EE899A70
:103520000D4619EE900A03F02FFA00230022C4F290
:10353000690303F0A7FB02460B462046294603F029
:10354000C5F803F00FFDC8ED008A87ED008AF06131
:103550000CB0BDEC0A8BBDE8F0871149D1F80090A2
:1035600067E7786A0D49013208601A6097ED189A8A
:103570008DE749BF2268D4F8009002F10109C4F830
:10358000009056E7AFF30080666666666666E63FC3
:103590004AD8124DFB210940640100206802002036
:1035A0000801002064020020555555555555054029
:1035B000D80000205402002010B540F26814C2F276
:1035C00000042DED068B94ED08AAB0EE4A0A01F036
:1035D00077FF94ED078AF0EE40AAB0EE480A01F0BA
:1035E00033FFD4ED059AB0EE409AB0EE480A01F0F0
:1035F000F1FE29EEAA7AD4ED047AD4ED068A47EEDC
:10360000097A6AEEA8AA69EE280A4AEE807A59EE8B
:10361000800AB0EE408AB0EE4A0AC4ED0A7AC4EDE0
:103620000B0A01F0D7FE28EE888A29EE891A81EE6E
:10363000009A88EE000A79EE001AC4ED0C1ABDEC6F
:10364000068B10BDF0B54FF4A05583B0C4F202054F
:1036500020200121FFF776FC012400270226802389
:103660002846694600938DF804408DF807408DF890
:1036700006708DF8056000F08FF84FF480722846D0
:10368000694600928DF804408DF807408DF8067069
:103690008DF8056000F080F8284669464FF4007305
:1036A00000938DF804408DF807408DF806708DF872
:1036B000056000F071F840222846694600928DF8B6
:1036C00004408DF807408DF806708DF8056000F015
:1036D00063F803B0F0BD00BF012814D002281AD04F
:1036E00010B1032807D070474FF4A050C4F2020075
:1036F000402100F003B94FF4A050C4F202004FF48F
:10370000007100F0FBB84FF4A050C4F202004FF477
:10371000807100F0F3B84FF4A050C4F20200802191
:1037200000F0ECB8012814D002281AD010B10328F8
:1037300007D070474FF4A050C4F20200402100F0BF
:10374000DFB84FF4A050C4F202004FF4007100F053
:10375000D7B84FF4A050C4F202004FF4807100F0CB
:10376000CFB84FF4A050C4F20200802100F0C8B8D6
:1037700010B504464FF48050C4F20000002100F060
:10378000BDFA64084FF48050C4F2000000F0B8FAAB
:10379000A042F7D310BD00BF2DE9F00F0E6884B032
:1037A0000022884613464FF0010B00968A4607E038
:1037B000DDF80490A14539D04B1CAA1C102B54D025
:1037C000009E0BFA03F5591C05EA060C0BFA01F4EE
:1037D0002640AC45019602F10205E9D1032606FA1E
:1037E00002F907689AF804806FEA09094E463E40DC
:1037F00006600768CDF80C9008FA02F908F1FF3866
:1038000049EA0709B8F1010FC0F8009031D9C3683F
:10381000039F9AF807C0DDF804903B40C360C3687B
:103820000CFA02F21A43A145C260C5D10323046811
:103830009AF80420AB40DB431C400460046802FAA1
:1038400005FC013A4CEA0404012A046033D9C26839
:103850009AF807401340C360C26804FA05F31343A3
:10386000C3604B1CAA1C102BAAD104B0BDE8F00FFA
:103870007047D0F80880039E9AF806709AF8059071
:1038800006EA0808C0F80880D0F8088009FA02F9AA
:1038900049EA0808C0F80880D0F8048028EA0C0C2F
:1038A000C0F804C0D0F8049007FA03F39FB247EAC7
:1038B00009034360ABE786689AF805709AF806201A
:1038C0001E408660846807FA05FC4CEA04068660A0
:1038D0004768019E27EA06074760446802FA01F23A
:1038E00092B222434260B2E700234FF6FF720260B9
:1038F000037143718371C371704700BF01837047C7
:1039000041837047CB08083301F0070130B48900C8
:1039100050F823500F2404FA01F425EA040440F877
:10392000234050F8234002FA01F2144340F82340A8
:1039300030BC70474FF46D42CEF200024FF460533A
:10394000D2F88810C4F2020341F47000C2F8880073
:103950001968002241F0010018609A60186843F26B
:10396000100120F0847020F48030C2F20041186011
:103970005960196882B021F480201860DA600092E2
:1039800001921A6842F480311960184603E00099E8
:10399000B1F5A06F09D0036803F4003201920099D9
:1039A0004B1C0093019A002AF1D04FF46050C4F2EE
:1039B0000200036813F400320DD001210191019837
:1039C00001280CD04FF46D43CEF200034FF000619C
:1039D000996002B07047019201980128F2D14FF42A
:1039E0006053C4F202034FF4E042196CC4F20002C7
:1039F00041F080501864116841F4804010609A686A
:103A00009A60996841F400409860996845F21942BB
:103A100041F4A050C0F2407298605A60196841F0B9
:103A200080721A60184601684FF460538A01C4F22C
:103A30000203F8D54FF47052C4F2020240F205605E
:103A40001060996821F003029A60986840F00201C2
:103A500099609A6802F00C000828FAD1B2E700BF1A
:103A60002DE9F00FD1F80CB0D1F800A0D1F81490E6
:103A7000D1F81880D1F81CC00F6A4B6B4E6A8D6A62
:103A800002688C6B4BEA0A0A4AEA090949EA080A01
:103A900084B04AEA0C0A4AEA070701933E433543D9
:103AA000019E0092354348F23F0C009E0294CFF2F3
:103AB0001C0C06EA0C09029E0B6BCC6A0A69039384
:103AC000354345EA09054B68896805604569039EE9
:103AD00025F0070534432C43446142608360C16094
:103AE00004B0BDE8F00F7047036819B923F0010175
:103AF0000160704743F00102026070474160704707
:103B0000006800F00100704710B44FF4C84246F25C
:103B10000F444FF4C043C4F20202C4F20204C4F2E0
:103B20000203A0428CBF1046184611F0005F21F03E
:103B3000F02121F0821214BFC260826010BC704775
:103B40000B060CD54369AAB143F080038029436179
:103B50000FD0026801F01E011143016070478029F7
:103B600007D0002AF5D1036801F01E0123EA010203
:103B70000260704723F0800280294261F3D17047D0
:103B800010B44FF4C84246F20F444FF4C043C4F29D
:103B90000202C4F20204C4F20203A0428CBF104627
:103BA000184611F0005F21F0F02121F0821214BFBD
:103BB000C260826010BC70474FF46D4340F0BF603C
:103BC000CEF2000340F40031D9607047C37830B4BE
:103BD0007BB902784FF461435109CEF2000302F041
:103BE0001F022031012000FA02F243F8212030BCEC
:103BF00070474FF46D44CEF200044578E168847854
:103C00000378CA43C2F30222C2F10401C9B205FA21
:103C100001F10F2545FA02F2C9B222400A4303F12D
:103C20006043110103F56143CAB283F800230078B1
:103C30004FF46143410900F01F02CEF2000301205E
:103C400000FA02F243F82120D1E700BF00220388E6
:103C5000C4F20102904270B49BB21AD04FF4806259
:103C6000C4F20102904214D0B0F1804F11D04FF451
:103C70008062C4F2000290420BD04FF40062C4F2A2
:103C80000002904205D04FF44062C4F2000290421C
:103C900005D14FF68F724C881A4042EA04034FF464
:103CA0008052C4F20002904221D04FF4A052C4F2DC
:103CB000000290421BD04FF6FF420E894C680D88DF
:103CC0001A400023C4F20103324398420280C462C6
:103CD000058509D04FF48062C4F20102904203D0FE
:103CE0000123838270BC7047897A0186F8E70380DC
:103CF0004A680988C2620185F2E700BF41627047E5
:103D0000406A7047038829B923F001010A04130CA3
:103D10000380704799B241F001020280704700BFF2
:103D20002DE9F04F082089B00121FFF70BF94FF47E
:103D3000406401214FF48020FFF712F9C4F202041D
:103D400001214FF40010FFF7FDF80821072220465B
:103D5000FFF7D8FD08AD204607220921FFF7D2FD65
:103D60004FF4807345F8183D00260222204629466C
:103D70004FF49048C4F200088DF80C208DF80D2007
:103D80008DF80F604FF40077FFF706FD20462946B7
:103D900002970C25FFF700FD40F27834404604A955
:103DA0004FF4E123C2F200040493ADF81A50ADF8C9
:103DB0001460ADF81660ADF81860ADF81C60FEF741
:103DC00063FA44F60403C4F20003636046F2580940
:103DD0004FF40033C4F20209A36240F2180B0B2324
:103DE0004FF4806C4FF00062236148464023214627
:103DF000C2F2000B46F2280AC4F818C0C4F2020A44
:103E00002260E360C4F808B0E66226636663266257
:103E1000A663E6616661666240F274350192FFF75F
:103E20001FFE019BE660C2F20005012721465046B5
:103E30004FF480720BF1300B236062622761C4F88B
:103E400008B0FFF70DFE0D22272128466A70297061
:103E5000EF70FFF7BBFE404640F22661FEF79CFA8A
:103E6000404640F22551FEF797FA39464046FEF7A4
:103E70007BFA0C2328462B70EF706E70AE70FFF744
:103E8000A5FE4FF408415046C1F20001FFF778FE4D
:103E900010213A465046FFF753FE0E21284629705E
:103EA000EF706E70AE70FFF791FE4FF40041484620
:103EB000C1F60001FFF764FE484610213A46FFF7BD
:103EC0003FFE09B0BDE8F08FF8B5C61C0446030AF2
:103ED0000225FF22B0B24D700A70CB700C714D19E3
:103EE000002800F0A18000231A46EF5C7A405708B2
:103EF00087F4044112F0010F81F0080218BF174641
:103F0000BFB2790881F4044217F0010F82F008076C
:103F100018BF394689B24F0887F4044211F0010FE7
:103F200082F0080118BF0F46BFB2790881F404423D
:103F300017F0010F82F0080718BF394689B24F0801
:103F400087F4044211F0010F82F0080118BF0F46F8
:103F5000BFB2790881F4044217F0010F82F008071C
:103F600018BF394689B24F0887F4044211F0010F97
:103F700082F0080118BF0F46BFB2790881F40442ED
:103F800003F1010317F0010F82F008029FB208BF8E
:103F90000A46B84292B2A8D8110AD2B2AB19A955B2
:103FA00046F228000325C4F2020001215A709D70D8
:103FB000FFF7A4FD46F22800C4F202000121FFF73A
:103FC00093FD46F22800C4F20200FFF799FD012894
:103FD0000546F6D14FF49040C4F2000040212A4635
:103FE000FEF7D0F904F1080146F25800C4F20200CD
:103FF00089B2FFF783FD46F25800C4F20200294659
:10400000FFF772FD46F25800C4F20200FFF778FD98
:1040100001280246F6D14FF49040C4F200008021FE
:10402000BDE8F840FEF7AEB902460146B6E700BF6C
:1040300010B440F21803C2F20003532401229C7012
:104040000320002419465C719A71DA7110BCFFF7E5
:104050003BBF00BF4FF49040C4F20000802108B580
:104060000022FEF78FF946F25800C4F20200002148
:10407000FFF73AFD46F25800C4F20200FFF740FD98
:104080000028F7D146F25800C4F202004FF0C051A8
:10409000BDE80840FFF738BD2DE9F04F474D2A1A1B
:1040A000044692F8341092F8330041EA0026771D56
:1040B000B21D3B1B101BE9182A1891F8307092F8BA
:1040C0003020F31C05F13000C4F1020699B29BB018
:1040D00042EA07278019002900F0E38100231A46ED
:1040E00010F803C082EA0C024FEA520888F4044C2C
:1040F00012F0010F8CF0080218BF90461FFA88F8E2
:104100004FEA580C8CF4044218F0010F82F00802B8
:1041100018BF94461FFA8CFC4FEA5C0888F40442EE
:104120001CF0010F82F0080218BF90461FFA88F8B1
:104130004FEA580C8CF4044218F0010F82F0080288
:1041400018BF94461FFA8CFC4FEA5C0888F40442BE
:104150001CF0010F82F0080218BF90461FFA88F881
:104160004FEA580C8CF4044218F0010F82F0080258
:1041700018BF94461FFA8CFC4FEA5C0888F404428E
:104180001CF0010F82F0080218BF90461FFA88F851
:104190004FEA580C8CF4044203F1010318F0010FAC
:1041A00082F008021FFA83F808BF6246414592B2C6
:1041B00096D8974204D01BB0BDE8F08F18000020BD
:1041C000AE19B94D96F830109029F4D1C4EB050B17
:1041D0005F460320FFF780FA3A46CDF808B092F820
:1041E0006020CDF80CB01892029ACDF810B092F879
:1041F0006420CDF814B00292039ACDF818B092F86A
:104200006820CDF81CB00392049AA84B92F837208E
:104210000492059A92F83B200592069A92F83F2064
:10422000DA465E4638460692079A9AF83CA096F817
:10423000546090F8580092F84320D946D846DC469E
:10424000DE46394697F850709BF838B099F84090A0
:1042500098F844809CF848C09EF84CE091F85C10B7
:10426000079283F804A083F824701E741875189FB1
:10427000029EDDF80CA0049883F800B0C4EB050B97
:1042800083F8089083F80C8083F81CC083F820E042
:10429000197683F86C7083F8706083F874A0CDF899
:1042A00020B0CDF824B0CDF828B0CDF82CB0CDF8A2
:1042B00030B0CDF834B0CDF838B0CDF83CB0CDF852
:1042C00040B0CDF844B0CDF848B0CDF84CB0CDF802
:1042D00050B0CDF854B0CDF858B0CDF85CB05870AF
:1042E00005999BF84BC059715946069A91F83E10B2
:1042F000079F029113999BF84F0091F842109BF889
:104300005360039114999BF85BE091F846109BF879
:104310006380049115999BF8679091F84A109BF877
:1043200036A0059116995A7291F84E109BF84720C5
:104330005F73CDF860B09BF85770CDF864B0CDF8DE
:1043400004C09BF85FC09BF83AB0069117995A7762
:1043500091F85210019A83F82500029807912C1BBE
:1043600083F821205E745F7583F871809872A0468F
:10437000039E049F0599069A079883F819E083F82D
:104380006DC098F835E098F839C083F8759083F8D7
:1043900002A083F806B09E739F7798F8626098F841
:1043A000667083F8221083F8262094F856109874CB
:1043B000424694F85A00A146C24694F85E40C3466D
:1043C00098F83D801694CDF8088099F841909AF8B5
:1043D00045A092F84D40CDF80C909BF849B0CDF82F
:1043E00010A0DDF84480DDF848A083F87260039ED9
:1043F000CDF814B0069498F8519099755246987675
:10440000169983F8767083F803E00298DE73059FAF
:10441000049EDDF818E09AF8558092F861B083F8B0
:104420006E10D872CDF81C9014469AF8599083F803
:1044300007C09AF85DA0DE7783F8237083F827E041
:10444000079A83F81B90DA7493ED076AD3ED046A38
:1044500093ED097AD3ED067A94F8652083F81780F6
:104460004FF48050B1EE460AF1EE660AB1EE471AFB
:10447000F1EE671A012183F86FA083F873B0C4F2DC
:10448000020083F8772083ED070AC3ED040A83ED69
:10449000091AC3ED061AFFF731FA054B012119601D
:1044A00089E60A4685E600BF180000206801002062
:1044B0001400002046F2280010B5C4F202000021CA
:1044C000FFF712FB46F22800C4F20200FFF718FBC8
:1044D0000028F7D1404CE36E032B0FD8DFE803F040
:1044E000564702390220FFF7D7FD46F22800C4F2F2
:1044F00002003C21FFF702FB0320E06646F22800A1
:10450000C4F202000121FFF7EFFA46F22800C4F2DC
:104510000200FFF7F5FA01280446F6D146F228001A
:104520004FF40061C4F20200C1F20001FFF7ECFA9F
:104530004FF490404021C4F200002246FDF722FFD4
:104540004FF48050C4F202002146BDE81040FFF74E
:10455000D7B994F83000FF2824D046F22800002371
:10456000C4F202000121E366FFF7C8FAC6E794F837
:104570003040194A46F22800022CC4F2020021D031
:1045800000230121D366FFF7B9FAB7E794F830109A
:10459000FF291CD046F22800C4F202000121FFF7D7
:1045A000ADFAABE70C4991F83120022AD5D10020B1
:1045B000FFF772FD46F22800C4F202003C21FFF72B
:1045C0009DFA9BE73A21D466FFF798FA96E7024CEA
:1045D0000120E066DEE700BF180000202DE9F04F63
:1045E000042089B00121FEF7ADFC40200121FEF737
:1045F000A9FC4FF4006720200121FEF7BFFCC4F2A4
:10460000020701214FF480004FF4C056FEF79AFCD8
:1046100008AC384606210822C4F20206FFF772F9F8
:104620004FF0400A082230460921FFF76BF944F8A1
:1046300018AD00250223384621464FF4A057C4F296
:1046400001078DF80C308DF80D308DF80F50FFF705
:10465000A3F84FF400723046214602924FF4E1264F
:10466000FFF79AF840F278340C23384604A9C2F2D6
:1046700000040496ADF81A30ADF81450ADF8165099
:10468000ADF81850ADF81C50FDF7FEFD41F20443A3
:10469000C4F20103636046F2A0484FF40033C4F251
:1046A0000208A3624FF4806240F298234FF0206B1F
:1046B00040462146A261C2F20003A52246F22849E3
:1046C000C4F202092261A360E56225636563256285
:1046D000A563E56165616562C4F800B0C4F80CA02B
:1046E000FFF7BEF940F260330126C2F20003214613
:1046F00048464FF48072A36062622661C4F800B03D
:10470000E560FFF7ADF90D22472101A88DF80520DE
:104710008DF804108DF80760FFF758FA384640F21C
:104720002661FDF739FE384640F22551FDF734FE8B
:1047300031463846FDF718FE392301A88DF80430BC
:104740008DF807608DF805508DF80650FFF73EFA9A
:104750004FF408414846C1F20001FFF711FA324612
:1047600048461021FFF7ECF9452101A88DF8041007
:104770008DF807608DF805508DF80650FFF726FA82
:104780004FF400414046C2F22001FFF7F9F94046DC
:1047900010213246FFF7D4F909B0BDE8F08F00BF11
:1047A00046F2A04008B5C4F202000021FFF79CF9D0
:1047B00046F2A040C4F20200FFF7A2F90028F7D1A8
:1047C000002146F2A040C4F20200C2F22001BDE87E
:1047D0000840FFF799B900BF2DE9F00FAD4BAE4E81
:1047E000C0F11105C0F11201C0F1020400225F5DA9
:1047F000595C1C5D3260C0F1010641EA072784B0B4
:10480000F5180234114615F802C081EA0C014FEA8E
:10481000510888F4044C11F0010F8CF0080118BF06
:1048200088461FFA88F84FEA580C8CF4044118F0B7
:10483000010F81F0080118BF8C461FFA8CFC4FEA6B
:104840005C0888F404411CF0010F81F0080118BFD6
:1048500088461FFA88F84FEA580C8CF4044118F087
:10486000010F81F0080118BF8C461FFA8CFC4FEA3B
:104870005C0888F404411CF0010F81F0080118BFA6
:1048800088461FFA88F84FEA580C8CF4044118F057
:10489000010F81F0080118BF8C461FFA8CFC4FEA0B
:1048A0005C0888F404411CF0010F81F0080118BF76
:1048B00088461FFA88F84FEA580C8CF4044102F13C
:1048C000010218F0010F81F008011FFA82F808BFF9
:1048D0006146444589B296D88F4203D004B0BDE802
:1048E000F00F7047995D6D4C01F00F02013A217095
:1048F0000E2A4BD8DFE812F06E000F008900DE00B0
:104900008D00A80026002A002E00320036003A0052
:104910003E0042004600C0F10304C0F10701E51863
:10492000CE18C0F10B02D31835431D4315F0030F09
:10493000584B40F0D1805A48E458C958D258446185
:1049400081614262574A07201070C7E7554B082023
:104950001870C3E7534A09211170BFE7514B0A2071
:104960001870BBE74F4A0B211170B7E74D4B0C2075
:104970001870B3E74B4A0D211170AFE7494B0E2079
:104980001870ABE747490F220A70A7E7C0F1070488
:10499000C0F10B01E618CA18C0F10305EB18324349
:1049A0001A4392073B4B40F058813D4AED58E0587E
:1049B000C958D561106251623A4A117839B13A4802
:1049C0003A4900230360436039480B6003600023C9
:1049D000137083E7C0F10304C0F10701E518CE1896
:1049E000C0F10B02D31835431D4315F0030F294BBB
:1049F00040F073812A48E458C958D2588462C16291
:104A00004262284A0120107068E7264B03221A7080
:104A100064E7C0F10304C0F10701E518CE18C0F146
:104A20000B02D31835431D4315F0030F194B40F00B
:104A3000D1801B48E458C958D2588462C16242628E
:104A4000184A0520107049E7C0F10304C0F10701BE
:104A5000E518CE18C0F10B02D31835431D4315F0ED
:104A6000030F0C4B76D10E48E458C958D258C46194
:104A7000016242620B480278062A07D00A490B4AB3
:104A800000230B604B600A4913600B600623037020
:104A900024E700BF60030020DC000020B4030020F6
:104AA000A4000020E80100201801002004020020DA
:104AB0000C010020AA4A117804290AD0A94CAA485E
:104AC000236EAA49002404604460A9484B628B60AD
:104AD00003600421117001E7C0F1040B595C1C5DF7
:104AE0000291C0F1080AC0F10C09C0F10508C0F13B
:104AF000090CC0F10D07C0F10606C0F10A05C0F1AE
:104B00000E00039013F80B109848DDF80CB09A5C77
:104B100013F80AA013F8099013F8088013F80CC0D2
:104B2000DF5D9E5D5D5D047513F80B30029C80F8BF
:104B300024200476417580F819A080F8259080F82B
:104B4000168080F81AC080F82670C675C57680F881
:104B50002730F7E6C0F1040B595C1C5D0291C0F1EF
:104B6000080AC0F10C09C0F10508C0F1090CC0F138
:104B70000D07C0F10606C0F10A05C0F10E00039052
:104B800013F80B107948DDF80CB09A5C13F80AA002
:104B900013F8099013F8088013F80CC0DF5D9E5DD0
:104BA0005D5D047713F80B30029C80F8242080F8B8
:104BB0002040417780F821A080F8259080F81E8061
:104BC00080F822C080F82670C67780F8235080F8DD
:104BD00027304FE7C0F1040B595C1C5D0291C0F116
:104BE000080AC0F10C09C0F10508C0F1090CC0F1B8
:104BF0000D07C0F10606C0F10A05C0F10E000390D2
:104C000013F80B105948DDF80CB09A5C13F80AA0A1
:104C100013F8099013F8088013F80CC0DF5D9E5D4F
:104C20005D5D80F8284013F80B30029C80F824204A
:104C300080F82C4080F8291080F82DA080F825906D
:104C400080F82A8080F82EC080F8267080F82B60CB
:104C500080F82F5080F82730F2E6C0F10407039760
:104C6000C0F10E021C5D0192C0F1080BC0F10C0AEC
:104C7000C0F10509C0F10908C0F10D0CC0F106072B
:104C8000C0F10A06039802941C5C0198374A5D5DE6
:104C9000595C13F80BB013F80AA013F8099013F835
:104CA000088013F80CC0DF5D9E5D1B5C02981577D1
:104CB00082F8200082F82410547782F821B082F81C
:104CC00025A082F81E9082F8228082F826C0D7772D
:104CD00082F8236082F827306EE6C0F1040B595C3D
:104CE0001C5D0291C0F1080AC0F10C09C0F1050871
:104CF000C0F1090CC0F10D07C0F10606C0F10A05AC
:104D0000C0F10E00039013F80B101848DDF80CB03A
:104D10009A5C13F80AA013F8099013F8088013F8A6
:104D20000CC0DF5D9E5D5D5D80F8284013F80B30A0
:104D3000029C80F8242080F82C4080F8291080F80C
:104D40002DA080F8259080F82A8080F82EC080F869
:104D5000267080F82B6080F82F5080F8273050E6BE
:104D6000E80100206801002018010020A4000020B4
:104D7000EC01002046F2284010B5C4F202000021E8
:104D8000FEF7B2FE46F22840C4F20200FEF7B8FE7B
:104D900003460028F6D12F4C226F012A3FD025D39D
:104DA000022A2FD046F22840C4F202000121FEF769
:104DB0009BFE46F22840C4F20200FEF7A1FE012845
:104DC0000446F6D146F228404FF40061C4F20200D6
:104DD000C1F20001FEF798FE4FF4A050C4F20100AA
:104DE00040212246BDE81040FDF7CCBA1A480378AE
:104DF000482B2BD046F22840C4F202001321FEF7C4
:104E00007DFECFE714490A78482A15D046F228409B
:104E1000C4F2020001212367FEF770FEC2E71046CC
:104E2000FFF7DAFC46F22840C4F202001421FEF734
:104E300065FE02222267B5E7FFF7CEFC46F2284066
:104E4000C4F202001421FEF759FEABE701212167ED
:104E5000D0E700BF18000020600300202DE9F04FCC
:104E6000B64BB74ADE1C46EA020444216707597074
:104E700089B0014640F01B8272E80745C6E900454B
:104E8000B04892F86050B04E92F8618092F862E0BB
:104E900092F86370DD7200F1280446EA04054FF0D1
:104EA000040C6D0783F80C8083F80DE09F738DF878
:104EB00018C040F08182D0E90A45C6E900450825BE
:104EC00000F13004681C5E1914F8017BAC44C0B2D8
:104ED0006045F77319D001253DB11F18013014F852
:104EE000016BC0B26045FE730FD02546471CFEB271
:104EF000181815F801EB677880F80FE09C19013657
:104F0000F0B2E7736C1C6045EFD19048904F40EAD7
:104F100007040C2564078DF8185040F02C82D7E95F
:104F20000045D7E904AB8446ECE80245C0E904AB90
:104F3000D7E90245D7E90689D7E908ABCCE90045AE
:104F4000C0E90689C0E908AB824E834846EA0007FB
:104F500028257F078DF8185040F02982D2E90445B2
:104F6000C6E9004508254FF0040E4419681C5E1977
:104F700014F8017B0EEB050CC0B2604586F8437057
:104F80001BD0012545B11F18013014F8016BC0B2C8
:104F9000604587F8436010D02546471CFEB21818BC
:104FA00015F801EB677880F843E09C190136F0B200
:104FB00084F843706C1C6045EED1684F684847EA3E
:104FC00000054FF00C0C6D078DF818C040F0E18122
:104FD000D2E90D45C7E9004508254FF0040C4419F6
:104FE000681C5E1914F8017BAC44C0B2604586F8B9
:104FF0004F701BD0012545B11F18013014F8016B0B
:10500000C0B2604587F84F6010D02546471CFEB2FD
:10501000181815F801EB677880F84FE09C190136F5
:10502000F0B284F84F706C1C6045EED14D4F4E4885
:1050300047EA00054FF00C0C6C078DF818C040F0E3
:10504000AB81F0E802454FF0040CC7E900450825A4
:105050000446681C5E1914F8017BAC44C0B260457C
:1050600086F85B701BD0012545B11F18013014F87C
:10507000016BC0B2604587F85B6010D02546471CC5
:10508000FEB2181815F801EB677880F85BE09C1900
:105090000136F0B284F85B706C1C6045EED1334E83
:1050A000334846EA00070C257F078DF8185040F07A
:1050B0007981D0E900453746D0E90489E7E802451F
:1050C000D0E90245C6E904891826C7E900454FF032
:1050D000040C8519981915F8017B184C80F8677035
:1050E000B444701CF743604507F001061BD046B17D
:1050F0001E18013015F8017BC0B2604586F8677054
:1051000011D02E46441CE4B2181816F801EB6F7843
:1051100080F867E01D190134E0B285F86770751CEE
:105120006045064CEDD19DF8196012489DF81B5062
:105130009DF81A7084F884601EE000BF9802002079
:105140008401002068010020A7020020B302002093
:1051500018010020DB02002078010020E702002077
:105160009C010020F30200204C010020FF020020DF
:10517000A40000201F03002040EA02064FF0000CAC
:10518000760784F8865084F883C084F885708C4D47
:1051900040F0A880D5E90067D5E90245E0E802675C
:1051A000C0E900458748884F40EA07041026640795
:1051B0008DF8186040F0F280D2E91B45C7E9004540
:1051C00008274FF0040EC019DA1910F8016B7F4D53
:1051D00082F897607C1C0EEB070CE2B262451CD093
:1051E000012747B19C18013210F8016BD2B2624519
:1051F00084F8976011D00446551CEDB29A1814F843
:10520000017B467882F8977058190135EAB280F828
:105210009760601C62456D4DEDD16C4AA9704824C1
:1052200013462C708E1C13F8014FD743AD19781913
:105230000C27AB428DF8187000F0010011D030B18E
:10524000134613F8022FA418AB42A4B209D0587821
:105250005A1C9B78241813FA84F0531CAB4284B276
:10526000F5D15B4B9A199C5546F2A0400323C4F23A
:10527000020005315370FEF741FC46F2A040C4F233
:1052800002000121FEF730FC46F2A040C4F2020009
:10529000FEF736FC0128F7D102464FF4A050C4F2C5
:1052A0000100802109B0BDE8F04FFDF76BB812F89E
:1052B0001C8992F81DC092F81EE0D77F92F82060FA
:1052C00092F8215092F8224092F8230083F803804C
:1052D00083F804C083F805E09F71DE711D725C7273
:1052E0009872CDE56879AF7995F80380EE790090F2
:1052F0000197287A95F8029095F804C084F88A807E
:10530000DDF80480029603906F7AAE7A95F800B0CB
:1053100095F801A084F8899084F88BC0DDF800909E
:10532000DDF808C084F88D80DDF80C8095F80BE07E
:10533000A87B049705962F7B6E7B84F88C90ED7B81
:1053400084F88EC084F887B084F888A084F88F80B1
:10535000DDF81090DDF814C084F8909084F891C0C6
:1053600084F892E084F8937084F8946084F895004F
:1053700084F8965016E77C1E013807F12705661C55
:10538000647877784470741C87700230AC42F6D130
:10539000DAE50025044623E6002559E64FF00C0E19
:1053A000002711E74FF01C0C0026054692E64FF04F
:1053B0000C0E00250446D9E54FF00C0C002581E5C4
:1053C00068010020D40100202F0300209802002053
:1053D0009902002000B510EE101A40F6D87321F0A3
:1053E0000042C3F649739A4283B017DDB2F1FF4F12
:1053F00003DB30EE400A03B000BD684600F08AF8D7
:1054000000F0030001289DED000ADDED010A0FD038
:10541000022808D088B900F0C3F9ECE7DFED090AEB
:1054200000F0BEF9E7E700F0BBF9B1EE400AE2E7B1
:1054300000F052FFB1EE400ADDE7012000F04CFF22
:10544000D9E700BF0000000000B510EE101A40F6CA
:10545000D87321F00042C3F649739A4283B018DD35
:10546000B2F1FF4F03DB30EE400A03B000BD6846E7
:1054700000F050F800F0030001289DED000ADDED7A
:10548000010A12D002280AD090B9012000F024FFAE
:10549000EBE7DFED0A0A002000F01EFFE5E7012040
:1054A00000F01AFFB1EE400ADFE700F079F9DCE71F
:1054B00000F076F9B1EE400AD7E700BF0000000027
:1054C00000B510EE101A40F6DA7321F00042C3F670
:1054D00049739A4283B015DDB2F1FF4F03DB30EE22
:1054E000400A03B000BD684600F014F800F0010067
:1054F00043009DED000ADDED010AC3F1010000F05B
:1055000031FFEEE7DFED020A012000F02BFFE8E7B4
:105510000000000070B510EE102A40F6D87322F09B
:105520000044C3F649739C4286B010EE106A0546EB
:1055300077DD4CF6E330C4F2160084421CDC4FF4F5
:105540007D60002A24F00F04C3F6C970DFED8A7A6B
:1055500040F3DB80844230EE676A71D09FED872A8A
:1055600036EE420A012076EE402A85ED000A32EE40
:10557000C23A85ED013A59E04FF47861C4F24931FD
:105580008C426FDDB4F1FF4F52DAE215863AA4EB9C
:10559000C25407EE104AFDEEC77ADFED796AB8EE25
:1055A000E70A77EE400A8DED030A20EEA61AFDEE1B
:1055B000C11AB8EEE14A31EE442A8DED044A62EE9A
:1055C000262AF5EE402AF1EE10FACDED052A40F03C
:1055D000AF800323B5EE404A013BF1EE10FA04A878
:1055E00007D130ED014AB5EE404A013BF1EE10FA29
:1055F000F7D06448022100910190294603A800F0E9
:1056000051F9002E12DA95ED003AD5ED013AB1EEDE
:10561000436AB1EE637A85ED006A85ED017A404216
:1056200004E0002185ED000A4160002006B070BD55
:1056300030EE405A002085ED015A85ED005AF5E71D
:10564000DFED517A9FED517A76EE670A012070EE18
:10565000C76A30EEE61AC5ED006A71EE471AC5ED6D
:10566000011AE3E700F06AFF9FED496AF6EE005A7F
:1056700040EE065ADFED407ABDEEE57ADFED3F0AF7
:1056800017EE100AF8EEC76A1F2806EEE70A66EE64
:10569000A04A14DC411E3F4B53F8211024F0FF02B6
:1056A0008A420CD030EE643A85ED003A70EE435AEF
:1056B000002E75EEE43AC5ED013AB7DAA7E730EE11
:1056C000643AE41513EE102AC2F3C753E11A08290D
:1056D000EADD9FED2D1A66EE811ADFED2C2A30EE01
:1056E000612A30EE420A70EE614A56EEA24A32EE6C
:1056F000643A13EE102AC2F3C753E41A192C2CDCB7
:1057000085ED003AB0EE420AD0E7844270EE270AF7
:1057100010D0DFED1A3A30EEA34A4FF0FF3070EEB2
:10572000C44A85ED004A34EEA35A85ED015A7DE75F
:1057300003235EE7DFED141A9FED141A30EEA12A61
:105740004FF0FF3032EE010A72EE402A85ED000A7A
:1057500032EE813A85ED013A68E79FED0F3A66EE49
:10576000833A9FED0E5A32EE630A32EE404A74EEEF
:10577000634A56EE854A95E7800FC93F4344353763
:1057800000008043847000080044353708A3852E4C
:1057900084F9223F0470000800A3852E32318D2445
:1057A00010EE102A22F00043B3F1485F2CDAFDEE30
:1057B000C07A17EE903A002B65D020EE004ADFED5C
:1057C000334A9FED335A44EE054ADFED326A54EE18
:1057D000846A9FED317A06EE847A9FED301A17EED7
:1057E000041ADFED2F1A41EE041A21EE842A60EE2E
:1057F000202A54EE022AF6EE005A54EE252AB7EE7D
:10580000003A33EE620A704720EE004A9FED1F7A9D
:10581000DFED1F6A04EE267A9FED1E1A17EE041ABA
:10582000DFED1D1A41EE041A9FED1C2A11EE842AA9
:10583000DFED1B2A42EE042A49F69910C3F699605F
:10584000834222EE842AD2DD0021C3F648718B42C6
:1058500014DC03F17F4203EE902AF7EE005A35EE96
:10586000E33A60EE200AB6EE006A54EE063A54EED1
:10587000020A33EEE00A33EE400A7047B6EE073A0A
:10588000F5EE023AEDE7B7EE000A7047F6740F3115
:105890004ED747AD7CF29334010DD037610BB63A49
:1058A000ABAA2A3D2DE9F04F2DED068BD7B0234C46
:1058B000669D029154F8257003F1FF381D46D31EF2
:1058C00048BF131D0646D81020EAE0710391CC436F
:1058D000039B02EBC40218EB07000092C8EB030124
:1058E0005AD40C18679A631A0134002902EB810E0E
:1058F00003F00100C0F2B5829EED005AF8EEC57AC1
:105900004B1C19AA17EE901A42F8041F0421A34257
:1059100042D040B3002BA5BF5EF8010005EE100A8F
:10592000DFED097AF8EEC57A013317EE900A0431FB
:10593000A34242F8040F16D12EE000BF9C7300086A
:105940000000803B00008043000000005EF8012062
:1059500005EE102A0133F8EEC57A021D0431A34288
:10596000C0ED017A18D0002BA5BF5EF8010005EE4E
:10597000100A5FED0B7AF8EEC57A101D0431013381
:10598000C2ED017AE2D55FED107A0133021D0431D8
:10599000A342C0ED017AE6D1002F4FEA870945DB2B
:1059A00042AB1FED176A41AC284603EB090AB8F178
:1059B000000FC0F23E821AAA02EB800212ED010A29
:1059C00096ED007AB0EE465A07EE005A012305F133
:1059D000FF3C043AAB420CEA030B3146F0EE450AB9
:1059E0001DD0BBF1000F09D0D6ED016A32ED011ACE
:1059F0000223311DAB4246EE810A10D0D1ED011ACF
:105A000012ED012A41EE820AD1ED022A12ED023A8C
:105A100002330831083AAB4242EE830AEED110EE6F
:105A2000902A44F8042F01305445C0D17C1E06A8AA
:105A300000EB84015FED3E8A1FED3E8A1FED3E9A2A
:105A400000EB090B0494B946059101974FEA8904CC
:105A500056AF3A19B9F1000F12ED140A52DD60EE9B
:105A6000283A42A8BDEEE34A0719F8EEC44A05A950
:105A700004EEC80A06ABFDEEC05A0A1977ED019A8A
:105A80009342C3ED005AC2F3800039EEA40A39D024
:105A9000A0B120EE28AAB0EE407AFDEECA7A07AB9C
:105AA000B8EEE75A37ED016A05EE487A9342FDEE0B
:105AB000C70A36EE050AC3ED000A23D060EE286A55
:105AC00037ED011AFDEEE61A191DB8EEE12A77ED61
:105AD000012A31EE023A02EE480A63EE283ABDEEA0
