:020000040800F2
:10000000EC0A0020A90A0008150B0008150B0008CF
:10001000150B0008150B0008150B00080000000068
:10002000000000000000000000000000150B0008A8
:10003000150B000800000000150B0008150B000848
:10004000150B0008150B0008150B0008150B000810
:10005000150B0008150B0008150B0008150B000800
:10006000150B0008150B0008150B0008150B0008F0
:10007000291C0008150B0008D11B0008150B0008EF
:10008000150B0008150B0008150B0008150B0008D0
:1000900089010008D1030008150B0008150B0008A2
:1000A000150B0008150B0008150B0008150B0008B0
:1000B000150B0008150B0008150B0008150B0008A0
:1000C000150B0008150B0008150B0008150B000890
:1000D000150B0008150B0008150B0008150B000880
:1000E000150B0008150B0008150B0008150B000870
:1000F000150B0008150B0008150B0008150B000860
:10010000150B0008150B0008150B0008150B00084F
:10011000150B0008150B0008150B0008150B00083F
:10012000150B000839250008150B0008150B0008F1
:10013000150B0008150B0008150B0008150B00081F
:10014000150B0008150B0008150B0008150B00080F
:10015000150B0008DD240008150B0008150B00081E
:10016000150B0008150B0008150B0008150B0008EF
:10017000150B0008150B0008150B0008150B0008DF
:10018000150B0008150B000880B588B000AF07F10B
:100190000803FB6140F20003C2F200031B68012B5D
:1001A0000BD14FF4C840C4F200004FF0000140F200
:1001B0009402C2F2000200F013FB4FF4C840C4F2F4
:1001C000000000F0E1FB0346002B14BF00230123D5
:1001D000DAB240F20003C2F200031B68002B14BF26
:1001E00000230123DBB21340DBB2002B00F0EB80D5
:1001F0004FF4C840C4F200004FF00301C1F20021E7
:1002000000F0D6FB0346012B40F0DD804FF4C840E0
:10021000C4F200004FF00001FA6900F0E1FAFB6956
:100220009B7B4FEA0362FB695B7B4FEA03431A4304
:10023000FB691B7B4FEA03231A43FB69DB7A1343F9
:100240007B60FB699B7C4FEA0362FB695B7C4FEA46
:1002500003431A43FB691B7C4FEA03231A43FB69E0
:10026000DB7B13433B60FB7E002B54D14FF001003E
:1002700002F0D4FD7B6842F64302C0F220029342B2
:100280002CD042F64302C0F2200293420CDC42F230
:100290004B72C0F22002934227D042F26072C0F249
:1002A000200293422BD029E046F24342C0F2600282
:1002B00093420CD046F26042C0F26002934220D0DA
:1002C00042F66002C0F2200293421CD016E03A6867
:1002D00040F21813C2F20003DA6415E03A6840F203
:1002E0001813C2F200031A640EE03B689AB240F29F
:1002F0001813C2F20003A3F8582005E004E000BF81
:1003000002E000BF00E000BF40F2B013C2F2000301
:100310004FF001021A60FB7E012B54D14FF0020016
:1003200002F07CFD7B6842F64302C0F22002934259
:100330002CD042F64302C0F2200293420CDC42F27F
:100340004B72C0F22002934227D042F26072C0F298
:10035000200293422BD029E046F24342C0F26002D1
:1003600093420CD046F26042C0F26002934220D029
:1003700042F66002C0F2200293421CD016E03A68B6
:1003800040F21813C2F200031A6515E03A6840F211
:100390001813C2F200035A640EE03B689AB240F2AE
:1003A0001813C2F20003A3F85A2005E004E000BFCE
:1003B00002E000BF00E000BF40F2B013C2F2000351
:1003C0004FF001025A6007F12007BD4680BD00BF13
:1003D00080B588B000AF07F10803FB6140F200036D
:1003E000C2F200031B68012B0BD14FF4C840C4F2CA
:1003F00000004FF0010140F29402C2F2000200F04E
:10040000EFF94FF4C840C4F2000000F0BDFA034613
:10041000002B14BF00230123DAB240F20003C2F222
:1004200000031B68002B14BF00230123DBB2134021
:10043000DBB2002B00F093804FF4C840C4F2000000
:100440004FF00301C1F2004100F0B2FA0346012B64
:1004500040F085804FF4C840C4F200004FF0010125
:10046000FA6900F0BDF9FB699B7B4FEA0362FB6907
:100470005B7B4FEA03431A43FB691B7B4FEA032371
:100480001A43FB69DB7A13437B60FB699B7C4FEA71
:100490000362FB695B7C4FEA03431A43FB691B7CE5
:1004A0004FEA03231A43FB69DB7B13433B60FB7E6C
:1004B000002B54D14FF0030002F0B0FC7B6842F6F1
:1004C0004302C0F2200293422CD042F64302C0F213
:1004D000200293420CDC42F24B72C0F220029342A3
:1004E00027D042F26072C0F2200293422BD029E062
:1004F00046F24342C0F2600293420CD046F26042A0
:10050000C0F26002934220D042F66002C0F22002A4
:1005100093421CD016E03A6840F21813C2F200036E
:100520005A6515E03A6840F21813C2F200039A6463
:100530000EE03B689AB240F21813C2F20003A3F82F
:100540005C2005E004E000BF02E000BF00E000BF67
:1005500040F2B013C2F200034FF001029A6007F1BB
:100560002007BD4680BD00BF80B58AB000AF78606F
:1005700039604FF000037B624FF000033B624FF0A5
:100580000003FB614FF00003BB617B681B8A9BB2D9
:100590007B627B6A23F440537B623B68DB887A6A28
:1005A00013437B627B6A9AB27B681A827B689B8961
:1005B0009BB27B627B6A23F4B05323F00C037B6213
:1005C0003B689A883B681B8913439AB23B685B89F6
:1005D00013439BB27A6A13437B627B6A9AB27B684D
:1005E0009A817B689B8A9BB27B627B6A23F440730F
:1005F0007B623B689B897A6A13437B627B6A9AB20F
:100600007B689A8207F10803184600F0D9FA7A68E5
:100610004FF48053C4F201039A4206D07A684FF433
:10062000A053C4F201039A4202D17B693B6201E00C
:100630003B693B627B689B899BB29BB21BB2002BE0
:100640000FDA3A6A13464FEA83039B184FEA830294
:100650009A183B681B684FEA4303B2FBF3F3FB6154
:100660000EE03A6A13464FEA83039B184FEA83026F
:100670009A183B681B684FEA8303B2FBF3F3FB61F4
:10068000FA6948F21F53C5F2EB13A3FB02134FEABA
:1006900053134FEA03137B627B6A4FEA13134FF045
:1006A000640202FB03F3FA69D31ABB617B689B897E
:1006B0009BB29BB21BB2002B12DABB694FEAC30399
:1006C00003F1320248F21F53C5F2EB13A3FB0213EE
:1006D0004FEA531303F007037A6A13437B6211E076
:1006E000BB694FEA031303F1320248F21F53C5F20C
:1006F000EB13A3FB02134FEA531303F00F037A6AC1
:1007000013437B627B6A9AB27B681A8107F12807E0
:10071000BD4680BD80B483B000AF78600B46FB70EF
:10072000FB78002B08D07B689B899BB243F4005375
:100730009AB27B689A8107E07B689B899BB223F41D
:1007400000539AB27B689A8107F10C07BD4680BCC2
:10075000704700BF80B483B000AF786013460A468C
:100760007A807B707B78002B08D07B689B8A9AB25A
:100770007B8813439AB27B689A820AE07B689B8AE3
:100780009AB27B886FEA03039BB213409AB27B68EC
:100790009A8207F10C07BD4680BC704780B485B0D3
:1007A00000AF78600B467B804FF00003FB814FF079
:1007B0000003BB817B884FEA1323FB81FB894FF049
:1007C000010202FA03F3BB81BB896FEA03039AB209
:1007D0007B681A8007F11407BD4680BC704700BFD4
:1007E00080B485B000AFF8600B467A60FB72FB7A8C
:1007F000FA6803F11B034FEA0313D3181B68DBB23B
:1008000003F00403DAB27B681A727B681B7A002B50
:100810000CD1FB7AFA6803F11B034FEA0313D318D8
:100820001B684FEA53527B681A600BE0FB7AFA6848
:1008300003F11B034FEA0313D3181B684FEAD302DB
:100840007B685A60FB7AFA6803F11B034FEA0313D3
:10085000D3181B68DBB203F00203DAB27B685A726A
:10086000FB7AFA6803F11B034FEA0313D3185B68A2
:10087000DBB203F00F03DAB27B689A72FB7AFA6894
:1008800003F11B034FEA0313D3185B684FEA1323EA
:10089000DAB27B68DA74FB7AFA684FEA0313D3188A
:1008A00003F5DC731B68DAB27B68DA72FB7AFA68EC
:1008B0004FEA0313D31803F5DC731B684FEA1323C5
:1008C000DAB27B681A73FB7AFA684FEA0313D3181B
:1008D00003F5DC731B684FEA1343DAB27B685A7383
:1008E000FB7AFA684FEA0313D31803F5DC731B682D
:1008F0004FEA1363DAB27B689A73FB7AFA684FEABD
:100900000313D31803F5DC735B68DAB27B68DA7320
:10091000FB7AFA684FEA0313D31803F5DC735B68BC
:100920004FEA1323DAB27B681A74FB7AFA684FEA4B
:100930000313D31803F5DC735B684FEA1343DAB291
:100940007B685A74FB7AFA684FEA0313D31803F5ED
:10095000DC735B684FEA1363DAB27B689A74FB7AE4
:10096000002B06D1FB68DB6843F02002FB68DA60ED
:1009700005E0FB681B6943F02002FB681A6107F180
:100980001407BD4680BC704780B485B000AF786066
:100990004FF00003FB737B689B69DBB203F07003CD
:1009A000FB73FB7B184607F11407BD4680BC7047FC
:1009B00080B485B000AF786039604FF00003FB73FE
:1009C0003B6803F47003002B11D07B689A693B6885
:1009D000134023F07F4323F47003002B03D04FF028
:1009E0000103FB7359E04FF00003FB7355E03B68D4
:1009F00003F08073002B11D07B685A683B6813406A
:100A000023F07F4323F47003002B03D04FF0010346
:100A1000FB7342E04FF00003FB733EE03B6803F0E2
:100A20000063002B11D07B689A683B68134023F069
:100A30007F4323F47003002B03D04FF00103FB73BB
:100A40002BE04FF00003FB7327E03B6803F00073DB
:100A5000002B11D07B68DA683B68134023F07F439A
:100A600023F47003002B03D04FF00103FB7314E059
:100A70004FF00003FB7310E07B681A693B6813407A
:100A800023F07F4323F47003002B03D04FF00103C6
:100A9000FB7302E04FF00003FB73FB7B184607F18A
:100AA0001407BD4680BC704780B582B000AF43F2EA
:100AB000F433C0F600037B6040F20003C2F200038F
:100AC0003B600BE07B681A683B681A603B6803F187
:100AD00004033B607B6803F104037B603A6840F2E7
:100AE0001403C2F200039A42ECD3084808494FF0BD
:100AF00000028842B8BF40F8042BFFF6FAAF00F0BE
:100B00000DF807F10807BD4680BD00001400002065
:100B1000EC02002080B400AFFEE700BF80B582B0D9
:100B200000AF00F0D5FA02F091F84FF0010002F0AA
:100B30003FF900F035F80346FB71FB79082B03D130
:100B40004FF0000002F0FEF801F042FB00F078FDEB
:100B500000F0CAFF46F22840C4F202004FF0010143
:100B600000F038FC46F22840C4F202004FF00101C8
:100B700000F014FC00BF46F22840C4F2020000F06E
:100B800037FC0346012BF6D14FF4A050C4F201000C
:100B90004FF040014FF00102FFF7DCFDFEE700BF20
:100BA00080B400AF4FF46053C4F202039B68DBB221
:100BB00003F00C03DBB21846BD4680BC704700BF93
:100BC00080B489B000AF78604FF00003BB614FF094
:100BD00000037B614FF00003FB614FF002033B61B8
:100BE0004FF00003FB604FF00203BB604FF4605313
:100BF000C4F202039B6803F00C03BB61BB69042BC6
:100C00000AD0082B0FD0002B60D17A684FF4105314
:100C1000C0F2F403136060E07A6847F64003C0F264
:100C20007D13136059E04FF46053C4F202035B6814
:100C300003F480034FEA9353FB604FF46053C4F214
:100C400002035B6803F03F03BB60FB68002B14D01A
:100C500047F64003C0F27D13BA68B3FBF2F24FF4DB
:100C60006053C4F20203596847F6C0730B404FEA61
:100C7000931303FB02F3FB6113E04FF41053C0F234
:100C8000F403BA68B3FBF2F24FF46053C4F2020308
:100C9000596847F6C0730B404FEA931303FB02F306
:100CA000FB614FF46053C4F202035B6803F440330A
:100CB0004FEA134303F101034FEA43033B61FA692F
:100CC0003B69B2FBF3F27B681A6006E07A684FF486
:100CD0001053C0F2F403136000BF4FF46053C4F22A
:100CE00002039B6803F0F003BB61BB694FEA131377
:100CF000BB6140F20403C2F20003BA699B181B787F
:100D0000DBB27B617B681A687B6922FA03F27B683D
:100D10005A604FF46053C4F202039B6803F4E0533B
:100D2000BB61BB694FEA9323BB6140F20403C2F28B
:100D30000003BA699B181B78DBB27B617B685A6839
:100D40007B6922FA03F27B689A604FF46053C4F225
:100D500002039B6803F46043BB61BB694FEA5333F2
:100D6000BB6140F20403C2F20003BA699B181B780E
:100D7000DBB27B617B685A687B6922FA03F27B688D
:100D8000DA6007F12407BD4680BC704780B483B0A9
:100D900000AF78600B46FB70FB78002B0CD04FF453
:100DA0006053C4F202034FF46052C4F20202116BAA
:100DB0007A680A431A630DE04FF46053C4F20203E9
:100DC0004FF46052C4F20202116B7A686FEA0202B9
:100DD0000A401A6307F10C07BD4680BC704700BF8C
:100DE00080B483B000AF78600B46FB70FB78002BBB
:100DF0000CD04FF46053C4F202034FF46052C4F2BB
:100E00000202116C7A680A431A640DE04FF46053D1
:100E1000C4F202034FF46052C4F20202116C7A6809
:100E20006FEA02020A401A6407F10C07BD4680BC53
:100E3000704700BF80B483B000AF78600B46FB7092
:100E4000FB78002B0CD04FF46053C4F202034FF434
:100E50006052C4F20202516C7A680A435A640DE08F
:100E60004FF46053C4F202034FF46052C4F2020222
:100E7000516C7A686FEA02020A405A6407F10C0763
:100E8000BD4680BC704700BF80B487B000AF7860BB
:100E900039604FF000037B614FF000033B614FF07E
:100EA0000003FB604FF000037B6186E07B694FF03D
:100EB000010202FA03F33B613B681A683B69134085
:100EC000FB60FA683B699A4273D17B681A687B6958
:100ED0004FEA43034FF0030101FA03F36FEA030300
:100EE0001A407B681A607B681A683B681B79194650
:100EF0007B694FEA430301FA03F31A437B681A60E4
:100F00003B681B79012B03D03B681B79022B34D142
:100F10007B689A687B694FEA43034FF0030101FA4B
:100F200003F36FEA03031A407B689A607B689A6850
:100F30003B685B7919467B694FEA430301FA03F387
:100F40001A437B689A607B685A687B699BB24FF052
:100F5000010101FA03F36FEA03031A407B685A6048
:100F60007B685A683B689B7919467B699BB201FA9A
:100F700003F39BB21A437B685A607B68DA687B692B
:100F80009BB24FEA43034FF0030101FA03F36FEA08
:100F900003031A407B68DA607B68DA683B68DB79B8
:100FA00019467B694FEA430301FA03F31A437B684E
:100FB000DA607B6903F101037B617B690F2B7FF6AC
:100FC00075AF07F11C07BD4680BC704780B483B085
:100FD00000AF78600B467B807B687A881A8307F1C4
:100FE0000C07BD4680BC704780B483B000AF78600A
:100FF0000B467B807B687A885A8307F10C07BD46D5
:1010000080BC704780B483B000AF78600B467B80B3
:101010007B685A697B885A407B685A6107F10C07E4
:10102000BD4680BC704700BF80B485B000AF78601B
:1010300013460A467A807B704FF00003FB604FF046
:101040000003BB607A787B8803F007034FEA8303D1
:1010500002FA03F3FB607B884FEAD3039BB21A4684
:101060007B884FEAD3039BB219467B6801F10801E4
:1010700053F821107B8803F007034FEA83034FF0F6
:101080000F0000FA03F36FEA030319407B6802F1D3
:10109000080243F822107B884FEAD3039BB21A461A
:1010A0007B6802F1080253F82220FB681343BB60FF
:1010B0007B884FEAD3039BB21A467B6802F1080291
:1010C000B96843F8221007F11407BD4680BC704789
:1010D00080B500AF4FF46053C4F202034FF4605286
:1010E000C4F20202126842F001021A604FF4605327
:1010F000C4F202034FF000029A604FF46053C4F24E
:1011000002034FF46052C4F20202126822F08472A9
:1011100022F480321A604FF46053C4F2020343F2A7
:101120001002C2F200425A604FF46053C4F202034C
:101130004FF46052C4F20202126822F480221A6054
:101140004FF46053C4F202034FF00002DA6000F083
:1011500009F84FF46D43CEF200034FF000629A603D
:1011600080BD00BF80B483B000AF4FF000037B6050
:101170004FF000033B604FF46053C4F202034FF49E
:101180006052C4F20202126842F480321A604FF4D4
:101190006053C4F202031B6803F400333B607B68B6
:1011A00003F101037B603B68002B03D17B68B3F53F
:1011B000A06FECD14FF46053C4F202031B6803F438
:1011C0000033002B03D04FF001033B6002E04FF0EF
:1011D00000033B603B68012B40F082804FF460537A
:1011E000C4F202034FF46052C4F20202126C42F0E5
:1011F00080521A644FF4E043C4F200034FF4E0421B
:10120000C4F20002126842F480421A604FF4605344
:10121000C4F202034FF46052C4F2020292689A6070
:101220004FF46053C4F202034FF46052C4F202025E
:10123000926842F400429A604FF46053C4F2020391
:101240004FF46052C4F20202926842F4A0529A60D3
:101250004FF46053C4F2020345F21942C0F24072E7
:101260005A604FF46053C4F202034FF46052C4F268
:101270000202126842F080721A6000BF4FF460539D
:10128000C4F202031B6803F00073002BF6D04FF486
:101290007053C4F2020340F205621A604FF46053C7
:1012A000C4F202034FF46052C4F20202926822F0C8
:1012B00003029A604FF46053C4F202034FF4605289
:1012C000C4F20202926842F002029A6000BF4FF438
:1012D0006053C4F202039B6803F00C03082BF6D1A1
:1012E00007F10C07BD4680BC704700BF80B485B0D5
:1012F00000AF786039604FF00003FB607B681B68CB
:10130000FB60FA6848F23F03CFF21C031340FB6016
:101310003B681A683B68DB681A433B685B691A43A1
:101320003B689B691A433B68DB691A433B681B6A4D
:101330001A433B685B6A1A433B689B6A1A433B68E3
:101340005B6B1A433B689B6B1343FA681343FB6068
:101350007B68FA681A607B685B69FB60FB6823F056
:101360000703FB603B68DA6A3B681B6B1343FA6850
:101370001343FB607B68FA685A613B681A697B68B3
:101380005A603B685A687B689A603B689A687B68D9
:10139000DA6007F11407BD4680BC704780B483B0A3
:1013A00000AF78600B46FB70FB78002B06D07B68A3
:1013B0001B6843F001027B681A6005E07B681B68CC
:1013C00023F001027B681A6007F10C07BD4680BC60
:1013D000704700BF80B483B000AF78600B467B805D
:1013E0007A887B685A6007F10C07BD4680BC70475D
:1013F00080B485B000AF78604FF00003FB737B686A
:101400001B6803F00103002B03D04FF00103FB73B3
:1014100002E04FF00003FB73FB7B184607F1140753
:10142000BD4680BC704700BF80B485B000AF786017
:1014300039607A6846F20F43C4F202039A4205D833
:101440004FF4C043C4F20203FB6004E04FF4C8430E
:10145000C4F20203FB603B6803F00053002B07D08B
:101460003B6823F0F02323F08213FA68D36006E090
:101470003B6823F0F02323F08213FA68936007F1AE
:101480001407BD4680BC704780B485B000AFF860DB
:10149000B9601346FB71BB6803F08003002B0FD0CB
:1014A000FB79002B06D0FB685B6943F08002FB6888
:1014B0005A6105E0FB685B6923F08002FB685A61B2
:1014C000BB68802B15D0FB79002B08D0FB681A680D
:1014D000BB6803F01E031A43FB681A6009E0FB684F
:1014E0001A68BB6803F01E036FEA03031A40FB6827
:1014F0001A6007F11407BD4680BC704780B485B000
:1015000000AF786039607A6846F20F43C4F2020394
:101510009A4205D84FF4C043C4F20203FB6004E0D2
:101520004FF4C843C4F20203FB603B6803F000536E
:10153000002B07D03B6823F0F02323F08213FA68D6
:10154000D36006E03B6823F0F02323F08213FA68AF
:10155000936007F11407BD4680BC704780B485B026
:1015600000AF78604FF00003FB734FF00003BB73D4
:101570004FF00F037B737B68DB78002B45D04FF473
:101580006D43CEF20003DB686FEA030303F4E0630C
:101590004FEA1323FB73FB7BC3F10403BB737A7B1A
:1015A000FB7B42FA03F37B737B685B781A46BB7B59
:1015B00002FA03F3FB737B689A787B7B1340DAB201
:1015C000FB7B1343FB73FB7B4FEA0313FB734FF46B
:1015D0006143CEF200037A6812789B18FA7B83F895
:1015E00000234FF46143CEF200037A6812784FEA89
:1015F0005212D2B27968097801F01F014FF0010050
:1016000000FA01F143F8221014E04FF46143CEF2E6
:1016100000037A6812784FEA5212D2B279680978D8
:1016200001F01F014FF0010000FA01F102F1200268
:1016300043F8221007F11407BD4680BC704700BF75
:1016400080B586B000AF4FF008004FF00101FFF702
:101650009DFB4FF480204FF00101FFF7C1FB4FF4D9
:1016600000104FF00101FFF791FB4FF44060C4F20E
:1016700002004FF008014FF00702FFF7D5FC4FF4CE
:101680004060C4F202004FF009014FF00702FFF77B
:10169000CBFC4FF002033B714FF002037B714FF024
:1016A0000003FB714FF480733B603B464FF4406096
:1016B000C4F202001946FFF7E7FB4FF400733B60EA
:1016C0003B464FF44060C4F202001946FFF7DCFBD2
:1016D0004FF4E123BB604FF00003BB814FF00003E8
:1016E000FB814FF000033B824FF00003BB824FF0C1
:1016F0000C037B8207F108034FF49040C4F2000012
:101700001946FEF731FF40F2AC23C2F200034FF05E
:101710000002DA6240F2AC23C2F200034FF0000292
:101720001A6340F2AC23C2F200034FF000025A6386
:1017300040F2AC23C2F200034FF000021A6240F202
:10174000AC23C2F200034FF480629A6140F2AC23F2
:10175000C2F2000344F60402C4F200025A6040F2EE
:10176000AC23C2F200034FF000029A6340F2AC23B4
:10177000C2F200034FF00002DA6140F2AC23C2F281
:1017800000034FF000025A6140F2AC23C2F20003A2
:101790004FF400329A6240F2AC23C2F200034FF0E1
:1017A00000025A6240F2AC23C2F200034FF00B0277
:1017B0001A6140F2AC23C2F200034FF000621A60DB
:1017C00040F2AC23C2F200034FF04002DA6040F274
:1017D0001402C2F2000240F2AC23C2F200039A608B
:1017E00046F25800C4F2020040F2AC21C2F20001FD
:1017F000FFF77CFD40F2AC23C2F200034FF480728D
:101800005A6240F2AC23C2F200034FF001021A61A7
:1018100040F2AC23C2F200034FF000621A6040F2C3
:10182000AC23C2F200034FF00002DA6040F244023F
:10183000C2F2000240F2AC23C2F200039A6046F208
:101840002800C4F2020040F2AC21C2F20001FFF70E
:101850004DFD40F2A823C2F200034FF027021A7098
:1018600040F2A823C2F200034FF00102DA7040F206
:10187000A823C2F200034FF00D025A7040F2A820D4
:10188000C2F20000FFF76AFE4FF49040C4F200007D
:1018900040F22661FEF782FF4FF49040C4F2000050
:1018A00040F22551FEF77AFF4FF49040C4F2000059
:1018B0004FF00101FEF72EFF40F2A823C2F2000311
:1018C0004FF00C021A7040F2A823C2F200034FF04E
:1018D0000102DA7040F2A823C2F200034FF00002C6
:1018E0005A7040F2A823C2F200034FF000029A702F
:1018F00040F2A820C2F20000FFF730FE46F22800B6
:10190000C4F202004FF40841C1F20001FFF7F6FDF6
:1019100046F22800C4F202004FF010014FF001021D
:10192000FFF7B2FD40F2A823C2F200034FF00E020F
:101930001A7040F2A823C2F200034FF00102DA70DD
:1019400040F2A823C2F200034FF000025A7040F2A6
:10195000A823C2F200034FF000029A7040F2A820C0
:10196000C2F20000FFF7FAFD46F25800C4F202008E
:101970004FF40041C1F60001FFF7C0FD46F25800E8
:10198000C4F202004FF010014FF00102FFF77CFD9E
:1019900007F11807BD4680BD80B584B000AF03468F
:1019A0003960FB803B684FF0FF021A703B6803F11F
:1019B00001033B603B684FF002021A703B6803F181
:1019C00001033B603B6803F101033B60FB884FEA86
:1019D00013239BB2DAB23B681A703B6803F1010330
:1019E0003B60FB88DAB23B681A703B6803F1FF3357
:1019F0003B603B6803F1FF333B60FB8803F103036B
:101A00009BB23868194600F097F80346FB81FB88C3
:101A100003F103033A68D3183B60FB894FEA1323B1
:101A20009BB2DAB23B681A703B6803F101033B607A
:101A3000FB89DAB23B681A703B6803F101033B6033
:101A40003B684FF003021A7046F22800C4F202000D
:101A50004FF00101FFF7BEFC46F22800C4F202007D
:101A60004FF00101FFF79AFC00BF46F22800C4F2D4
:101A70000200FFF7BDFC0346012BF6D14FF4904066
:101A8000C4F200004FF040014FF00102FEF762FE89
:101A9000FB8803F108039BB246F25800C4F202002F
:101AA0001946FFF797FC46F25800C4F202004FF0C7
:101AB0000101FFF773FC00BF46F25800C4F20200B8
:101AC000FFF796FC0346012BF6D14FF49040C4F289
:101AD00000004FF080014FF00102FEF73BFE07F1DE
:101AE0001007BD4680BD00BF80B500AF40F21403B3
:101AF000C2F200034FF053029A7040F21403C2F294
:101B000000034FF000025A7140F21403C2F20003C6
:101B10004FF001029A7140F21403C2F200034FF039
:101B20000102DA714FF0030040F21401C2F2000129
:101B3000FFF732FF80BD00BF80B487B000AF786090
:101B40000B467B8048F208433B824FF00003FB8248
:101B50004FF00003FB734FF000037B754FF0000361
:101B60007B824FF000037B8226E07B8A7A68D31861
:101B70001B781A46FB8A5340FB824FF000037B75AB
:101B800013E0FB8ADBB203F00103FB73FB8A4FEA2D
:101B90005303FB82FB7B002B03D0FA8A3B8A534022
:101BA000FB827B7D03F101037B757B7D072BE8D9ED
:101BB0007B8A03F101037B827A8A7B889A42D4D3A1
:101BC000FB8A184607F11C07BD4680BC704700BF62
:101BD00080B500AF4FF0010001F0B4F84FF4904031
:101BE000C4F200004FF080014FF00002FEF7B2FD9A
:101BF00046F25800C4F202004FF00001FFF7CEFB9E
:101C000000BF46F25800C4F20200FFF7F1FB0346A2
:101C1000002BF6D146F25800C4F202004FF0C0513A
:101C2000FFF702FC80BD00BF80B582B000AF46F276
:101C30002800C4F202004FF00001FFF7AFFB00BF25
:101C400046F22800C4F20200FFF7D2FB0346002B45
:101C5000F6D140F28C03C2F200031B68032B00F2A2
:101C6000948001A252F823F0791C0008A71C0008F8
:101C7000F51C0008211D000840F24403C2F20003D5
:101C80001B78FF2B06D140F28C03C2F200034FF009
:101C900001021A6046F22800C4F202004FF001016E
:101CA000FFF798FB71E040F24403C2F200031B7897
:101CB000022B0FD140F28C03C2F200034FF002025C
:101CC0001A6046F22800C4F202004FF03A01FFF712
:101CD00081FB5AE040F28C03C2F200034FF0000295
:101CE0001A6046F22800C4F202004FF00101FFF72B
:101CF00071FB4AE04FF002037B60786800F070F8F7
:101D000046F22800C4F202004FF03C01FFF762FBEC
:101D100040F28C03C2F200034FF003021A6034E079
:101D20004FF000037B6040F24403C2F200031B78D3
:101D3000FF2B16D140F24403C2F200035B78022B62
:101D40000FD1786800F04CF846F22800C4F2020087
:101D50004FF03C01FFF73EFB4FF0000000F0F2FFB8
:101D600012E04FF0000001F023F840F28C03C2F2C1
:101D700000034FF000021A6046F22800C4F202008D
:101D80004FF00101FFF726FB00BF46F22800C4F226
:101D900002004FF00101FFF701FB00BF46F22800EF
:101DA000C4F20200FFF724FB0346012BF6D146F2F2
:101DB0002800C4F202004FF40061C1F20001FFF7F5
:101DC00033FB4FF49040C4F200004FF040014FF05D
:101DD0000102FEF7BFFC07F10807BD4680BD00BF4A
:101DE000B0B592B000AF786040F21813C2F20003B1
:101DF0003B64384BFB63384BBB63384B7B63384BDE
:101E00003B63384BFB62384BBB62384B7B62384BD1
:101E10003B62384BFB61384BBB61384B7B61384BC5
:101E20003B617B68C3F1030240F24403C2F200034A
:101E30009B5C4FEA03239AB27B68C3F1040140F232
:101E40004403C2F200035B5C13439BB2FB81FB893A
:101E500003F105027B68D21A40F24403C2F2000388
:101E60009B5C4FEA03239AB2FB8903F106017B686E
:101E7000C91A40F24403C2F200035B5C13439BB2F5
:101E8000BB817B68C3F1020240F24403C2F200034B
:101E9000D218FB8903F103039BB210461946FFF7E2
:101EA0004BFE0346BA899A4240F087817B68C3F1B2
:101EB000020240F24403C2F200039B5C902B40F00C
:101EC0007B814FF0030000F03DFF4FF004037B6483
:101ED000ECE000BF1C0100202001002024010020B4
:101EE000280100202C0100203001002034010020B6
:101EF000380100203C0100208401002088010020DE
:101F00008C0100207B687A6CD31A03F1040240F242
:101F10004403C2F200039A5C3B6C1A703B6C03F101
:101F200001033B647B687A6CD31A03F1080240F228
:101F30004403C2F200039A5CFB6B1A70FB6B03F163
:101F40000103FB637B687A6CD31A03F10C0240F245
:101F50004403C2F200039A5CBB6B1A70BB6B03F1C3
:101F60000103BB637B687A6CD31A03F1100240F261
:101F70004403C2F200039A5C7B6B1A707B6B03F123
:101F800001037B637B687A6CD31A03F1140240F27D
:101F90004403C2F200039A5C7B6A1A707B6A03F105
:101FA00001037B627B687A6CD31A03F1180240F25A
:101FB0004403C2F200039A5C3B6A1A703B6A03F165
:101FC00001033B627B687A6CD31A03F11C0240F276
:101FD0004403C2F200039A5CFB691A70FB6903F1C7
:101FE0000103FB617B687A6CD31A03F1200240F293
:101FF0004403C2F200039A5C3B6B1A703B6B03F123
:1020000001033B637B687A6CD31A03F1240240F22C
:102010004403C2F200039A5CFB6A1A70FB6A03F184
:102020000103FB627B687A6CD31A03F1280240F249
:102030004403C2F200039A5CBB6A1A70BB6A03F1E4
:102040000103BB627B687A6CD31A03F12C0240F265
:102050004403C2F200039A5CBB691A70BB6903F1C6
:102060000103BB617B687A6CD31A03F1300240F242
:102070004403C2F200039A5C7B691A707B6903F126
:1020800001037B617B687A6CD31A03F1340240F25E
:102090004403C2F200039A5C3B691A703B6903F186
:1020A00001033B617B6C03F1FF337B647B6C002B92
:1020B0007FF428AF40F21813C2F20003DB6983F00B
:1020C000004240F21813C2F20003DA6140F2181322
:1020D000C2F200031B6983F0004240F21813C2F2FF
:1020E00000031A6140F21813C2F200035B6A83F026
:1020F000004240F21813C2F200035A6240F2181371
:10210000C2F200039B6983F0004240F21813C2F24E
:1021100000039A6140F21813C2F20003DB6918460B
:1021200001F016F802460B464FF001010C4610462E
:10213000194625A3D3E9002301F0BEF80346002B7E
:1021400002D14FF000031C46E5B240F21813C2F270
:102150000003DB694FF00102144618464FF00001FE
:1021600001F03EF90346002B02D14FF000031C465C
:10217000E3B22B40DBB2002B04D04FF0020000F0A2
:10218000E1FD1AE040F21813C2F20003DB691846C1
:1021900000F0DEFF02460B46104619460AA3D3E9BB
:1021A000002301F0A7F80346002B04D04FF00200F3
:1021B00000F0FEFD01E000E000BF07F14807BD466A
:1021C000B0BD00BFAFF300809A9999999999C93F22
:1021D00080B588B000AF4FF004004FF00101FEF76A
:1021E000D5FD4FF040004FF00101FEF7CFFD4FF05D
:1021F00020004FF00101FEF71DFE4FF480004FF06C
:102200000101FEF7C3FD4FF40060C4F202004FF07D
:1022100006014FF00802FEF707FF4FF4C050C4F26A
:1022200002004FF009014FF00802FEF7FDFE4FF0EB
:1022300002033B734FF002037B734FF00003FB7309
:102240004FF04003BB6007F108034FF40060C4F295
:1022500002001946FEF718FE4FF40073BB6007F149
:1022600008034FF4C050C4F202001946FEF70CFEFA
:102270004FF4E1233B614FF00003BB824FF00003BA
:10228000FB824FF000033B834FF00003BB834FF012
:102290000C037B8307F110034FF4A050C4F201003C
:1022A0001946FEF761F940F2AC23C2F200034FF089
:1022B0000002DA6240F2AC23C2F200034FF00002E7
:1022C0001A6340F2AC23C2F200034FF000025A63DB
:1022D00040F2AC23C2F200034FF000021A6240F257
:1022E000AC23C2F200034FF480629A6140F2AC2347
:1022F000C2F2000341F20442C4F201025A6040F209
:10230000AC23C2F200034FF000029A6340F2AC2308
:10231000C2F200034FF00002DA6140F2AC23C2F2D5
:1023200000034FF000025A6140F2AC23C2F20003F6
:102330004FF400329A6240F2AC23C2F200034FF035
:1023400000025A6240F2AC23C2F200034FF0C8020E
:102350001A6140F2AC23C2F200034FF020621A600F
:1023600040F2AC23C2F200034FF04002DA6040F2C8
:10237000CC12C2F2000240F2AC23C2F200039A6017
:1023800046F2A040C4F2020040F2AC21C2F20001C9
:10239000FEF7ACFF40F2AC23C2F200034FF48072B0
:1023A0005A6240F2AC23C2F200034FF001021A61FC
:1023B00040F2AC23C2F200034FF020621A6040F2F8
:1023C000AC23C2F200034FF00002DA6040F2942224
:1023D000C2F2000240F2AC23C2F200039A6046F25D
:1023E0002840C4F2020040F2AC21C2F20001FEF724
:1023F0007DFF4FF047033B714FF00103FB714FF03E
:102400000D037B7107F104031846FFF7A7F84FF49B
:10241000A050C4F2010040F22661FEF7BFF94FF46C
:10242000A050C4F2010040F22551FEF7B7F94FF475
:10243000A050C4F201004FF00101FEF76BF94FF01C
:1024400039033B714FF00103FB714FF000037B71C7
:102450004FF00003BB7107F104031846FFF77EF845
:1024600046F22840C4F202004FF40841C1F20001D4
:10247000FFF744F846F22840C4F202004FF0100182
:102480004FF00102FFF700F84FF045033B714FF0AA
:102490000103FB714FF000037B714FF00003BB7130
:1024A00007F104031846FFF759F846F2A040C4F2BA
:1024B00002004FF40041C2F22001FFF71FF846F27C
:1024C000A040C4F202004FF010014FF00002FEF7EE
:1024D000DBFF07F12007BD4680BD00BF80B500AF20
:1024E0004FF0010000F02EFC4FF4A050C4F20100A8
:1024F0004FF080014FF00002FEF72CF946F2A040A9
:10250000C4F202004FF00001FEF748FF00BF46F2A0
:10251000A040C4F20200FEF76BFF0346002BF6D189
:1025200046F2A040C4F202004FF00001C2F22001C6
:10253000FEF77AFF80BD00BF80B582B000AF46F2E3
:102540002840C4F202004FF00001FEF727FF00BF51
:1025500046F22840C4F20200FEF74AFF0346002B71
:10256000F6D140F28403C2F200031B68012B1BD09A
:10257000012B02D3022B2DD05AE040F29423C2F259
:1025800000031B78482B06D140F28403C2F20003FB
:102590004FF001021A6046F22840C4F202004FF0E8
:1025A0001301FEF717FF43E04FF001037B607868EB
:1025B00000F068F846F22840C4F202004FF014011F
:1025C000FEF708FF40F28403C2F200034FF002025C
:1025D0001A602DE04FF000037B6040F29423C2F2BA
:1025E00000031B78482B0FD1786800F04BF846F2B7
:1025F0002840C4F202004FF01401FEF7EBFE4FF04A
:10260000010000F09FFB12E04FF0010000F0D0FB52
:1026100040F28403C2F200034FF000021A6046F257
:102620002840C4F202004FF00101FEF7D3FE00BFC4
:1026300046F22840C4F202004FF00101FEF7AEFE60
:1026400000BF46F22840C4F20200FEF7D1FE034666
:10265000012BF6D146F22840C4F202004FF400618B
:10266000C1F20001FEF7E0FE4FF4A050C4F20100F9
:102670004FF040014FF00102FEF76CF807F1080738
:10268000BD4680BD80B58CB000AF7860C84BBB62E2
:10269000C84B7B62C84B3B62C84BFB61C84BBB61FC
:1026A000C84B7B61C84B3B6140F2C813C2F20003C8
:1026B0004FF000021A607B68C3F1020240F29423DB
:1026C000C2F200039B5CFB737B68C3F1110240F212
:1026D0009423C2F200039B5C4FEA03239AB27B6807
:1026E000C3F1120140F29423C2F200035B5C134376
:1026F0009BB2BB817B68C3F1010240F29423C2F21A
:102700000003D218FB7B9BB203F102039BB210467D
:102710001946FFF711FA0346BA899A4240F09182AE
:102720007B68C3F1010240F29423C2F200039A5C79
:1027300040F2E823C2F200031A707B68C3F1010281
:1027400040F29423C2F200039B5C03F00F030F2BB3
:1027500000F2768201A252F823F000BF9D27000804
:10276000772800080B2900089F290008CD290008B8
:10277000432A0008D72A0008B12B0008C12B000803
:10278000D12B0008E12B0008F12B0008012C0008D8
:10279000112C0008212C0008312C00084FF00003F8
:1027A00087F82F3038E097F82F3003F103027B6869
:1027B000D21A40F29423C2F200039A5CBB6A1A70E8
:1027C000BB6A03F10103BB6297F82F3003F10702E4
:1027D0007B68D21A40F29423C2F200039A5C7B6AAF
:1027E0001A707B6A03F101037B6297F82F3003F1C3
:1027F0000B027B68D21A40F29423C2F200039A5C67
:102800003B6A1A703B6A03F101033B6297F82F3071
:1028100003F1010387F82F3097F82F30032BC2D92B
:1028200040F29013C2F200031B78002B1BD040F241
:10283000E403C2F200034FF000021A6040F2E40326
:10284000C2F200034FF000025A6040F29813C2F245
:1028500000034FF000021A6040F2DC03C2F20003F2
:102860004FF000021A6040F29013C2F200034FF0E2
:1028700000021A70E5E14FF0000387F82F3038E0CE
:1028800097F82F3003F103027B68D21A40F29423A9
:10289000C2F200039A5CFB691A70FB6903F1010341
:1028A000FB6197F82F3003F107027B68D21A40F2E0
:1028B0009423C2F200039A5CBB691A70BB6903F1EE
:1028C0000103BB6197F82F3003F10B027B68D21A2A
:1028D00040F29423C2F200039A5C3B6A1A703B6A8E
:1028E00003F101033B6297F82F3003F1010387F8EE
:1028F0002F3097F82F30032BC2D940F29013C2F239
:1029000000034FF001021A709BE14FF0000387F8BB
:102910002F3038E097F82F3003F103027B68D21A8A
:1029200040F29423C2F200039A5C7B691A707B69BF
:1029300003F101037B6197F82F3003F107027B68F5
:10294000D21A40F29423C2F200039A5C3B691A70D7
:102950003B6903F101033B6197F82F3003F10B0250
:102960007B68D21A40F29423C2F200039A5C3B6A5D
:102970001A703B6A03F101033B6297F82F3003F1B1
:10298000010387F82F3097F82F30032BC2D940F27C
:102990009013C2F200034FF007021A7051E140F2A7
:1029A0009013C2F200034FF003021A7049E100BF16
:1029B000C4000020C8000020CC000020D00000206F
:1029C000D4000020BC000020C000002040F2901382
:1029D000C2F200031B78042B2BD040F2E403C2F2B6
:1029E00000034FF000021A6040F2E403C2F2000359
:1029F0004FF000025A6040F21813C2F200031A6E40
:102A000040F2A803C2F200035A6240F21813C2F265
:102A100000031A6E40F2A803C2F200039A6040F26B
:102A20001813C2F200031A6E40F29413C2F20003AC
:102A30001A6040F29013C2F200034FF004021A70C1
:102A4000FFE04FF0000387F82F3038E097F82F3081
:102A500003F103027B68D21A40F29423C2F200030E
:102A60009A5CFB691A70FB6903F10103FB6197F83B
:102A70002F3003F107027B68D21A40F29423C2F28E
:102A800000039A5CBB691A70BB6903F10103BB6167
:102A900097F82F3003F10B027B68D21A40F294238F
:102AA000C2F200039A5C3B6A1A703B6A03F10103AD
:102AB0003B6297F82F3003F1010387F82F3097F826
:102AC0002F30032BC2D940F29013C2F200034FF013
:102AD00005021A70B5E04FF0000387F82F3038E098
:102AE00097F82F3003F103027B68D21A40F2942347
:102AF000C2F200039A5CBB6A1A70BB6A03F101035D
:102B0000BB6297F82F3003F107027B68D21A40F2BC
:102B10009423C2F200039A5C7B6A1A707B6A03F109
:102B200001037B6297F82F3003F10B027B68D21A06
:102B300040F29423C2F200039A5C3B6A1A703B6A2B
:102B400003F101033B6297F82F3003F1010387F88B
:102B50002F3097F82F30032BC2D940F29013C2F2D6
:102B600000031B78062B1BD040F2E403C2F20003E3
:102B70004FF000021A6040F2E403C2F200034FF08B
:102B800000025A6040F29813C2F200034FF00002B4
:102B90001A6040F2DC03C2F200034FF000021A6038
:102BA00040F29013C2F200034FF006021A7048E0A0
:102BB00040F29013C2F200034FF007021A7040E097
:102BC00040F29013C2F200034FF008021A7038E08E
:102BD00040F29013C2F200034FF009021A7030E085
:102BE00040F29013C2F200034FF00A021A7028E07C
:102BF00040F29013C2F200034FF00B021A7020E073
:102C000040F29013C2F200034FF00C021A7018E069
:102C100040F29013C2F200034FF00D021A7010E060
:102C200040F29013C2F200034FF00E021A7008E057
:102C300040F29013C2F200034FF00F021A7000E04E
:102C400000BF07F13007BD4680BD00BF80B584B02E
:102C500000AF4FF020004FF00101FEF797F807F1A9
:102C60000403FB60FB684FF080021A60FB684FF0C2
:102C700001021A71FB684FF00102DA71FB684FF034
:102C800000029A71FB684FF002025A714FF4A05093
:102C9000C4F20200F968FEF7F7F8FB684FF480729F
:102CA0001A60FB684FF001021A71FB684FF00102D5
:102CB000DA71FB684FF000029A71FB684FF0020274
:102CC0005A714FF4A050C4F20200F968FEF7DCF824
:102CD000FB684FF400721A60FB684FF001021A7132
:102CE000FB684FF00102DA71FB684FF000029A7145
:102CF000FB684FF002025A714FF4A050C4F2020078
:102D0000F968FEF7C1F8FB684FF040021A60FB68F3
:102D10004FF001021A71FB684FF00102DA71FB6893
:102D20004FF000029A71FB684FF002025A714FF4A3
:102D3000A050C4F20200F968FEF7A6F807F11007E8
:102D4000BD4680BD80B582B000AF0346FB71FB7904
:102D5000012B07D14FF4A050C4F202004FF4807150
:102D6000FEF734F9FB79022B07D14FF4A050C4F2DF
:102D700002004FF08001FEF729F9FB79002B07D103
:102D80004FF4A050C4F202004FF04001FEF71EF9CC
:102D9000FB79032B07D14FF4A050C4F202004FF48B
:102DA0000071FEF713F907F10807BD4680BD00BFAB
:102DB00080B582B000AF0346FB71FB79012B07D1D0
:102DC0004FF4A050C4F202004FF48071FEF70CF9EA
:102DD000FB79022B07D14FF4A050C4F202004FF050
:102DE0008001FEF701F9FB79002B07D14FF4A050C9
:102DF000C4F202004FF04001FEF7F6F8FB79032B16
:102E000007D14FF4A050C4F202004FF40071FEF756
:102E1000EBF807F10807BD4680BD00BF80B582B062
:102E200000AF0346FB71FB79012B07D14FF4A05093
:102E3000C4F202004FF48071FEF7E4F8FB79022B34
:102E400007D14FF4A050C4F202004FF08001FEF70A
:102E5000D9F8FB79002B07D14FF4A050C4F202003F
:102E60004FF04001FEF7CEF8FB79032B07D14FF46A
:102E7000A050C4F202004FF40071FEF7C3F807F14E
:102E80000807BD4680BD00BF81F0004102E000BFE1
:102E900083F0004330B54FEA41044FEA430594EA1A
:102EA000050F08BF90EA020F1FBF54EA000C55EA55
:102EB000020C7FEA645C7FEA655C00F0E2804FEA26
:102EC0005454D4EB5555B8BF6D420CDD2C4480EA08
:102ED000020281EA030382EA000083EA010180EA38
:102EE000020281EA0303362D88BF30BD11F0004F86
:102EF0004FEA01314FF4801C4CEA113102D04042BC
:102F000061EB410113F0004F4FEA03334CEA1333F6
:102F100002D0524263EB430394EA050F00F0A7800E
:102F2000A4F10104D5F1200E0DDB02FA0EFC22FA09
:102F300005F2801841F1000103FA0EF2801843FAFD
:102F400005F359410EE0A5F120050EF1200E012AEE
:102F500003FA0EFC28BF4CF0020C43FA05F3C0182C
:102F600051EBE37101F0004507D54FF0000EDCF1A5
:102F7000000C7EEB00006EEB0101B1F5801F1BD34E
:102F8000B1F5001F0CD349085FEA30004FEA3C0C52
:102F900004F101044FEA445212F5800F80F09A8048
:102FA000BCF1004F08BF5FEA500C50F1000041EB4C
:102FB000045141EA050130BD5FEA4C0C404141EB50
:102FC000010111F4801FA4F10104E9D191F0000F77
:102FD00004BF01460020B1FA81F308BF2033A3F1FA
:102FE0000B03B3F120020CDA0C3208DD02F1140CF1
:102FF000C2F10C0201FA0CF021FA02F10CE002F12C
:103000001402D8BFC2F1200C01FA02F120FA0CFC24
:10301000DCBF41EA0C019040E41AA2BF01EB04516D
:10302000294330BD6FEA04041F3C1CDA0C340EDC6B
:1030300004F11404C4F1200220FA04F001FA02F3AE
:1030400040EA030021FA04F345EA030130BDC4F16C
:103050000C04C4F1200220FA02F001FA04F340EA61
:103060000300294630BD21FA04F0294630BD94F012
:10307000000F83F4801306BF81F480110134013DF9
:103080004EE77FEA645C18BF7FEA655C29D094EA6A
:10309000050F08BF90EA020F05D054EA000C04BFE8
:1030A0001946104630BD91EA030F1EBF00210020D3
:1030B00030BD5FEA545C05D14000494128BF41F072
:1030C000004130BD14F580043CBF01F5801130BDD6
:1030D00001F0004545F0FE4141F470014FF0000061
:1030E00030BD7FEA645C1ABF194610467FEA655C12
:1030F0001CBF0B46024650EA013406BF52EA0335B4
:1031000091EA030F41F4002130BD00BF90F0000FA1
:1031100004BF0021704730B54FF4806404F13204DD
:103120004FF000054FF0000150E700BF90F0000F96
:1031300004BF0021704730B54FF4806404F13204BD
:1031400010F0004548BF40424FF000013EE700BF8D
:1031500042004FEAE2014FEA31014FEA02701FBF1D
:1031600012F07F4393F07F4F81F06051704792F0EF
:10317000000F14BF93F07F4F704730B54FF4607469
:1031800001F0004521F0004120E700BF50EA0102B4
:1031900008BF704730B54FF000050AE050EA010261
:1031A00008BF704730B511F0004502D5404261EBD1
:1031B00041014FF4806404F132045FEA915C3FF412
:1031C000DCAE4FF003025FEADC0C18BF03325FEAAB
:1031D000DC0C18BF033202EBDC02C2F1200300FA60
:1031E00003FC20FA02F001FA03FE40EA0E0021FA85
:1031F00002F11444C1E600BF4FF0FF3C06E000BFFF
:103200004FF0010C02E000BF4FF0010C4DF804CD6F
:103210004FEA410C7FEA6C5C4FEA430C18BF7FEA2F
:103220006C5C1BD001B050EA410C0CBF52EA430C5D
:1032300091EA030F02BF90EA020F0020704710F1DD
:10324000000F91EA030F58BF994208BF90422CBF6C
:10325000D8176FEAE37040F0010070474FEA410C65
:103260007FEA6C5C02D150EA013C07D14FEA430C83
:103270007FEA6C5CD6D152EA033CD3D05DF8040BF4
:10328000704700BF8446104662468C461946634626
:1032900000E000BF01B5FFF7B7FF002848BF10F1FD
:1032A000000F01BD4DF808EDFFF7F4FF0CBF012042
:1032B00000205DF808FB00BF4DF808EDFFF7EAFFBE
:1032C00034BF012000205DF808FB00BF4DF808ED79
:1032D000FFF7E0FF94BF012000205DF808FB00BF6E
:1032E0004DF808EDFFF7CEFF94BF012000205DF8F8
:1032F00008FB00BF4DF808EDFFF7C4FF34BF012005
:1033000000205DF808FB00BF4FF0FF3C06E000BF67
:103310004FF0010C02E000BF4FF0010C4DF804CD5E
:103320004FEA40024FEA41037FEA226C18BF7FEA6E
:10333000236C11D001B052EA530C18BF90EA010F70
:1033400058BFB2EB030088BFC81738BF6FEAE170FF
:1033500018BF40F0010070477FEA226C02D15FEA9B
:10336000402C05D17FEA236CE4D15FEA412CE1D007
:103370005DF8040B704700BF844608466146FFE7CE
:103380000FB5FFF7C9FF002848BF10F1000F0FBDB0
:103390004DF808EDFFF7F4FF0CBF012000205DF8A9
:1033A00008FB00BF4DF808EDFFF7EAFF34BF01202E
:1033B00000205DF808FB00BF4DF808EDFFF7E0FFC7
:1033C00094BF012000205DF808FB00BF4DF808ED18
:1033D000FFF7D2FF94BF012000205DF808FB00BF7B
:1033E0004DF808EDFFF7C8FF34BF012000205DF85D
:0433F00008FB00BF17
:1033F40001000000000000000102030401020304B4
:0434040006070809A6
:0400000508000000EF
:00000001FF
