:020000040800F2
:10000000C40B00207D110008E9110008E911000867
:10001000E9110008E9110008E911000800000000DA
:10002000000000000000000000000000E9110008CE
:10003000E911000800000000E9110008E9110008BA
:10004000E9110008E9110008E9110008E9110008A8
:10005000E9110008E9110008E9110008E911000898
:10006000E9110008E9110008E9110008E911000888
:10007000F5380008E91100089D380008E91100086A
:10008000E9110008E9110008E9110008E911000868
:1000900089010008D1030008E9110008E9110008EE
:1000A000E9110008E9110008E9110008E911000848
:1000B000E9110008E9110008E9110008E911000838
:1000C000E9110008E9110008E9110008E911000828
:1000D000E9110008E9110008E9110008E911000818
:1000E000E9110008E9110008E9110008E911000808
:1000F000E9110008E9110008E9110008E9110008F8
:10010000E9110008E9110008E9110008E9110008E7
:10011000E9110008E9110008E9110008E9110008D7
:10012000E911000805420008E9110008E91100087A
:10013000E9110008E9110008E9110008E9110008B7
:10014000E9110008E9110008E9110008E9110008A7
:10015000E9110008BD410008E9110008E911000893
:10016000E9110008E9110008E9110008E911000887
:10017000E9110008E9110008E9110008E911000877
:10018000E9110008E911000880B588B000AF07F157
:100190000803FB6140F20003C2F200031B68012B5D
:1001A0000BD14FF4C840C4F200004FF0000140F200
:1001B0009802C2F2000200F021FE4FF4C840C4F2DF
:1001C000000000F0EFFE0346002B14BF00230123C4
:1001D000DAB240F20003C2F200031B68002B14BF26
:1001E00000230123DBB21340DBB2002B00F0EB80D5
:1001F0004FF4C840C4F200004FF00301C1F20021E7
:1002000000F002FF0346012B40F0DD804FF4C840B0
:10021000C4F200004FF00001FA6900F0EFFDFB6945
:100220009B7B4FEA0362FB695B7B4FEA03431A4304
:10023000FB691B7B4FEA03231A43FB69DB7A1343F9
:100240007B60FB699B7C4FEA0362FB695B7C4FEA46
:1002500003431A43FB691B7C4FEA03231A43FB69E0
:10026000DB7B13433B60FB7E002B54D14FF001003E
:1002700004F096FD7B6842F64302C0F220029342EE
:100280002CD042F64302C0F2200293420CDC42F230
:100290004B72C0F22002934227D042F26072C0F249
:1002A000200293422BD029E046F24342C0F2600282
:1002B00093420CD046F26042C0F26002934220D0DA
:1002C00042F66002C0F2200293421CD016E03A6867
:1002D00040F27413C2F20003DA6415E03A6840F2A7
:1002E0007413C2F200031A640EE03B689AB240F243
:1002F0007413C2F20003A3F8582005E004E000BF25
:1003000002E000BF00E000BF40F27823C2F2000329
:100310004FF001021A60FB7E012B54D14FF0020016
:1003200004F03EFD7B6842F64302C0F22002934295
:100330002CD042F64302C0F2200293420CDC42F27F
:100340004B72C0F22002934227D042F26072C0F298
:10035000200293422BD029E046F24342C0F26002D1
:1003600093420CD046F26042C0F26002934220D029
:1003700042F66002C0F2200293421CD016E03A68B6
:1003800040F27413C2F200031A6515E03A6840F2B5
:100390007413C2F200035A640EE03B689AB240F252
:1003A0007413C2F20003A3F85A2005E004E000BF72
:1003B00002E000BF00E000BF40F27823C2F2000379
:1003C0004FF001025A6007F12007BD4680BD00BF13
:1003D00080B588B000AF07F10803FB6140F200036D
:1003E000C2F200031B68012B0BD14FF4C840C4F2CA
:1003F00000004FF0010140F29802C2F2000200F04A
:10040000FDFC4FF4C840C4F2000000F0CBFD0346F1
:10041000002B14BF00230123DAB240F20003C2F222
:1004200000031B68002B14BF00230123DBB2134021
:10043000DBB2002B00F093804FF4C840C4F2000000
:100440004FF00301C1F2004100F0DEFD0346012B35
:1004500040F085804FF4C840C4F200004FF0010125
:10046000FA6900F0CBFCFB699B7B4FEA0362FB69F6
:100470005B7B4FEA03431A43FB691B7B4FEA032371
:100480001A43FB69DB7A13437B60FB699B7C4FEA71
:100490000362FB695B7C4FEA03431A43FB691B7CE5
:1004A0004FEA03231A43FB69DB7B13433B60FB7E6C
:1004B000002B54D14FF0030004F072FC7B6842F62D
:1004C0004302C0F2200293422CD042F64302C0F213
:1004D000200293420CDC42F24B72C0F220029342A3
:1004E00027D042F26072C0F2200293422BD029E062
:1004F00046F24342C0F2600293420CD046F26042A0
:10050000C0F26002934220D042F66002C0F22002A4
:1005100093421CD016E03A6840F27413C2F2000312
:100520005A6515E03A6840F27413C2F200039A6407
:100530000EE03B689AB240F27413C2F20003A3F8D3
:100540005C2005E004E000BF02E000BF00E000BF67
:1005500040F27823C2F200034FF001029A6007F1E3
:100560002007BD4680BD00BF80B598B000AF07F141
:100570001803BB6507F104037B654FF00003FB65BF
:100580000AE007F12002FB6DD3184FF00002DA7089
:10059000FB6D03F10103FB65FB6D072BF1DD4FF0F4
:1005A00002004FF0010101F0BBFA4FF000704FF074
:1005B000010101F0DFFA4FF48060C4F202004FF055
:1005C00008014FF0090202F095FB4FF48060C4F27D
:1005D00002004FF009014FF0090202F08BFB07F116
:1005E0004C03184602F03AFB4FF0020387F85030F4
:1005F0004FF48073FB6407F14C034FF48060C4F246
:100600000200194602F088FA4FF0020387F85030D2
:100610004FF40073FB6407F14C034FF48060C4F2A5
:100620000200194602F078FA4FF4C843C4F20003FE
:100630004FF000025A614FF0140387F848304FF032
:10064000010387F84B304FF00E0387F8493007F16C
:100650004803184602F0E8FD4FF0150387F84830CC
:100660004FF0010387F84B304FF00E0387F8493005
:1006700007F14803184602F0D7FD4FF0020387F850
:100680003F304FF0070387F840304FF0040387F8FE
:1006900041304FF00303BB874FF4C843C4F200035B
:1006A0004FF000021A604FF0000387F83E3007F168
:1006B0003C034FF4C840C4F20000194600F0B8F9FA
:1006C0004FF4C840C4F200004FF07001C3F2F001D3
:1006D00000F016FD4FF0010387F839304FF00003AA
:1006E000BB864BF24003BB854BF22003FB854FF6E4
:1006F000FF733B864FF6FF737B864FF0000387F84E
:1007000037304FF0000387F836304FF0000387F89A
:10071000383007F12C03184600F068FA4FF4C8404F
:10072000C4F200004FF00001BA6D00F067FB4FF01B
:10073000010387F839304FF00103BB864FF0000307
:10074000BB854BF28003FB854FF6FF733B864FF66C
:10075000FF737B864FF0000387F837304FF00203BA
:1007600087F836304FF0000387F8383007F12C0354
:10077000184600F03BFA4FF4C840C4F200004FF0B6
:100780000101BA6D00F03AFB4FF4C840C4F200001A
:100790004FF002014FF0010200F018FC4FF4C84086
:1007A000C4F200004FF010014FF0010200F00EFC07
:1007B00007F16007BD4680BD80B58AB000AF7860A4
:1007C00039604FF000037B624FF000033B624FF053
:1007D0000003FB614FF00003BB617B681B8A9BB287
:1007E0007B627B6A23F440537B623B68DB887A6AD6
:1007F00013437B627B6A9AB27B681A827B689B890F
:100800009BB27B627B6A23F4B05323F00C037B62C0
:100810003B689A883B681B8913439AB23B685B89A3
:1008200013439BB27A6A13437B627B6A9AB27B68FA
:100830009A817B689B8A9BB27B627B6A23F44073BC
:100840007B623B689B897A6A13437B627B6A9AB2BC
:100850007B689A8207F10803184601F07BF87A68F2
:100860004FF48053C4F201039A4206D07A684FF4E1
:10087000A053C4F201039A4202D17B693B6201E0BA
:100880003B693B627B689B899BB29BB21BB2002B8E
:100890000FDA3A6A13464FEA83039B184FEA830242
:1008A0009A183B681B684FEA4303B2FBF3F3FB6102
:1008B0000EE03A6A13464FEA83039B184FEA83021D
:1008C0009A183B681B684FEA8303B2FBF3F3FB61A2
:1008D000FA6948F21F53C5F2EB13A3FB02134FEA68
:1008E00053134FEA03137B627B6A4FEA13134FF0F3
:1008F000640202FB03F3FA69D31ABB617B689B892C
:100900009BB29BB21BB2002B12DABB694FEAC30346
:1009100003F1320248F21F53C5F2EB13A3FB02139B
:100920004FEA531303F007037A6A13437B6211E023
:10093000BB694FEA031303F1320248F21F53C5F2B9
:10094000EB13A3FB02134FEA531303F00F037A6A6E
:1009500013437B627B6A9AB27B681A8107F128078E
:10096000BD4680BD80B483B000AF78600B46FB709D
:10097000FB78002B08D07B689B899BB243F4005323
:100980009AB27B689A8107E07B689B899BB223F4CB
:1009900000539AB27B689A8107F10C07BD4680BC70
:1009A000704700BF80B483B000AF786013460A463A
:1009B0007A807B707B78002B08D07B689B8A9AB208
:1009C0007B8813439AB27B689A820AE07B689B8A91
:1009D0009AB27B886FEA03039BB213409AB27B689A
:1009E0009A8207F10C07BD4680BC704780B485B081
:1009F00000AF78600B467B804FF00003FB814FF027
:100A00000003BB817B884FEA1323FB81FB894FF0F6
:100A1000010202FA03F3BB81BB896FEA03039AB2B6
:100A20007B681A8007F11407BD4680BC704700BF81
:100A300080B485B000AF786039604FF00003FB737D
:100A40004FF00003BB607B681B6823F002027B68E9
:100A50001A607B681B6843F001027B681A6003E040
:100A6000BB6803F10103BB607B685B6803F00103B3
:100A7000002B04D1BA684FF6FF739A42F0D17B681D
:100A80005B6803F00103002B03D14FF00003FB73FD
:100A9000A5E03B689B79012B06D17B681B6843F07E
:100AA00080027B681A6005E07B681B6823F0800287
:100AB0007B681A603B68DB79012B06D17B681B6879
:100AC00043F040027B681A6005E07B681B6823F0F6
:100AD00040027B681A603B681B7A012B06D17B6859
:100AE0001B6843F020027B681A6005E07B681B6886
:100AF00023F020027B681A603B685B7A012B06D1E9
:100B00007B681B6843F010027B681A6005E07B6815
:100B10001B6823F010027B681A603B689B7A012BEC
:100B200006D17B681B6843F008027B681A6005E009
:100B30007B681B6823F008027B681A603B68DB7ADD
:100B4000012B06D17B681B6843F004027B681A60A6
:100B500005E07B681B6823F004027B681A603B6831
:100B60009B784FEA83723B68DB784FEA03631A4352
:100B70003B681B794FEA03431A433B685B794FEAB2
:100B800003531A433B681B8803F1FF331A437B6806
:100B9000DA617B681B6823F001027B681A604FF002
:100BA0000003BB6003E0BB6803F10103BB607B682B
:100BB0005B6803F00103002B04D0BA684FF6FF73A3
:100BC0009A42F0D17B685B6803F00103002B03D0ED
:100BD0004FF00003FB7302E04FF00103FB73FB7B5C
:100BE000184607F11407BD4680BC704780B485B035
:100BF00000AF78604FF00003FB607B689B7A4FF09A
:100C0000010202FA03F3FB604FF4C843C4F200038D
:100C10004FF4C842C4F20002D2F8002242F00102AE
:100C2000C3F800224FF4C843C4F200034FF4C84293
:100C3000C4F20002D2F81C12FA686FEA02020A40FB
:100C4000C3F81C227B681B7B002B33D14FF4C843B5
:100C5000C4F200034FF4C842C4F20002D2F80C12EE
:100C6000FA686FEA02020A40C3F80C224FF4C84344
:100C7000C4F200037A68927A7968C9884FEA014021
:100C800079684988014302F1480243F832104FF471
:100C9000C842C4F200027B689B7A796889884FEA6F
:100CA000014079680988014303F148034FEAC3030F
:100CB000D31859607B681B7B012B31D14FF4C8439B
:100CC000C4F200034FF4C842C4F20002D2F80C127E
:100CD000FA680A43C3F80C224FF4C843C4F2000375
:100CE0007A68927A796809884FEA01407968498878
:100CF000014302F1480243F832104FF4C842C4F2F3
:100D000000027B689B7A796889884FEA014079689C
:100D1000C988014303F148034FEAC303D31859605C
:100D20007B68DB7A002B10D14FF4C843C4F2000378
:100D30004FF4C842C4F20002D2F80412FA686FEA13
:100D400002020A40C3F804220DE04FF4C843C4F283
:100D500000034FF4C842C4F20002D2F80412FA6849
:100D60000A43C3F804227B681B89002B0FD14FF480
:100D7000C843C4F200034FF4C842C4F20002D2F8E0
:100D80001412FA686FEA02020A40C3F814227B6860
:100D90001B89012B0DD14FF4C843C4F200034FF45B
:100DA000C842C4F20002D2F81412FA680A43C3F827
:100DB00014227B685B7B012B0DD14FF4C843C4F236
:100DC00000034FF4C842C4F20002D2F81C12FA68C1
:100DD0000A43C3F81C224FF4C843C4F200034FF483
:100DE000C842C4F20002D2F8002222F00102C3F885
:100DF000002207F11407BD4680BC704780B485B05F
:100E000000AFF8600B467A60FB72FB7AFA6803F178
:100E10001B034FEA0313D3181B68DBB203F0040370
:100E2000DAB27B681A727B681B7A002B0CD1FB7AD2
:100E3000FA6803F11B034FEA0313D3181B684FEA48
:100E400053527B681A600BE0FB7AFA6803F11B03CC
:100E50004FEA0313D3181B684FEAD3027B685A602A
:100E6000FB7AFA6803F11B034FEA0313D3181B68DC
:100E7000DBB203F00203DAB27B685A72FB7AFA68DB
:100E800003F11B034FEA0313D3185B68DBB203F0D3
:100E90000F03DAB27B689A72FB7AFA6803F11B03DC
:100EA0004FEA0313D3185B684FEA1323DAB27B6867
:100EB000DA74FB7AFA684FEA0313D31803F5DC738C
:100EC0001B68DAB27B68DA72FB7AFA684FEA0313BE
:100ED000D31803F5DC731B684FEA1323DAB27B687F
:100EE0001A73FB7AFA684FEA0313D31803F5DC731D
:100EF0001B684FEA1343DAB27B685A73FB7AFA68CD
:100F00004FEA0313D31803F5DC731B684FEA13632E
:100F1000DAB27B689A73FB7AFA684FEA0313D31844
:100F200003F5DC735B68DAB27B68DA73FB7AFA6824
:100F30004FEA0313D31803F5DC735B684FEA1323FE
:100F4000DAB27B681A74FB7AFA684FEA0313D31893
:100F500003F5DC735B684FEA1343DAB27B685A74BB
:100F6000FB7AFA684FEA0313D31803F5DC735B6866
:100F70004FEA1363DAB27B689A74FB7A002B06D1CE
:100F8000FB68DB6843F02002FB68DA6005E0FB6881
:100F90001B6943F02002FB681A6107F11407BD4684
:100FA00080BC704780B485B000AF78604FF000031C
:100FB000FB737B689B69DBB203F07003FB73FB7B05
:100FC000184607F11407BD4680BC704780B485B051
:100FD00000AFF860B9601346FB71FB79002B06D0B7
:100FE000FB685A69BB681A43FB685A6107E0FB68F3
:100FF0005A69BB686FEA03031A40FB685A6107F13C
:101000001407BD4680BC704780B485B000AF7860DF
:1010100039604FF00003FB733B6803F47003002B4F
:1010200011D07B689A693B68134023F07F4323F417
:101030007003002B03D04FF00103FB7359E04FF016
:101040000003FB7355E03B6803F08073002B11D065
:101050007B685A683B68134023F07F4323F4700396
:10106000002B03D04FF00103FB7342E04FF000036D
:10107000FB733EE03B6803F00063002B11D07B68FC
:101080009A683B68134023F07F4323F47003002BDE
:1010900003D04FF00103FB732BE04FF00003FB7311
:1010A00027E03B6803F00073002B11D07B68DA68FF
:1010B0003B68134023F07F4323F47003002B03D0DD
:1010C0004FF00103FB7314E04FF00003FB7310E0DB
:1010D0007B681A693B68134023F07F4323F4700355
:1010E000002B03D04FF00103FB7302E04FF000032D
:1010F000FB73FB7B184607F11407BD4680BC7047A5
:1011000080B485B000AF786039604FF00003FB60B9
:101110003A684FF07003C3F2F0039A4204D17B683F
:101120004FF000029A6123E03B6823F07F4323F4F1
:101130007003FB603B6803F00073002B03D07B68F7
:10114000FA68DA6014E03B6803F08063002B03D098
:101150007B68FA681A610BE03B6803F00063002BC0
:1011600003D07B68FA689A6002E07B68FA685A608C
:1011700007F11407BD4680BC704700BF80B582B040
:1011800000AF47F63803C0F600037B6040F200036F
:10119000C2F200033B600BE07B681A683B681A6090
:1011A0003B6803F104033B607B6803F104037B604D
:1011B0003A6840F21403C2F200039A42ECD30848A2
:1011C00008494FF000028842B8BF40F8042BFFF6F0
:1011D000FAAF00F00DF807F10807BD4680BD00002A
:1011E00014000020C403002080B400AFFEE700BF5D
:1011F00080B582B000AF00F06DFB02F0F7FD02F0A9
:1012000085F8FFF7B1F940F21413C2F200034FF072
:1012100000021A6040F2E403C2F200034FF0000241
:101220001A6040F27013C2F200034FF000021A601D
:1012300040F20423C2F200034FF000021A6040F2B1
:101240009823C2F200034FF000021A6040F2B0038C
:10125000C2F200034FF000021A6040F2B003C2F283
:1012600000034FF000025A6040F2B003C2F20003E4
:101270004FF000029A6040F2B003C2F200034FF058
:101280000002DA6040F2B003C2F200034FF0000245
:101290001A6140F2B003C2F200034FF00002DA61BB
:1012A00040F2B003C2F200034FF000021A6240F2B3
:1012B000B003C2F200034FF000025A6240F2B003E2
:1012C000C2F200034FF000029A6240F2B003C2F291
:1012D00000034FF00002DA6240F2B003C2F20003F2
:1012E0004FF000025A6140F2B003C2F200034FF027
:1012F00000029A6140F22413C2F200034FF0000290
:101300001A6040F22413C2F200034FF000025A6048
:1013100040F22413C2F200034FF000029A6040F240
:101320002413C2F200034FF00002DA6040F22413EB
:10133000C2F200034FF000021A6140F22413C2F21D
:1013400000034FF000025A6140F22413C2F200037E
:101350004FF000021A6240F22413C2F200034FF071
:1013600000025A6240F22413C2F200034FF000025E
:101370009A6140F22413C2F200034FF00002DA61D6
:1013800040F27413C2F200034FF000025A6340F2BD
:101390007413C2F200034FF000029A6340F2741318
:1013A000C2F200034FF00002DA6340F27413C2F29B
:1013B00000034FF000021A6140F27413C2F20003FE
:1013C0004FF000025A6140F27413C2F200034FF072
:1013D00000029A6140F27413C2F200034FF000025F
:1013E0009A6240F27413C2F200034FF00002DA6214
:1013F00040F27413C2F200034FF000021A6340F28D
:101400007413C2F200034FF00002DA6140F2741369
:10141000C2F200034FF000021A6240F27413C2F2EB
:1014200000034FF000025A6240F27413C2F200034C
:101430004FF000021A6640F27413C2F200034FF03C
:1014400000021A6440F27413C2F200034FF000026B
:101450005A6440F27413C2F200034FF000029A641F
:1014600040F27413C2F200034FF00002DA6440F25B
:101470007413C2F200034FF000021A6540F27413B5
:10148000C2F200034FF000025A6540F27413C2F238
:1014900000034FF00002A3F8582040F27413C2F288
:1014A00000034FF00002A3F85A2040F27413C2F276
:1014B00000034FF00002A3F85C2040F27413C2F264
:1014C00000034FF000025A6640F27413C2F20003A8
:1014D0004FF000029A6640F27413C2F200034FF01C
:1014E00000021A6040F27413C2F200034FF00002CF
:1014F0005A6040F27413C2F200034FF000029A6087
:1015000040F27413C2F200034FF00002DA6040F2BE
:101510007413C2F200034FF00002DA6640F2741353
:10152000C2F200034FF000021A6740F27413C2F2D5
:1015300000034FF000025A6740F25413C2F2000356
:101540004FF000021A6040F29423C2F200034FF001
:1015500000021A6040F20823C2F200034FF00002BA
:101560001A6040F2FC03C2F200034FF000021A605E
:1015700040F26423C2F200034FF000021A6040F20E
:101580000C13C2F200034FF000021A6040F268230D
:10159000C2F200034FF000021A6040F20813C2F2D8
:1015A00000034FF000021A6040F22013C2F2000361
:1015B0004FF000021A6040F23C23C2F200034FF0E9
:1015C00000021A6040F24C23C2F200034FF0000206
:1015D0001A6040F2A023C2F200034FF000021A602A
:1015E00040F23823C2F200034FF000021A6040F2CA
:1015F0002C23C2F200034FF000021A6040F21823BD
:10160000C2F200034FF000021A6040F2EC13C2F283
:1016100000034FF000021A6040F2F013C2F2000320
:101620004FF000021A6040F2F803C2F200034FF0DC
:1016300000021A6040F29023C2F200034FF0000251
:101640001A6040F20013C2F200034FF000021A6069
:1016500040F21013C2F200034FF000021A6040F291
:101660005C23C2F200034FF000021A6040F2142320
:10167000C2F200034FF000021A6040F2FC13C2F203
:1016800000034FF000021A6040F2EC03C2F20003C4
:101690004FF000021A6040F26813C2F200034FF0EC
:1016A00000021A6040F26C23C2F200034FF0000205
:1016B0001A6040F25023C2F200034FF000021A6099
:1016C00040F2F003C2F200034FF000021A6040F251
:1016D0000413C2F200034FF000021A6040F2242308
:1016E000C2F200034FF000021A6040F2F403C2F2AB
:1016F00000034FF000021A6040F20C23C2F2000314
:101700004FF000021A6040F29C23C2F200034FF037
:1017100000021A604FF00003FB7140F22023C2F276
:1017200000034FF000021A7040F25823C2F2000387
:101730004FF000021A6040F24C13C2F200034FF067
:1017400000021A6040F20023C2F200034FF00002D0
:101750001A6040F26023C2F200034FF000021A60E8
:1017600040F27023C2F200034FF000021A6040F210
:101770001C23C2F200034FF000021A6040F21C1357
:10178000C2F200034FF000021A6040F2F813C2F2F6
:1017900000034FF000021A6040F21023C2F200036F
:1017A0004FF000021A6040F21813C2F200034FF02B
:1017B00000021A6040F22823C2F200034FF0000238
:1017C0001A6040F2E803C2F200034FF000021A6010
:1017D00040F23023C2F200034FF000021A7040F2D0
:1017E0003123C2F200034FF001021A7040F2542379
:1017F000C2F200034FF001021A7040F23423C2F229
:1018000000034FF000021A6040F25013C2F20003CE
:101810004FF000021A6040F26C13C2F200034FF066
:1018200000021A6040F27423C2F200034FF000027B
:101830001A6040F2F413C2F200034FF003021A7070
:1018400040F2E003C2F200034FF001021A7001F00F
:10185000B1FF46F22840C4F202004FF0010101F04E
:101860001FFC46F22840C4F202004FF0010101F0D3
:10187000FBFB00BF46F22840C4F2020001F01EFC50
:101880000346012BF6D14FF4A050C4F201004FF0F3
:1018900040014FF00102FFF785F800E000BF40F281
:1018A0001403C2F200031B68012BF7D101F054F8B6
:1018B00000F0B6F94FF47A7000F026F84FF0A0006F
:1018C00003F022F840F21403C2F200034FF00002CA
:1018D0001A60E3E780B582B000AF01F05FFA03F071
:1018E00077F94FF0010003F025FA00F023F80346E2
:1018F000FB71FB79082B03D14FF0000003F0E4F9F2
:1019000007F10807BD4680BD80B483B000AF7860A2
:1019100000BF7B68002B0CBF00220122D2B203F172
:10192000FF337B60002AF4D107F10C07BD4680BC71
:10193000704700BF80B400AF4FF46053C4F202039D
:101940009B68DBB203F00C03DBB21846BD4680BCDB
:10195000704700BF80B489B000AF78604FF00003DB
:10196000BB614FF000037B614FF00003FB614FF060
:1019700002033B614FF00003FB604FF00203BB60CA
:101980004FF46053C4F202039B6803F00C03BB6185
:10199000BB69042B0AD0082B0FD0002B60D17A68CA
:1019A0004FF41053C0F2F403136060E07A6847F616
:1019B0004003C0F27D13136059E04FF46053C4F24A
:1019C00002035B6803F480034FEA9353FB604FF418
:1019D0006053C4F202035B6803F03F03BB60FB6823
:1019E000002B14D047F64003C0F27D13BA68B3FB56
:1019F000F2F24FF46053C4F20203596847F6C07321
:101A00000B404FEA931303FB02F3FB6113E04FF427
:101A10001053C0F2F403BA68B3FBF2F24FF4605310
:101A2000C4F20203596847F6C0730B404FEA9313A0
:101A300003FB02F3FB614FF46053C4F202035B68E3
:101A400003F440334FEA134303F101034FEA430326
:101A50003B61FA693B69B2FBF3F27B681A6006E00E
:101A60007A684FF41053C0F2F403136000BF4FF4D0
:101A70006053C4F202039B6803F0F003BB61BB69CF
:101A80004FEA1313BB6140F20403C2F20003BA69C8
:101A90009B181B78DBB27B617B681A687B6922FA32
:101AA00003F27B685A604FF46053C4F202039B68F0
:101AB00003F4E053BB61BB694FEA9323BB6140F27F
:101AC0000403C2F20003BA699B181B78DBB27B6186
:101AD0007B685A687B6922FA03F27B689A604FF44C
:101AE0006053C4F202039B6803F46043BB61BB69AB
:101AF0004FEA5333BB6140F20403C2F20003BA69F8
:101B00009B181B78DBB27B617B685A687B6922FA81
:101B100003F27B68DA6007F12407BD4680BC70479A
:101B200080B483B000AF78600B46FB70FB78002B6D
:101B30000CD04FF46053C4F202034FF46052C4F26D
:101B40000202116B7A680A431A630DE04FF4605386
:101B5000C4F202034FF46052C4F20202116B7A68BD
:101B60006FEA02020A401A6307F10C07BD4680BC07
:101B7000704700BF80B483B000AF78600B46FB7045
:101B8000FB78002B0CD04FF46053C4F202034FF4E7
:101B90006052C4F20202116C7A680A431A640DE0C2
:101BA0004FF46053C4F202034FF46052C4F20202D5
:101BB000116C7A686FEA02020A401A6407F10C0796
:101BC000BD4680BC704700BF80B483B000AF786072
:101BD0000B46FB70FB78002B0CD04FF46053C4F223
:101BE00002034FF46052C4F20202516C7A680A4355
:101BF0005A640DE04FF46053C4F202034FF4605294
:101C0000C4F20202516C7A686FEA02020A405A6416
:101C100007F10C07BD4680BC704700BF0000000004
:101C20002DE9F04F83B000AF40F27413C2F200030D
:101C30001B6C184604F0CEFD02460B4610461946B2
:101C40004FF000024FF4C043C4F2980304F052FF77
:101C500002460B461046194604F070FC02460B463D
:101C600010461946AAA3D3E9002304F019FE024640
:101C70000B461046194605F0ADF8024640F27413C3
:101C8000C2F200035A6340F27413C2F200035B6CA9
:101C9000184604F09FFD02460B46104619464FF0C9
:101CA00000024FF4C043C4F2980304F023FF02463D
:101CB0000B461046194604F041FC02460B461046FE
:101CC000194693A3D3E9002304F0EAFD02460B462C
:101CD0001046194605F07EF8024640F27413C2F22F
:101CE00000039A6340F27413C2F200039B6C18461F
:101CF00004F070FD02460B46104619464FF00002F4
:101D00004FF4C043C4F2980304F0F4FE02460B46BD
:101D10001046194604F012FC02460B4610461946BE
:101D20007BA3D3E9002304F0BBFD02460B4610461B
:101D3000194605F04FF8024640F27413C2F2000350
:101D4000DA6340F27413C2F20003DB69184603F051
:101D5000BDF80346184604F04FFD02460B461046F8
:101D600019466DA3D3E9002304F09AFD02460B4601
:101D700014461D4640F27413C2F200031B6A184653
:101D800003F0A4F80346184604F036FD02460B465D
:101D90002046294604F084FD02460B4614461D46A3
:101DA00040F27413C2F20003DA6B40F27413C2F211
:101DB00000039B6B1046194605F060F80346184671
:101DC00004F01AFD02460B462046294604F068FD41
:101DD00002460B4614461D4640F27413C2F200033D
:101DE000DB69184603F03EF80346184604F004FD8C
:101DF00002460B461046194649A3D3E9002304F0D6
:101E00004FFD02460B469046994640F27413C2F2CB
:101E100000031B6A184603F059F80346184604F0FD
:101E2000EBFC02460B464046494604F039FD0246AB
:101E30000B469046994640F27413C2F200035A6B67
:101E400040F27413C2F200039B6B1046194605F072
:101E500017F803461A4640F27413C2F20003DB6B14
:101E60001046194605F00CF80346184604F0C4FC69
:101E700002460B464046494604F012FD02460B4618
:101E80002046294604F05AFB02460B4614461D46DE
:101E900040F27413C2F200031B6A184602F0E2FF1C
:101EA0000346184604F0A8FC8046894640F27413A5
:101EB000C2F200035B6B18464FF0404105F0E8F8B2
:101EC00003461A4640F27413C2F200039B6B10469D
:101ED000194604F0D5FF03461A4640F27413C2F2C5
:101EE0000003DB6B1046194604F0CAFF0346184690
:101EF00004F082FC02460B461046194608A3D3E9BB
:101F0000002304F0CDFC02460B4692469B460BE0B4
:101F10004AD8124DFB21094099999999E4CFC23FC3
:101F20005C8FC2F5E9B8B53F40F27413C2F200030A
:101F30009B6A184604F060FC02460B4610461946A0
:101F40004FF000024FF00003C3F6D87304F0A8FC72
:101F500002460B465046594604F0F0FA02460B463C
:101F60004046494604F09CFC02460B462046294662
:101F700004F0E4FA02460B4610461946ACA3D3E936
:101F8000002304F08DFC02460B461046194604F06F
:101F900021FF024640F22413C2F20003DA6040F24D
:101FA0007413C2F20003DB69184602F05BFF0346BC
:101FB000184604F021FC02460B46104619469EA323
:101FC000D3E9002304F06CFC02460B4614461D4680
:101FD00040F27413C2F20003DA6B40F27413C2F2DF
:101FE00000039B6B1046194604F048FF0346184651
:101FF00004F002FC02460B462046294604F050FC41
:1020000002460B4614461D4640F27413C2F200030A
:10201000DB69184602F05AFF0346184604F0ECFB51
:1020200002460B461046194685A3D3E9002304F067
:1020300037FC02460B469046994640F27413C2F2B2
:1020400000035A6B40F27413C2F200039B6B1046FC
:10205000194604F015FF03461A4640F27413C2F203
:102060000003DB6B1046194604F00AFF03461846CE
:1020700004F0C2FB02460B464046494604F010FC01
:1020800002460B462046294604F056FA02460B4605
:1020900014461D4640F27413C2F20003DB6A184670
:1020A00004F0AAFB02460B46104619464FF0000208
:1020B0004FF00003C3F6D87304F0F2FB02460B4660
:1020C0002046294604F03AFA02460B4610461946C5
:1020D0004FF000024FF00003C3F6D87304F00AFD7E
:1020E00002460B461046194604F074FE024640F2C2
:1020F0002413C2F200031A6140F27413C2F2000307
:10210000DB69184602F0AEFE044640F27413C2F2D8
:1021100000031B6A184602F0A5FE03462046194636
:1021200004F0B6FF03461C4640F27413C2F20003EB
:102130001B6A184602F0CAFE03461846194604F008
:102140009FFE03462046194604F09AFE03461846B1
:1021500004F052FB02460B461046194638A3D3E959
:10216000002304F09DFB02460B4614461D4640F238
:102170007413C2F200035B6B184604F03DFB024689
:102180000B462046294604F08BFB02460B461446BC
:102190001D4640F27413C2F200031B6A184602F097
:1021A00061FE034618464BF2D731C3F6DD7104F0E9
:1021B0006FFF03461E4640F27413C2F20003DB6950
:1021C000184602F083FE03463046194604F060FFCD
:1021D00003461E4640F27413C2F20003DA6B40F26B
:1021E0007413C2F200039B6B1046194604F046FEBE
:1021F00003463046194604F04BFF03461E4640F2A4
:102200007413C2F20003DB69184602F02BFE80460D
:1022100040F27413C2F200031B6A184602F022FE59
:1022200003464046194604F033FF034698460BE048
:10223000555555555555054099999999E4CFC23F43
:102240005C8FC2F5E9B8B53F40F27413C2F20003E7
:102250009A6B40F27413C2F20003DB6B104619460E
:1022600004F00EFE03464046194604F011FF0346F3
:102270003046194604F004FE03461E4640F274132D
:10228000C2F200031B6A184602F020FE804640F2AC
:102290007413C2F200039A6B40F27413C2F200038B
:1022A000DB6B1046194604F0EBFD03464046194629
:1022B00004F0EEFE03463046194604F0DFFD034607
:1022C000184604F099FA02460B4610461946A6A392
:1022D000D3E9002304F0E4FA02460B4620462946DF
:1022E00004F02CF902460B4614461D4640F27413C6
:1022F000C2F200031B6A184602F0E8FD034683F0B1
:10230000004240F27413C2F200039B6A1046194661
:1023100004F0BEFE03461A4640F27413C2F20003F4
:102320001B6B1046194604F0ABFD0346184604F03B
:1023300063FA02460B46104619464FF000024FF072
:102340000003C3F6D87304F0ABFA02460B462046EE
:10235000294604F0F3F802460B461046194684A3BA
:10236000D3E9002304F09CFA02460B4610461946B6
:1023700004F030FD024640F22413C2F200035A6119
:1023800040F22413C2F200031B68184604F034FA2A
:1023900004460D4640F22413C2F20003DA6840F20C
:1023A0005823C2F200031B681046194604F068FD6A
:1023B000034618464FF0804104F01EFF03461846BE
:1023C00004F01AFA02460B46104619466AA3D3E9EE
:1023D000002304F08FFB02460B462046294604F0FA
:1023E000ADF802460B461046194604F0F3FC0246CF
:1023F00040F22413C2F200031A6040F22413C2F226
:1024000000035B68184604F0F7F904460D4640F2F5
:102410002413C2F200031A6940F24C13C2F2000303
:102420001B681046194604F02BFD034618464FF072
:10243000804104F0E1FE0346184604F0DDF902464F
:102440000B46104619464CA3D3E9002304F052FB77
:1024500002460B462046294604F070F802460B4619
:102460001046194604F0B6FC024640F22413C2F2AC
:1024700000035A6040F22413C2F200039B6818461E
:1024800004F0BAF904460D4640F22413C2F20003E8
:102490005A6940F20023C2F200031B681046194635
:1024A00004F0EEFC034618464FF0804104F0A4FE11
:1024B0000346184604F0A0F902460B46104619469A
:1024C0002DA3D3E9002304F015FB02460B4620465A
:1024D000294604F033F802460B461046194604F02C
:1024E00079FC024640F22413C2F200039A6040F2E3
:1024F0002413C2F20003DA6840F25823C2F2000348
:102500001A6040F22413C2F200031A6940F24C131D
:10251000C2F200031A6040F22413C2F200035A69A7
:1025200040F20023C2F200031A6040F27013C2F2BC
:1025300000031B68022B23DC40F27413C2F2000379
:102540005A6A40F27423C2F200031A6040F2701318
:10255000C2F200031B6803F1010240F27013C2F2E1
:1025600000031A60E5E000BF5C8FC2F5E9B8B53F33
:1025700055555555555505406666666666D66340A1
:1025800040F27413C2F200035A6A40F27423C2F29A
:1025900000031B681046194604F070FC03461A46F7
:1025A00040F2E403C2F200031B681046194604F02F
:1025B00065FC03467B6078684FF0000104F006FF7D
:1025C0000346002B03D07B6883F000437B60786870
:1025D00004F012F902460B461046194610A3D3E93F
:1025E000002304F0EDFB0346002B1DD040F27413D2
:1025F000C2F200035B6A18464FF0000104F004FFCA
:102600000346002B10D040F21413C2F200031B68E3
:1026100003F1FF3240F21413C2F200031A602BE000
:10262000666666666666E63F786804F0E5F8024628
:102630000B4610461946B4A3D3E9002304F0C0FBAF
:102640000346002B18D040F27413C2F200035B6AF9
:1026500018464FF0000104F0B9FE0346002B0BD0E2
:1026600040F21413C2F200031B6803F1010240F2AE
:102670001413C2F200031A6040F27413C2F2000392
:102680005B6A184604F0B8F804460D4640F214138D
:10269000C2F200031B68184604F0A6FC0346184665
:1026A000194604F0EDFB0346184604F0A5F802466F
:1026B0000B461046194696A3D3E9002304F0F0F820
:1026C00002460B462046294603F038FF02460B46D9
:1026D00014461D4640F27423C2F200031B681846DC
:1026E00004F08AF802460B462046294603F024FFF0
:1026F00002460B461046194604F06CFB024640F2B7
:102700007413C2F200031A6640F27413C2F200039B
:102710005A6A40F27423C2F200031B68104619463D
:1027200004F0ACFB03461A4640F2E403C2F2000395
:102730001A6040F27413C2F200031B6E184602F0D6
:10274000C5FB024640F22413C2F20003DB681046C8
:10275000194604F09DFC03461C4640F27413C2F275
:1027600000031B6E184602F07DFB024640F2241364
:10277000C2F200031B691046194604F089FC0346A7
:102780002046194604F07CFB034618464FF078516A
:1027900004F07EFC03461A4640F22413C2F2000302
:1027A0001A6240F27413C2F200031B6E184602F064
:1027B0008DFB024640F22413C2F200031B6910464F
:1027C000194604F065FC03461C4640F27413C2F23D
:1027D00000031B6E184602F045FB024640F224132C
:1027E000C2F20003DB681046194604F051FC0346B0
:1027F0002046194604F042FB034618464FF0785134
:1028000004F046FC03461A4640F22413C2F20003C9
:102810005A6240F22413C2F200039B69184603F087
:10282000EBFF04460D4640F22413C2F200031A6A7D
:1028300040F26023C2F200031B681046194604F000
:102840001FFB034618464FF0804104F0D5FC0346B9
:10285000184603F0D1FF02460B46104619462EA338
:10286000D3E9002304F046F902460B4620462946E8
:1028700003F064FE02460B461046194604F0AAFA1D
:10288000024640F22413C2F200039A6140F224137C
:10289000C2F20003DB69184603F0AEFF04460D46A2
:1028A00040F22413C2F200035A6A40F27023C2F2CB
:1028B00000031B681046194604F0E2FA0346184666
:1028C0004FF0804104F098FC0346184603F094FF53
:1028D00002460B46104619460FA3D3E9002304F025
:1028E00009F902460B462046294603F027FE024618
:1028F0000B461046194604F06DFA024640F22413C6
:102900000EE000BFAFF30080666666666666E63F6F
:102910004AD8124DFB2109406666666666D663405A
:10292000C2F20003DA6140F22413C2F20003DA6853
:1029300040F26023C2F200031A6040F22413C2F294
:1029400000031A6940F27023C2F200031A6007F113
:102950000C07BD46BDE8F08FB0B500AF40F2741370
:10296000C2F200031C6940F27413C2F200035D69F5
:1029700040F27413C2F200031B6A184602F0E2FA36
:1029800003462846194604F083FB03461D4640F2E1
:102990007413C2F20003DB69184602F097FA03468B
:1029A0002846194604F074FB03462046194604F0F5
:1029B00067FA03461C4640F27413C2F200039D6995
:1029C00040F27413C2F200031B6A184602F0BAFA0E
:1029D00003462846194604F05BFB03461D4640F2B9
:1029E0007413C2F20003DB69184602F03BFA034697
:1029F0002846194604F04CFB03462046194604F0CD
:102A00003FFA03461A4640F27413C2F200039A6278
:102A100040F27413C2F200035C6940F27413C2F214
:102A20000003DB69184602F01DFA034620461946EA
:102A300004F02EFB03461C4640F27413C2F200035E
:102A40009D6940F27413C2F20003DB69184602F07C
:102A50003DFA03462846194604F01AFB0346204671
:102A6000194604F00BFA03461A4640F27413C2F2F8
:102A70000003DA6240F27413C2F200035C6940F2B0
:102A80007413C2F20003DB69184602F01FFA034612
:102A90002046194604F0FCFA03461C4640F2741323
:102AA000C2F200031B6A184602F0DCF90346204616
:102AB000194604F0A1FB03461C4640F27413C2F20F
:102AC00000039D6940F27413C2F20003DB691846EB
:102AD00002F0C8F903462846194604F0D9FA03461D
:102AE0001D4640F27413C2F200031B6A184602F03E
:102AF000B9F903462846194604F07EFB03462046F2
:102B0000194604F0BDF903461A4640F27413C2F2A6
:102B100000031A63B0BD00BF80B487B000AF786017
:102B200039604FF000037B614FF000033B614FF0D1
:102B30000003FB604FF000037B6186E07B694FF090
:102B4000010202FA03F33B613B681A683B691340D8
:102B5000FB60FA683B699A4273D17B681A687B69AB
:102B60004FEA43034FF0030101FA03F36FEA030353
:102B70001A407B681A607B681A683B681B791946A3
:102B80007B694FEA430301FA03F31A437B681A6037
:102B90003B681B79012B03D03B681B79022B34D196
:102BA0007B689A687B694FEA43034FF0030101FA9F
:102BB00003F36FEA03031A407B689A607B689A68A4
:102BC0003B685B7919467B694FEA430301FA03F3DB
:102BD0001A437B689A607B685A687B699BB24FF0A6
:102BE000010101FA03F36FEA03031A407B685A609C
:102BF0007B685A683B689B7919467B699BB201FAEE
:102C000003F39BB21A437B685A607B68DA687B697E
:102C10009BB24FEA43034FF0030101FA03F36FEA5B
:102C200003031A407B68DA607B68DA683B68DB790B
:102C300019467B694FEA430301FA03F31A437B68A1
:102C4000DA607B6903F101037B617B690F2B7FF6FF
:102C500075AF07F11C07BD4680BC704780B483B0D8
:102C600000AF78607B684FF6FF721A607B684FF0A8
:102C700000021A717B684FF000025A717B684FF0B6
:102C800000029A717B684FF00002DA7107F10C07BD
:102C9000BD4680BC704700BF80B483B000AF786091
:102CA0000B467B807B687A881A8307F10C07BD4648
:102CB00080BC704780B483B000AF78600B467B80E7
:102CC0007B687A885A8307F10C07BD4680BC704741
:102CD00080B483B000AF78600B467B807B685A6914
:102CE0007B885A407B685A6107F10C07BD4680BC5F
:102CF000704700BF80B485B000AF786013460A46C5
:102D00007A807B704FF00003FB604FF00003BB60E4
:102D10007A787B8803F007034FEA830302FA03F310
:102D2000FB607B884FEAD3039BB21A467B884FEA4D
:102D3000D3039BB219467B6801F1080153F82110B7
:102D40007B8803F007034FEA83034FF00F0000FA7C
:102D500003F36FEA030319407B6802F1080243F8AA
:102D600022107B884FEAD3039BB21A467B6802F19C
:102D7000080253F82220FB681343BB607B884FEAAC
:102D8000D3039BB21A467B6802F10802B96843F884
:102D9000221007F11407BD4680BC704780B500AF14
:102DA0004FF46053C4F202034FF46052C4F20202C3
:102DB000126842F001021A604FF46053C4F2020339
:102DC0004FF000029A604FF46053C4F202034FF4D4
:102DD0006052C4F20202126822F0847222F480323D
:102DE0001A604FF46053C4F2020343F21002C2F2BD
:102DF00000425A604FF46053C4F202034FF4605231
:102E0000C4F20202126822F480221A604FF4605366
:102E1000C4F202034FF00002DA6000F009F84FF448
:102E20006D43CEF200034FF000629A6080BD00BF98
:102E300080B483B000AF4FF000037B604FF000031D
:102E40003B604FF46053C4F202034FF46052C4F28B
:102E50000202126842F480321A604FF46053C4F2E6
:102E600002031B6803F400333B607B6803F101033A
:102E70007B603B68002B03D17B68B3F5A06FECD17E
:102E80004FF46053C4F202031B6803F40033002BB9
:102E900003D04FF001033B6002E04FF000033B60C2
:102EA0003B68012B40F082804FF46053C4F2020370
:102EB0004FF46052C4F20202126C42F080521A6463
:102EC0004FF4E043C4F200034FF4E042C4F20002C6
:102ED000126842F480421A604FF46053C4F2020355
:102EE0004FF46052C4F2020292689A604FF4605349
:102EF000C4F202034FF46052C4F20202926842F438
:102F000000429A604FF46053C4F202034FF46052DF
:102F1000C4F20202926842F4A0529A604FF46053E5
:102F2000C4F2020345F21942C0F240725A604FF4F3
:102F30006053C4F202034FF46052C4F202021268FA
:102F400042F080721A6000BF4FF46053C4F2020373
:102F50001B6803F00073002BF6D04FF47053C4F2DB
:102F6000020340F205621A604FF46053C4F2020398
:102F70004FF46052C4F20202926822F003029A6097
:102F80004FF46053C4F202034FF46052C4F20202E1
:102F9000926842F002029A6000BF4FF46053C4F29C
:102FA00002039B6803F00C03082BF6D107F10C0712
:102FB000BD4680BC704700BF80B485B000AF78606C
:102FC00039604FF00003FB607B681B68FB60FA68A8
:102FD00048F23F03CFF21C031340FB603B681A68C2
:102FE0003B68DB681A433B685B691A433B689B6933
:102FF0001A433B68DB691A433B681B6A1A433B6808
:103000005B6A1A433B689B6A1A433B685B6B1A43D3
:103010003B689B6B1343FA681343FB607B68FA6859
:103020001A607B685B69FB60FB6823F00703FB6049
:103030003B68DA6A3B681B6B1343FA681343FB6017
:103040007B68FA685A613B681A697B685A603B681A
:103050005A687B689A603B689A687B68DA6007F117
:103060001407BD4680BC704780B483B000AF786061
:103070000B46FB70FB78002B06D07B681B6843F087
:1030800001027B681A6005E07B681B6823F001027F
:103090007B681A6007F10C07BD4680BC704700BF13
:1030A00080B483B000AF78600B467B807A887B6801
:1030B0005A6007F10C07BD4680BC704780B485B0EC
:1030C00000AF78604FF00003FB737B681B6803F070
:1030D0000103002B03D04FF00103FB7302E04FF01C
:1030E0000003FB73FB7B184607F11407BD4680BC49
:1030F000704700BF80B485B000AF786039607A68EF
:1031000046F20F43C4F202039A4205D84FF4C0437B
:10311000C4F20203FB6004E04FF4C843C4F20203AC
:10312000FB603B6803F00053002B07D03B6823F0A3
:10313000F02323F08213FA68D36006E03B6823F0A3
:10314000F02323F08213FA68936007F11407BD4659
:1031500080BC704780B485B000AFF860B96013469A
:10316000FB71BB6803F08003002B0FD0FB79002BB1
:1031700006D0FB685B6943F08002FB685A6105E09A
:10318000FB685B6923F08002FB685A61BB68802B97
:1031900015D0FB79002B08D0FB681A68BB6803F0D8
:1031A0001E031A43FB681A6009E0FB681A68BB68D3
:1031B00003F01E036FEA03031A40FB681A6007F16D
:1031C0001407BD4680BC704780B485B000AF7860FE
:1031D00039607A6846F20F43C4F202039A4205D876
:1031E0004FF4C043C4F20203FB6004E04FF4C84351
:1031F000C4F20203FB603B6803F00053002B07D0CE
:103200003B6823F0F02323F08213FA68D36006E0D2
:103210003B6823F0F02323F08213FA68936007F1F0
:103220001407BD4680BC704780B485B000AF78609D
:103230004FF00003FB734FF00003BB734FF00F031D
:103240007B737B68DB78002B45D04FF46D43CEF267
:103250000003DB686FEA030303F4E0634FEA132320
:10326000FB73FB7BC3F10403BB737A7BFB7B42FAEA
:1032700003F37B737B685B781A46BB7B02FA03F32C
:10328000FB737B689A787B7B1340DAB2FB7B13433A
:10329000FB73FB7B4FEA0313FB734FF46143CEF2E6
:1032A00000037A6812789B18FA7B83F800234FF4A6
:1032B0006143CEF200037A6812784FEA5212D2B21A
:1032C0007968097801F01F014FF0010000FA01F15F
:1032D00043F8221014E04FF46143CEF200037A6801
:1032E00012784FEA5212D2B27968097801F01F01C0
:1032F0004FF0010000FA01F102F1200243F8221020
:1033000007F11407BD4680BC704700BF80B586B08A
:1033100000AF4FF008004FF00101FEF701FC4FF441
:1033200080204FF00101FEF725FC4FF400104FF014
:103330000101FEF7F5FB4FF44060C4F202004FF0CC
:1033400008014FF00702FFF7D5FC4FF44060C4F2CC
:1033500002004FF009014FF00702FFF7CBFC4FF0DE
:1033600002033B714FF002037B714FF00003FB71CE
:103370004FF480733B603B464FF44060C4F2020060
:103380001946FFF7C9FB4FF400733B603B464FF40F
:103390004060C4F202001946FFF7BEFB4FF4E12380
:1033A000BB604FF00003BB814FF00003FB814FF087
:1033B00000033B824FF00003BB824FF00C037B8283
:1033C00007F108034FF49040C4F200001946FDF7DE
:1033D000F3F940F28433C2F200034FF00002DA62E4
:1033E00040F28433C2F200034FF000021A6340F24D
:1033F0008433C2F200034FF000025A6340F2843378
:10340000C2F200034FF000021A6240F28433C2F2AB
:1034100000034FF480629A6140F28433C2F20003E9
:1034200044F60402C4F200025A6040F28433C2F24D
:1034300000034FF000029A6340F28433C2F20003AB
:103440004FF00002DA6140F28433C2F200034FF021
:1034500000025A6140F28433C2F200034FF400329A
:103460009A6240F28433C2F200034FF000025A62C3
:1034700040F28433C2F200034FF00B021A6140F2B3
:103480008433C2F200034FF000621A6040F28433CA
:10349000C2F200034FF04002DA6040F21802C2F2BA
:1034A000000240F28433C2F200039A6046F25800F0
:1034B000C4F2020040F28431C2F20001FFF77CFD49
:1034C00040F28433C2F200034FF480725A6240F239
:1034D0008433C2F200034FF001021A6140F28433D8
:1034E000C2F200034FF000621A6040F28433C2F26D
:1034F00000034FF00002DA6040F24802C2F200021C
:1035000040F28433C2F200039A6046F22800C4F20B
:10351000020040F28431C2F20001FFF74DFD40F29B
:103520008033C2F200034FF027021A7040F280335A
:10353000C2F200034FF00102DA7040F28033C2F2AF
:1035400000034FF00D025A7040F28030C2F20000CA
:10355000FFF76AFE4FF49040C4F2000040F226618B
:10356000FDF744FA4FF49040C4F2000040F22551B8
:10357000FDF73CFA4FF49040C4F200004FF0010117
:10358000FDF7F0F940F28033C2F200034FF00C0275
:103590001A7040F28033C2F200034FF00102DA7079
:1035A00040F28033C2F200034FF000025A7040F242
:1035B0008033C2F200034FF000029A7040F2803074
:1035C000C2F20000FFF730FE46F22800C4F202000B
:1035D0004FF40841C1F20001FFF7F6FD46F2280062
:1035E000C4F202004FF010014FF00102FFF7B2FDEC
:1035F00040F28033C2F200034FF00E021A7040F224
:103600008033C2F200034FF00102DA7040F28033DF
:10361000C2F200034FF000025A7040F28033C2F24F
:1036200000034FF000029A7040F28030C2F20000B6
:10363000FFF7FAFD46F25800C4F202004FF40041D1
:10364000C1F60001FFF7C0FD46F25800C4F20200C7
:103650004FF010014FF00102FFF77CFD07F1180752
:10366000BD4680BD80B584B000AF03463960FB80A5
:103670003B684FF0FF021A703B6803F101033B60A7
:103680003B684FF002021A703B6803F101033B6094
:103690003B6803F101033B60FB884FEA13239BB2B5
:1036A000DAB23B681A703B6803F101033B60FB88A8
:1036B000DAB23B681A703B6803F1FF333B603B684A
:1036C00003F1FF333B60FB8803F103039BB23868CF
:1036D000194600F097F80346FB81FB8803F10303CA
:1036E0003A68D3183B60FB894FEA13239BB2DAB2E6
:1036F0003B681A703B6803F101033B60FB89DAB257
:103700003B681A703B6803F101033B603B684FF074
:1037100003021A7046F22800C4F202004FF00101C1
:10372000FFF7BEFC46F22800C4F202004FF0010190
:10373000FFF79AFC00BF46F22800C4F20200FFF730
:10374000BDFC0346012BF6D14FF49040C4F20000BB
:103750004FF040014FF00102FDF724F9FB8803F11F
:1037600008039BB246F25800C4F202001946FFF764
:1037700097FC46F25800C4F202004FF00101FFF737
:1037800073FC00BF46F25800C4F20200FFF796FC3B
:103790000346012BF6D14FF49040C4F200004FF0E5
:1037A00080014FF00102FDF7FDF807F11007BD465B
:1037B00080BD00BF80B500AF40F21803C2F2000325
:1037C0004FF053029A7040F21803C2F200034FF018
:1037D00000025A7140F21803C2F200034FF00102D6
:1037E0009A7140F21803C2F200034FF00102DA713D
:1037F0004FF0030040F21801C2F20001FFF732FF60
:1038000080BD00BF80B487B000AF78600B467B807E
:1038100048F208433B824FF00003FB824FF0000365
:10382000FB734FF000037B754FF000037B824FF07A
:1038300000037B8226E07B8A7A68D3181B781A46BD
:10384000FB8A5340FB824FF000037B7513E0FB8A39
:10385000DBB203F00103FB73FB8A4FEA5303FB82E5
:10386000FB7B002B03D0FA8A3B8A5340FB827B7D93
:1038700003F101037B757B7D072BE8D97B8A03F17C
:1038800001037B827A8A7B889A42D4D3FB8A1846CA
:1038900007F11C07BD4680BC704700BF80B500AF74
:1038A0004FF0010001F010FA4FF49040C4F2000014
:1038B0004FF080014FF00002FDF774F846F2580017
:1038C000C4F202004FF00001FFF7CEFB00BF46F24A
:1038D0005800C4F20200FFF7F1FB0346002BF6D1BB
:1038E00046F25800C4F202004FF0C051FFF702FC4C
:1038F00080BD00BF80B582B000AF46F22800C4F2A0
:1039000002004FF00001FFF7AFFB00BF46F22800B6
:10391000C4F20200FFF7D2FB0346002BF6D140F2BF
:103920009003C2F200031B68032B00F28C8001A2FB
:1039300052F823F04539000873390008C1390008EE
:10394000ED39000840F24803C2F200031B78FF2B58
:1039500006D140F29003C2F200034FF001021A6058
:1039600046F22800C4F202004FF00101FFF798FB75
:1039700069E040F24803C2F200031B78022B0FD12A
:1039800040F29003C2F200034FF002021A6046F2C6
:103990002800C4F202004FF03A01FFF781FB52E029
:1039A00040F29003C2F200034FF000021A6046F2A8
:1039B0002800C4F202004FF00101FFF771FB42E062
:1039C0004FF002037B60786800F068F846F2280048
:1039D000C4F202004FF03C01FFF762FB40F290039B
:1039E000C2F200034FF003021A602CE04FF0000314
:1039F0007B6040F24803C2F200031B78FF2B12D118
:103A000040F24803C2F200035B78022B0BD17868C6
:103A100000F044F846F22800C4F202004FF03C01E6
:103A2000FFF73EFB0EE040F29003C2F200034FF0BE
:103A300000021A6046F22800C4F202004FF00101B1
:103A4000FFF72EFB00BF46F22800C4F202004FF041
:103A50000101FFF709FB00BF46F22800C4F2020093
:103A6000FFF72CFB0346012BF6D146F22800C4F2E7
:103A700002004FF40061C1F20001FFF73BFB4FF47D
:103A80009040C4F200004FF040014FF00102FCF7FB
:103A900089FF07F10807BD4680BD00BF80B592B021
:103AA00000AF786040F27413C2F200033B64384BFD
:103AB000FB63384BBB63384B7B63384B3B63384B02
:103AC000FB62384BBB62384B7B62384B3B62384BF6
:103AD000FB61384BBB61384B7B61384B3B617B688A
:103AE000C3F1030240F24803C2F200039B5C4FEAB9
:103AF00003239AB27B68C3F1040140F24803C2F287
:103B000000035B5C13439BB2FB81FB8903F105025D
:103B10007B68D21A40F24803C2F200039B5C4FEA72
:103B200003239AB2FB8903F106017B68C91A40F2AC
:103B30004803C2F200035B5C13439BB2BB817B680A
:103B4000C3F1020240F24803C2F20003D218FB891B
:103B500003F103039BB210461946FFF753FE0346D9
:103B6000BA899A4240F03D817B68C3F1020240F27B
:103B70004803C2F200039B5C902B40F031814FF070
:103B8000030001F0A1F84FF004037B64ECE000BFF8
:103B9000780100207C0100208001002084010020A9
:103BA000880100208C010020900100209401002059
:103BB00098010020E0010020E4010020E80100203D
:103BC0007B687A6CD31A03F1040240F24803C2F214
:103BD00000039A5C3B6C1A703B6C03F101033B647D
:103BE0007B687A6CD31A03F1080240F24803C2F2F0
:103BF00000039A5CFB6B1A70FB6B03F10103FB6320
:103C00007B687A6CD31A03F10C0240F24803C2F2CB
:103C100000039A5CBB6B1A70BB6B03F10103BB63BF
:103C20007B687A6CD31A03F1100240F24803C2F2A7
:103C300000039A5C7B6B1A707B6B03F101037B635F
:103C40007B687A6CD31A03F1140240F24803C2F283
:103C500000039A5C7B6A1A707B6A03F101037B6242
:103C60007B687A6CD31A03F1180240F24803C2F25F
:103C700000039A5C3B6A1A703B6A03F101033B62E2
:103C80007B687A6CD31A03F11C0240F24803C2F23B
:103C900000039A5CFB691A70FB6903F10103FB6185
:103CA0007B687A6CD31A03F1200240F24803C2F217
:103CB00000039A5C3B6B1A703B6B03F101033B639F
:103CC0007B687A6CD31A03F1240240F24803C2F2F3
:103CD00000039A5CFB6A1A70FB6A03F10103FB6242
:103CE0007B687A6CD31A03F1280240F24803C2F2CF
:103CF00000039A5CBB6A1A70BB6A03F10103BB62E2
:103D00007B687A6CD31A03F12C0240F24803C2F2AA
:103D100000039A5CBB691A70BB6903F10103BB61C4
:103D20007B687A6CD31A03F1300240F24803C2F286
:103D300000039A5C7B691A707B6903F101037B6164
:103D40007B687A6CD31A03F1340240F24803C2F262
:103D500000039A5C3B691A703B6903F101033B6104
:103D60007B6C03F1FF337B647B6C002B7FF428AF0B
:103D700040F27413C2F20003DB6983F0004240F2A8
:103D80007413C2F20003DA6140F27413C2F200034A
:103D90001B6983F0004240F27413C2F200031A61FF
:103DA00040F27413C2F200035B6A83F0004240F2F7
:103DB0007413C2F200035A6240F27413C2F2000399
:103DC0009B6983F0004240F27413C2F200039A61CF
:103DD00040F21403C2F200034FF001021A6000E047
:103DE00000BF07F14807BD4680BD00BF80B588B061
:103DF00000AF4FF004004FF00101FDF791FE4FF0CE
:103E000040004FF00101FDF78BFE4FF020004FF016
:103E10000101FDF7D9FE4FF480004FF00101FDF7DD
:103E20007FFE4FF40060C4F202004FF006014FF035
:103E30000802FEF75FFF4FF4C050C4F202004FF0DB
:103E400009014FF00802FEF755FF4FF002033B73E4
:103E50004FF002037B734FF00003FB734FF04003FE
:103E6000BB6007F108034FF40060C4F2020019467A
:103E7000FEF752FE4FF40073BB6007F108034FF4E6
:103E8000C050C4F202001946FEF746FE4FF4E1238B
:103E90003B614FF00003BB824FF00003FB824FF009
:103EA00000033B834FF00003BB834FF00C037B8385
:103EB00007F110034FF4A050C4F201001946FCF7BB
:103EC0007BFC40F28433C2F200034FF00002DA625E
:103ED00040F28433C2F200034FF000021A6340F252
:103EE0008433C2F200034FF000025A6340F284337D
:103EF000C2F200034FF000021A6240F28433C2F2B1
:103F000000034FF480629A6140F28433C2F20003EE
:103F100041F20442C4F201025A6040F28433C2F218
:103F200000034FF000029A6340F28433C2F20003B0
:103F30004FF00002DA6140F28433C2F200034FF026
:103F400000025A6140F28433C2F200034FF400329F
:103F50009A6240F28433C2F200034FF000025A62C8
:103F600040F28433C2F200034FF0A5021A6140F21E
:103F70008433C2F200034FF020621A6040F28433AF
:103F8000C2F200034FF04002DA6040F2A422C2F213
:103F9000000240F28433C2F200039A6046F2A0406D
:103FA000C4F2020040F28431C2F20001FFF704F8CB
:103FB00040F28433C2F200034FF480725A6240F23E
:103FC0008433C2F200034FF001021A6140F28433DD
:103FD000C2F200034FF020621A6040F28433C2F252
:103FE00000034FF00002DA6040F26C32C2F20002CD
:103FF00040F28433C2F200039A6046F22840C4F2D1
:10400000020040F28431C2F20001FEF7D5FF4FF00A
:1040100047033B714FF00103FB714FF00D037B71C0
:1040200007F104031846FFF7FFF84FF4A050C4F25D
:10403000010040F22661FCF7D9FC4FF4A050C4F215
:10404000010040F22551FCF7D1FC4FF4A050C4F21E
:1040500001004FF00101FCF785FC4FF039033B7183
:104060004FF00103FB714FF000037B714FF0000331
:10407000BB7107F104031846FFF7D6F846F2284053
:10408000C4F202004FF40841C1F20001FFF79CF8AE
:1040900046F22840C4F202004FF010014FF0010236
:1040A000FFF758F84FF045033B714FF00103FB71E8
:1040B0004FF000037B714FF00003BB7107F1040365
:1040C0001846FFF7B1F846F2A040C4F202004FF4E0
:1040D0000041C2F22001FFF777F846F2A040C4F297
:1040E00002004FF010014FF00102FFF733F807F123
:1040F0002007BD4680BD00BF80B584B000AF034639
:104100003960FB803B684FF048021A703B6803F14E
:1041100001033B603B6803F101033B60FB88DAB2BB
:104120003B681A703B6803F1FF333B60FB8803F187
:1041300002039BB23868194600F068FE0346FB8113
:10414000FB8803F102033A68D3183B60FB89DAB2BB
:104150003B681A703B6803F101033B603B684FF01A
:1041600003021A70FB8803F105039BB246F2A040DC
:10417000C4F202001946FEF793FF46F2A040C4F2D3
:1041800002004FF00101FEF76FFF00BF46F2A040B2
:10419000C4F20200FEF792FF0346012BF6D14FF462
:1041A000A050C4F201004FF080014FF00102FCF773
:1041B000F9FB07F11007BD4680BD00BF80B500AF19
:1041C0004FF0020000F0ECFD46F2A040C4F2020005
:1041D0004FF00001FEF748FF00BF46F2A040C4F2D6
:1041E0000200FEF76BFF0346002BF6D146F2A0401B
:1041F000C4F202004FF00001C2F22001FEF77AFF84
:1042000080BD00BF80B582B000AF46F22840C4F246
:1042100002004FF00001FEF727FF00BF46F22840E2
:10422000C4F20200FEF74AFF0346002BF6D140F22B
:104230008803C2F200031B68012B1BD0012B02D3A1
:10424000022B2DD052E040F26C33C2F200031B78F7
:10425000482B06D140F28803C2F200034FF001025E
:104260001A6046F22840C4F202004FF01301FEF734
:1042700017FF3BE04FF001037B60786800F060F8C7
:1042800046F22840C4F202004FF01401FEF708FF86
:1042900040F28803C2F200034FF002021A6025E0E8
:1042A0004FF000037B6040F26C33C2F200031B78D6
:1042B000482B0BD1786800F043F846F22840C4F24E
:1042C00002004FF01401FEF7EBFE0EE040F288030F
:1042D000C2F200034FF000021A6046F22840C4F216
:1042E00002004FF00101FEF7DBFE00BF46F228405E
:1042F000C4F202004FF00101FEF7B6FE00BF46F225
:104300002840C4F20200FEF7D9FE0346012BF6D185
:1043100046F22840C4F202004FF40061C1F20001ED
:10432000FEF7E8FE4FF4A050C4F201004FF0400148
:104330004FF00102FCF736FB07F10807BD4680BDD0
:1043400080B58CB000AF7860C84BBB62C84B7B6255
:10435000C84B3B62C84BFB61C84BBB61C84B7B6120
:10436000C84B3B6140F2E803C2F200034FF0000289
:104370001A607B68C3F1020240F26C33C2F20003A0
:104380009B5CFB737B68C3F1110240F26C33C2F299
:1043900000039B5C4FEA03239AB27B68C3F11201CE
:1043A00040F26C33C2F200035B5C13439BB2BB81EF
:1043B0007B68C3F1010240F26C33C2F20003D218F1
:1043C000FB7B9BB203F102039BB210461946FFF739
:1043D00019FA0346BA899A4240F091827B68C3F188
:1043E000010240F26C33C2F200039A5C40F2C03327
:1043F000C2F200031A707B68C3F1010240F26C3311
:10440000C2F200039B5C03F00F030F2B00F27682D5
:1044100001A252F823F000BF5944000833450008B8
:10442000C74500085B46000889460008FF460008AB
:10443000934700086D4800087D4800088D48000833
:104440009D480008AD480008BD480008CD48000858
:10445000DD480008ED4800084FF0000387F82F30D2
:1044600038E097F82F3003F103027B68D21A40F24C
:104470006C33C2F200039A5CBB6A1A70BB6A03F128
:104480000103BB6297F82F3003F107027B68D21A51
:1044900040F26C33C2F200039A5C7B6A1A707B6A4A
:1044A00003F101037B6297F82F3003F10B027B6865
:1044B000D21A40F26C33C2F200039A5C3B6A1A7063
:1044C0003B6A03F101033B6297F82F3003F10103CC
:1044D00087F82F3097F82F30032BC2D940F2F4130E
:1044E000C2F200031B78002B1BD040F22413C2F24F
:1044F00000034FF000021A6040F22413C2F20003DE
:104500004FF000025A6040F21023C2F200034FF055
:1045100000021A6040F21813C2F200034FF00002CA
:104520001A6040F2F413C2F200034FF000021A7056
:10453000E5E14FF0000387F82F3038E097F82F308F
:1045400003F103027B68D21A40F26C33C2F200031B
:104550009A5CFB691A70FB6903F10103FB6197F830
:104560002F3003F107027B68D21A40F26C33C2F29B
:1045700000039A5CBB691A70BB6903F10103BB615C
:1045800097F82F3003F10B027B68D21A40F26C339C
:10459000C2F200039A5C3B6A1A703B6A03F10103A2
:1045A0003B6297F82F3003F1010387F82F3097F81B
:1045B0002F30032BC2D940F2F413C2F200034FF0A4
:1045C00001021A709BE14FF0000387F82F3038E0AA
:1045D00097F82F3003F103027B68D21A40F26C3354
:1045E000C2F200039A5C7B691A707B6903F10103D4
:1045F0007B6197F82F3003F107027B68D21A40F2F3
:104600006C33C2F200039A5C3B691A703B6903F198
:1046100001033B6197F82F3003F10B027B68D21A3C
:1046200040F26C33C2F200039A5C3B6A1A703B6A38
:1046300003F101033B6297F82F3003F1010387F880
:104640002F3097F82F30032BC2D940F2F413C2F267
:1046500000034FF007021A7051E140F2F413C2F266
:1046600000034FF003021A7049E100BFCC000020A4
:10467000D0000020D4000020D8000020DC00002062
:10468000C4000020C800002040F2F413C2F200036E
:104690001B78042B2BD040F22413C2F200034FF0FE
:1046A00000021A6040F22413C2F200034FF000022D
:1046B0005A6040F27413C2F200031A6E40F2B00363
:1046C000C2F200035A6240F27413C2F200031A6E7F
:1046D00040F2B003C2F200039A6040F27413C2F2D7
:1046E00000031A6E40F2F813C2F200031A6040F29F
:1046F000F413C2F200034FF004021A70FFE04FF00F
:10470000000387F82F3038E097F82F3003F10302C9
:104710007B68D21A40F26C33C2F200039A5CFB69E8
:104720001A70FB6903F10103FB6197F82F3003F165
:1047300007027B68D21A40F26C33C2F200039A5C23
:10474000BB691A70BB6903F10103BB6197F82F3095
:1047500003F10B027B68D21A40F26C33C2F2000301
:104760009A5C3B6A1A703B6A03F101033B6297F85B
:104770002F3003F1010387F82F3097F82F30032BE8
:10478000C2D940F2F413C2F200034FF005021A70CE
:10479000B5E04FF0000387F82F3038E097F82F305E
:1047A00003F103027B68D21A40F26C33C2F20003B9
:1047B0009A5CBB6A1A70BB6A03F10103BB6297F88B
:1047C0002F3003F107027B68D21A40F26C33C2F239
:1047D00000039A5C7B6A1A707B6A03F101037B62B7
:1047E00097F82F3003F10B027B68D21A40F26C333A
:1047F000C2F200039A5C3B6A1A703B6A03F1010340
:104800003B6297F82F3003F1010387F82F3097F8B8
:104810002F30032BC2D940F2F413C2F200031B78ED
:10482000062B1BD040F22413C2F200034FF000020B
:104830001A6040F22413C2F200034FF000025A60E3
:1048400040F21023C2F200034FF000021A6040F25F
:104850001813C2F200034FF000021A6040F2F41382
:10486000C2F200034FF006021A7048E040F2F4135F
:10487000C2F200034FF007021A7040E040F2F41356
:10488000C2F200034FF008021A7038E040F2F4134D
:10489000C2F200034FF009021A7030E040F2F41344
:1048A000C2F200034FF00A021A7028E040F2F4133B
:1048B000C2F200034FF00B021A7020E040F2F41332
:1048C000C2F200034FF00C021A7018E040F2F41329
:1048D000C2F200034FF00D021A7010E040F2F41320
:1048E000C2F200034FF00E021A7008E040F2F41317
:1048F000C2F200034FF00F021A7000E000BF07F190
:104900003007BD4680BD00BF80B58EB000AF034606
:10491000FB71A94B7B63A94B3B63A94BFB6240F244
:104920002413C2F20003BB62A64B7B62A64B3B6220
:10493000A54BFB6140F2B003C2F20003BB6140F241
:104940007413C2F200037B61A04B3B6107F10B03C0
:10495000FB6040F2A423C2F200034FF044025A70FD
:104960004FF00003FB7212E0FB7A03F103027B6B52
:10497000197840F2A423C2F2000399547B6B03F12F
:1049800001037B63FB7A03F10103DBB2FB72FB7A69
:10499000072BE9D94FF00003FB7212E0FB7A03F119
:1049A0000B023B6B197840F2A423C2F20003995426
:1049B0003B6B03F101033B63FB7A03F10103DBB2C1
:1049C000FB72FB7A032BE9D94FF00003FB7212E074
:1049D000FB7A03F10F02FB6A197840F2A423C2F2BA
:1049E00000039954FB6A03F10103FB62FB7A03F1B4
:1049F0000103DBB2FB72FB7A0B2BE9D94FF000030A
:104A0000FB7212E0FB7A03F11B02BB6A197840F2D9
:104A1000A423C2F200039954BB6A03F10103BB62F1
:104A2000FB7A03F10103DBB2FB72FB7A272BE9D996
:104A30004FF00003FB7212E0FB7A03F143027B6A42
:104A4000197840F2A423C2F2000399547B6A03F15F
:104A500001037B62FB7A03F10103DBB2FB72FB7A99
:104A60000B2BE9D94FF00003FB7212E0FB7A03F144
:104A70004F023B6A197840F2A423C2F20003995412
:104A80003B6A03F101033B62FB7A03F10103DBB2F2
:104A9000FB72FB7A0B2BE9D94FF00003FB7212E09B
:104AA000FB7A03F15B02FB69197840F2A423C2F29E
:104AB00000039954FB6903F10103FB61FB7A03F1E5
:104AC0000103DBB2FB72FB7A0B2BE9D94FF0000339
:104AD000FB7212E0FB7A03F16702BB69197840F2BE
:104AE000A423C2F200039954BB6903F10103BB6123
:104AF000FB7A03F10103DBB2FB72FB7A1B2BE9D9D2
:104B00004FF00003FB7212E0FB7A03F18302FB68B3
:104B1000197840F2A423C2F200039954FB6803F110
:104B20000103FB60FB7A03F10103DBB2FB72FB7A4A
:104B3000032BE9D94FF00003FB7212E0FB7A03F17B
:104B400087027B69197840F2A423C2F200039954CA
:104B50007B6903F101037B61FB7A03F10103DBB2A3
:104B6000FB72FB7A0F2BE9D94FF00003FB7212E0C6
:104B7000FB7A03F197023B69197840F2A423C2F251
:104B8000000399543B6903F101033B61FB7A03F194
:104B90000103DBB2FB72FB7A0B2BE9D9FB799BB2E9
:104BA000184640F2A421C2F20001FFF7A5FA07F16E
:104BB0003807BD4680BD00BF90010020D401002011
:104BC0009C01002084010020A8010020E0010020B9
:104BD00080B584B000AF4FF020004FF00101FCF72A
:104BE0009FFF07F10403FB60FB684FF080021A602F
:104BF000FB684FF001021A71FB684FF00102DA7195
:104C0000FB684FF000029A71FB684FF002025A7184
:104C10004FF4A050C4F20200F968FDF77DFFFB6875
:104C20004FF480721A60FB684FF001021A71FB6842
:104C30004FF00102DA71FB684FF000029A71FB68D5
:104C40004FF002025A714FF4A050C4F20200F9680A
:104C5000FDF762FFFB684FF400721A60FB684FF0CB
:104C600001021A71FB684FF00102DA71FB684FF024
:104C700000029A71FB684FF002025A714FF4A05083
:104C8000C4F20200F968FDF747FFFB684FF04002ED
:104C90001A60FB684FF001021A71FB684FF00102C5
:104CA000DA71FB684FF000029A71FB684FF0020264
:104CB0005A714FF4A050C4F20200F968FDF72CFFBE
:104CC00007F11007BD4680BD80B582B000AF034636
:104CD000FB71FB79012B07D14FF4A050C4F2020005
:104CE0004FF48071FDF7D8FFFB79022B07D14FF409
:104CF000A050C4F202004FF08001FDF7CDFFFB7918
:104D0000002B07D14FF4A050C4F202004FF0400135
:104D1000FDF7C2FFFB79032B07D14FF4A050C4F27B
:104D200002004FF40071FDF7B7FF07F10807BD4619
:104D300080BD00BF80B582B000AF0346FB71FB7938
:104D4000012B07D14FF4A050C4F202004FF4807140
:104D5000FDF7B0FFFB79022B07D14FF4A050C4F24E
:104D600002004FF08001FDF7A5FFFB79002B07D172
:104D70004FF4A050C4F202004FF04001FDF79AFF3B
:104D8000FB79032B07D14FF4A050C4F202004FF47B
:104D90000071FDF78FFF07F10807BD4680BD00BF1A
:104DA00080B582B000AF0346FB71FB79012B07D1C0
:104DB0004FF4A050C4F202004FF48071FDF788FF59
:104DC000FB79022B07D14FF4A050C4F202004FF040
:104DD0008001FDF77DFFFB79002B07D14FF4A05038
:104DE000C4F202004FF04001FDF772FFFB79032B84
:104DF00007D14FF4A050C4F202004FF40071FDF748
:104E000067FF07F10807BD4680BD00BF80B487B0CB
:104E100000AF78600B467B804FF00003FB824FF0C1
:104E20000003FB734FF000033B610DE07B681B78D0
:104E30001A46FB8AD318FB827B6803F101037B606F
:104E40003B6903F101033B617A883B699A42EDDCDF
:104E5000FB8AFB73FB7B184607F11C07BD4680BC31
:104E6000704700BF00B540F6D87320F00042C3F68B
:104E700049739A4283B0014615DDB2F1FF4F03DB5F
:104E800001F0FCFF03B000BD694600F07FF800F0C0
:104E90000302012A009801990ED0022A07D082B994
:104EA00000F020FAEEE7002100F01CFAEAE700F03B
:104EB00019FA00F10040E5E701F0B8F800F1004010
:104EC000E0E7012201F0B2F8DCE700BF00B540F6F0
:104ED000D87320F00042C3F649739A4283B001466A
:104EE00016DDB2F1FF4F03DB01F0C8FF03B000BDD8
:104EF000694600F04BF800F00300012815D00228A5
:104F00000BD0B8B900980199012201F08FF8EDE7B4
:104F10000021002201F08AF8E8E7009801990122B7
:104F200001F084F800F10040E0E70098019900F0FA
:104F3000D9F9DBE70098019900F0D4F900F10040BD
:104F4000D4E700BF00B540F6DA7320F00042C3F6A4
:104F500049739A4283B0014613DDB2F1FF4F03DB80
:104F600001F08CFF03B000BD694600F00FF800F0BF
:104F70000100430001990098C3F1010201F0D6F845
:104F8000F0E70021012201F0D1F8EBE72DE9F04F25
:104F900040F6D87320F00044C3F649739C4289B0B0
:104FA00006460D4640F38B804CF6E331C4F2160101
:104FB0008C4226DC4FF478610028C3F6C97140F3B7
:104FC0002C8101F05BFF4FF47D6124F00F04C3F6E8
:104FD000C9718C42064600F0818044F24341C3F21D
:104FE000357101F04BFF01462860304601F046FF65
:104FF00044F24341C3F2357101F040FF012768607C
:1050000061E04FF47867C4F24937BC4240F38180D5
:10501000B4F1FF4F5BDA4FEAE459A9F18609A4EB3A
:10502000C954204602F0FAF901F0DEFF02460146BB
:105030002046059201F022FF4FF0874102F028F848
:10504000074602F0EBF901F0CFFF0146044638466F
:10505000069401F013FF4FF0874102F019F8002188
:10506000079002F0A9F9002800F0F78003272046F6
:1050700000210DF11808013F02F09EF940B158F8E7
:10508000044D00212046013F02F096F90028F6D198
:10509000924B02200090019305A83B4629464A46C0
:1050A00000F0FCF9002E07460DDA95E80C0002F13D
:1050B000004103F1004229606A60474203E0002397
:1050C000286000274B60384609B0BDE8F08F0146E4
:1050D00001F0D4FE002768602860F4E74FF48841AF
:1050E000C3F2357101F0CAFE4AF20831C2F6856199
:1050F000044601F0C3FE01462860204601F0BEFED2
:105100004AF20831C2F6856101F0B8FE01276860F5
:10511000D9E701F059F94FF68411C3F622718046A0
:1051200001F0B6FF4FF07C5101F0AAFE02F076F9D3
:10513000074601F059FF4FF47861C3F6C971834601
:1051400001F0A6FF0146404601F098FE44F24341BB
:105150008146C3F23571584601F09AFF1F2F8246EF
:10516000484620DC791E5E4B53F8211024F0FF02E4
:105170008A4218D0514601F081FE8046C5F8008071
:105180004146484601F07AFE514601F077FE002E76
:10519000686098DA08F1004800F10042C5F8008024
:1051A0006A607F428FE7514601F068FEE315804652
:1051B000C0F3C7501A1A082AE0DD4FF48841C3F241
:1051C00035715846039301F063FF824651464846C5
:1051D00001F054FE04462146484601F04FFE514678
:1051E00001F04CFE4AF208318146C2F6856158460C
:1051F00001F04EFF494601F041FE824651462046ED
:1052000001F03CFE039BC0F3C7518046581A192891
:1052100041DCC5F80080A146B2E701F031FE4FF451
:105220007D6724F00F04C3F6C977BC42064616D04A
:1052300044F24341C3F2357101F022FE0146286079
:10524000304601F01BFE44F24341C3F2357101F0D8
:1052500017FE4FF0FF37686035E7032718E74FF474
:105260008841C3F2357101F00BFE4AF20831C2F6F3
:105270008561044601F004FE01462860204601F0E5
:10528000FDFD4AF20831C2F6856101F0F9FD4FF0EB
:10529000FF37686017E74FF42341C2F6856158462F
:1052A00001F0F6FE80464146204601F0E7FD8146CA
:1052B0004946204601F0E2FD414601F0DFFD43F2A0
:1052C00032110446C2F28D41584601F0E1FE2146FA
:1052D00001F0D4FD824648464CE700BFE874000860
:1052E000687400082DE9F84320F00046B6F1485FE5
:1052F00005460F465BDA02F091F8002800F0CA80FC
:105300002946284601F0C4FE4DF24E71CAF64751B7
:10531000044601F0BDFE47F2F641C3F20F1101F061
:10532000AFFD214601F0B4FE4FF27C21C3F2934160
:1053300001F0A4FD214601F0ABFE40F60151C3F29D
:10534000D07101F09DFD214601F0A2FE40F66131D1
:10535000C3F6B62101F092FD214601F099FE4AF60E
:10536000AB21C3F62A5101F08BFD214601F090FEDE
:10537000804620464FF07C5101F08AFE41460646A9
:10538000204601F085FE39460446284601F080FE9D
:105390000146204601F072FD0146304601F06EFDE7
:1053A00001464FF07E5001F069FDBDE8F8830146EB
:1053B00001F06EFE4DF24E71CAF64751044601F0FF
:1053C00067FE47F2F641C3F20F1101F059FD214685
:1053D00001F05EFE4FF27C21C3F2934101F04EFDDD
:1053E000214601F055FE40F60151C3F2D07101F0A3
:1053F00047FD214601F04CFE40F66131C3F6B6216F
:1054000001F03CFD214601F043FE4AF6AB21C3F614
:105410002A5101F035FD214601F03AFE49F6991373
:10542000C3F699639E428046A3DD0020C3F6487010
:10543000864227DC06F17F464FF07E50314601F070
:105440001DFD814620464FF07C5101F021FE314682
:1054500001F014FD41460646204601F019FE39468A
:105460000446284601F014FE0146204601F006FDE0
:105470000146304601F002FD0146484601F0FEFCBF
:10548000BDE8F8834FF000090026C3F63879C3F66B
:105490009066D7E74FF07E50BDE8F8832DE9F04FD6
:1054A000DFB08B4C689D0C9303F1FF3CD31E54F886
:1054B00025600A9148BF131D8346D81020EAE07189
:1054C0000896CDF810C0049D0D91089E0D9CCF4309
:1054D00002EBC702AB190792C5EB04074DD4F818CD
:1054E0006999C7EB0009461C002F01EB870522AC28
:1054F00009F0010AC0F27D85286801F075FD0137C9
:10550000B74220604FF0040837D0BAF1000F23D023
:10551000002FC0F2718555F8080001F065FD0137D4
:10552000B74244F8080008F1040815D125E055F801
:10553000080001F059FD013708F1040944F808009A
:1055400013D455F8090001F04FFD0137B74244F874
:10555000090009F1040810D0002FE8DA0020013713
:1055600008F1040944F80800EBD501370020B742E0
:1055700044F8090009F10408EED1089A002AC0F2A3
:105580003E8508980C9E81004AAD6C18029149AF87
:1055900003944FEA860A049A002AC0F24C8322AB95
:1055A00003EB8604DBF8000054F8041C01F070FDE6
:1055B0000146002001F064FCA4F104090424AAF1CE
:1055C00004055445C5F3800580462AD06DB159F8CD
:1055D000041DDBF8040001F05BFD0146404601F0CC
:1055E0004FFC0824544580461BD059F8041C5BF836
:1055F000040001F04DFD0146404601F041FC251D2F
:10560000804659F8081C5BF8050001F041FD014691
:10561000404601F035FC2C1D54458046A9F108098F
:10562000E3D147F8048F039801368742B3D1DDF800
:1056300008C0089E0EA901EB0C070997B2005EABEB
:105640009C18002E029254F8509C7BDD0DF5947E40
:105650000EEB0205029A4FF06E5148460DAFBF188F
:1056600001F016FD01F0DAFE01F0BEFC4FF08741BB
:10567000019001F00DFD0146484601F0FFFB01F0ED
:10568000CDFE0EAC20600198014655F8040D01F0E6
:10569000F7FBBC428146C7F3800153D0D1B14FF034
:1056A0006E5101F0F5FC01F0B9FE01F09DFC4FF0E8
:1056B0008741019001F0ECFC0146484601F0DEFB19
:1056C00001F0ACFE0FAC019A2060114633E000BF40
:1056D000007800084FF06E51484601F0D9FC01F007
:1056E0009DFE01F081FC4FF08741804601F0D0FC27
:1056F0000146484601F0C2FB01F090FE4146606061
:1057000055F8040D01F0BCFB4FF06E51814601F0DD
:10571000BFFC01F083FE01F067FC4FF0874180463B
:1057200001F0B6FC0146484601F0A8FB01F076FE08
:105730004146A060083455F8040D01F0A1FBBC42BD
:105740008146C7D10799484600F08CFE4FF078514A
:10575000054601F09DFC00F03BFE4FF0824101F058
:1057600097FC0146284601F089FB074601F056FEEA
:10577000814601F039FC0146384601F07FFB079B6A
:10578000002B074640F33181721E0EACC3F10805B1
:1057900054F8223043FA05F101FA05F00DF1380E04
:1057A000079D1B1AC5F107044EF82230894443FABD
:1057B00004F4002C52DD002E09F1010940F34B8264
:1057C000029ADDF808C00EAB101F53F8042B0EA987
:1057D00000256144C0F3800022B1C2F5807543F812
:1057E000045C01258B4225D058B10F9A0433002D5B
:1057F00000F0F280C2F1FF0043F8040C01258B4257
:1058000018D053F8042BC2F1FF0015B9C2F580700F
:1058100012B143F8040C012553F8042BC2F1FF0028
:105820001DB9C2F58070002AE9D001258B4243F8EA
:10583000040CE6D1079B002B0DDD012B00F0DE8070
:10584000022B08D1711E0DF1380E5EF8212002F0F6
:105850003F004EF82100022C00F0DC803846002189
:1058600001F0AAFD002800F0EF800898751EA842FC
:1058700024DC029BDDF824E00EAAD1180B46CEEB07
:10588000010053F8042D011F7345C1F3800012D0AD
:1058900038B153F8041DDDF824C0634542EA010223
:1058A00009D0099F53F8040D53F8041D0243BB426D
:1058B00042EA0102F6D1002A40F08683089F0EAD2D
:1058C000781E55F82020002A40F0C78105EB80049F
:1058D000012354F8041D01330029FAD0F018771C75
:1058E00087420B9073DC049DDDF834900B9B0C9C7D
:1058F000DDF808C0EA19699F06EB0901981B07EB60
:105900008108A6194AA922AB01EB0C05571C82009D
:1059100003EB8600CDF80C800295069205900026D8
:10592000039C54F8040F039401F05EFB049D059959
:10593000002D88514DDB0DF1880E0EEB8702AAF188
:10594000040352F8041CDBF80000C3F38004A2F146
:10595000040901F09DFB0146002001F091FA0425A5
:10596000554580462AD06CB159F8041DDBF8040077
:1059700001F08EFB0146404601F082FA08255545AC
:1059800080461BD059F8041C5BF8050001F080FB31
:105990000146404601F074FA2C1D804659F8081C57
:1059A0005BF8040001F074FB0146404601F068FA20
:1059B000251D55458046A9F10809E3D102980699AD
:1059C00040F8048F043601378E420290A8D10B9E16
:1059D00034E64FF00008F1E7002A3FF410AFC2F5BB
:1059E000807543F8045C012509E740F01D81701EB5
:1059F0000DF1380C5CF820100C12DAE6731E0DF174
:105A0000380C022C5CF8231001F07F024CF82320A4
:105A10007FF424AF39464FF07E5001F02FFA07464D
:105A2000002D3FF41BAF07994FF07E5000F01AFD98
:105A30000146384601F022FA07463846002101F0B7
:105A4000BBFC00287FF411AF0394079CCDF81090A5
:105A50006142384600F006FD4FF08741054601F0EF
:105A6000C9FC002800F0D4824FF06E51284601F0A6
:105A70000FFB01F0D3FC01F0B7FA4FF08741074666
:105A800001F006FB0146284601F0F8F901F0C6FCDA
:105A90000EAB43F82600384601F0C0FC01360799EA
:105AA0000DF1380C08314CF8260007914FF07E506C
:105AB000079900F0D7FC002E0446C0F2AC804FEAF4
:105AC000860A0EAF5744C6EB867B4FEA8B09C9F1B5
:105AD00000034AA9386801EB0A08C3F3800B01F000
